{
  "address": "0xb30E5f668dB0d5FD389586ADFe52CdDbC04Bb496",
  "abi": [
    {
      "inputs": [
        {
          "internalType": "address",
          "name": "_admin",
          "type": "address"
        }
      ],
      "stateMutability": "nonpayable",
      "type": "constructor"
    },
    {
      "anonymous": false,
      "inputs": [
        {
          "indexed": true,
          "internalType": "address",
          "name": "oldAdmin",
          "type": "address"
        },
        {
          "indexed": true,
          "internalType": "address",
          "name": "newAdmin",
          "type": "address"
        }
      ],
      "name": "NewAdmin",
      "type": "event"
    },
    {
      "anonymous": false,
      "inputs": [
        {
          "indexed": true,
          "internalType": "address",
          "name": "oldImplementation",
          "type": "address"
        },
        {
          "indexed": true,
          "internalType": "address",
          "name": "newImplementation",
          "type": "address"
        }
      ],
      "name": "NewImplementation",
      "type": "event"
    },
    {
      "anonymous": false,
      "inputs": [
        {
          "indexed": true,
          "internalType": "address",
          "name": "oldPendingAdmin",
          "type": "address"
        },
        {
          "indexed": true,
          "internalType": "address",
          "name": "newPendingAdmin",
          "type": "address"
        }
      ],
      "name": "NewPendingAdmin",
      "type": "event"
    },
    {
      "anonymous": false,
      "inputs": [
        {
          "indexed": true,
          "internalType": "address",
          "name": "oldPendingImplementation",
          "type": "address"
        },
        {
          "indexed": true,
          "internalType": "address",
          "name": "newPendingImplementation",
          "type": "address"
        }
      ],
      "name": "NewPendingImplementation",
      "type": "event"
    },
    {
      "stateMutability": "payable",
      "type": "fallback"
    },
    {
      "inputs": [],
      "name": "acceptProxyAdmin",
      "outputs": [
        {
          "internalType": "bool",
          "name": "",
          "type": "bool"
        }
      ],
      "stateMutability": "nonpayable",
      "type": "function"
    },
    {
      "inputs": [],
      "name": "acceptProxyImplementation",
      "outputs": [
        {
          "internalType": "bool",
          "name": "",
          "type": "bool"
        }
      ],
      "stateMutability": "nonpayable",
      "type": "function"
    },
    {
      "inputs": [],
      "name": "pendingProxyAdmin",
      "outputs": [
        {
          "internalType": "address",
          "name": "",
          "type": "address"
        }
      ],
      "stateMutability": "view",
      "type": "function"
    },
    {
      "inputs": [],
      "name": "pendingProxyImplementation",
      "outputs": [
        {
          "internalType": "address",
          "name": "",
          "type": "address"
        }
      ],
      "stateMutability": "view",
      "type": "function"
    },
    {
      "inputs": [],
      "name": "proxyAdmin",
      "outputs": [
        {
          "internalType": "address",
          "name": "",
          "type": "address"
        }
      ],
      "stateMutability": "view",
      "type": "function"
    },
    {
      "inputs": [],
      "name": "proxyImplementation",
      "outputs": [
        {
          "internalType": "address",
          "name": "",
          "type": "address"
        }
      ],
      "stateMutability": "view",
      "type": "function"
    },
    {
      "inputs": [],
      "name": "proxyImplementationVersion",
      "outputs": [
        {
          "internalType": "uint8",
          "name": "",
          "type": "uint8"
        }
      ],
      "stateMutability": "view",
      "type": "function"
    },
    {
      "inputs": [
        {
          "internalType": "address",
          "name": "newPendingAdmin",
          "type": "address"
        }
      ],
      "name": "setPendingProxyAdmin",
      "outputs": [
        {
          "internalType": "bool",
          "name": "",
          "type": "bool"
        }
      ],
      "stateMutability": "nonpayable",
      "type": "function"
    },
    {
      "inputs": [
        {
          "internalType": "address",
          "name": "newPendingImplementation",
          "type": "address"
        }
      ],
      "name": "setPendingProxyImplementation",
      "outputs": [
        {
          "internalType": "bool",
          "name": "",
          "type": "bool"
        }
      ],
      "stateMutability": "nonpayable",
      "type": "function"
    },
    {
      "stateMutability": "payable",
      "type": "receive"
    }
  ],
  "transactionHash": "0xd3263cab7d8591b7780d51056e823a666443e49eb3f454dd3f84ed3492df4953",
  "args": [
    "0x0A26a1eBca217c8090f9a7759Ef82f19a1E19ea1"
  ],
  "solcInputHash": "e885469200b403bc2af39246669116fe",
  "bytecode": "0x60806040523480156200001157600080fd5b506040516200131d3803806200131d8339818101604052810190620000379190620000da565b6000620000496200009660201b60201c565b9050818160000160006101000a81548173ffffffffffffffffffffffffffffffffffffffff021916908373ffffffffffffffffffffffffffffffffffffffff160217905550505062000154565b6000807f0e44922e752e5aec2c0503d75bafd73ddc558f76127cf1484a1819fd3dfb6b9090508091505090565b600081519050620000d4816200013a565b92915050565b600060208284031215620000ed57600080fd5b6000620000fd84828501620000c3565b91505092915050565b600062000113826200011a565b9050919050565b600073ffffffffffffffffffffffffffffffffffffffff82169050919050565b620001458162000106565b81146200015157600080fd5b50565b6111b980620001646000396000f3fe60806040526004361061009a5760003560e01c80633e47158c1161006957806394d8fbd01161004e57806394d8fbd0146101c75780639c2562db146101f2578063ec10bbd51461021d576100a9565b80633e47158c14610171578063640590161461019c576100a9565b80630758e714146100b35780630c870f91146100f057806315596a201461011b57806325f86cbb14610146576100a9565b366100a9576100a761025a565b005b6100b161025a565b005b3480156100bf57600080fd5b506100da60048036038101906100d59190610d70565b610311565b6040516100e79190610eab565b60405180910390f35b3480156100fc57600080fd5b506101056104a5565b6040516101129190610e90565b60405180910390f35b34801561012757600080fd5b506101306104dd565b60405161013d9190610f46565b60405180910390f35b34801561015257600080fd5b5061015b610502565b6040516101689190610e90565b60405180910390f35b34801561017d57600080fd5b5061018661053a565b6040516101939190610e90565b60405180910390f35b3480156101a857600080fd5b506101b1610572565b6040516101be9190610eab565b60405180910390f35b3480156101d357600080fd5b506101dc61084d565b6040516101e99190610eab565b60405180910390f35b3480156101fe57600080fd5b50610207610b86565b6040516102149190610e90565b60405180910390f35b34801561022957600080fd5b50610244600480360381019061023f9190610d70565b610bbe565b6040516102519190610eab565b60405180910390f35b6000610264610d2e565b905060008160020160009054906101000a900473ffffffffffffffffffffffffffffffffffffffff1673ffffffffffffffffffffffffffffffffffffffff166000366040516102b4929190610e77565b600060405180830381855af49150503d80600081146102ef576040519150601f19603f3d011682016040523d82523d6000602084013e6102f4565b606091505b505090506040513d6000823e816000811461030d573d82f35b3d82fd5b60008061031c610d2e565b90508060000160009054906101000a900473ffffffffffffffffffffffffffffffffffffffff1673ffffffffffffffffffffffffffffffffffffffff163373ffffffffffffffffffffffffffffffffffffffff16146103b0576040517f08c379a00000000000000000000000000000000000000000000000000000000081526004016103a790610f06565b60405180910390fd5b60008160030160009054906101000a900473ffffffffffffffffffffffffffffffffffffffff169050838260030160006101000a81548173ffffffffffffffffffffffffffffffffffffffff021916908373ffffffffffffffffffffffffffffffffffffffff1602179055508160030160009054906101000a900473ffffffffffffffffffffffffffffffffffffffff1673ffffffffffffffffffffffffffffffffffffffff168173ffffffffffffffffffffffffffffffffffffffff167fe945ccee5d701fc83f9b8aa8ca94ea4219ec1fcbd4f4cab4f0ea57c5c3e1d81560405160405180910390a3600192505050919050565b6000806104b0610d2e565b90508060020160009054906101000a900473ffffffffffffffffffffffffffffffffffffffff1691505090565b6000806104e8610d2e565b90508060030160149054906101000a900460ff1691505090565b60008061050d610d2e565b90508060010160009054906101000a900473ffffffffffffffffffffffffffffffffffffffff1691505090565b600080610545610d2e565b90508060000160009054906101000a900473ffffffffffffffffffffffffffffffffffffffff1691505090565b60008061057d610d2e565b90508060010160009054906101000a900473ffffffffffffffffffffffffffffffffffffffff1673ffffffffffffffffffffffffffffffffffffffff163373ffffffffffffffffffffffffffffffffffffffff1614801561060b5750600073ffffffffffffffffffffffffffffffffffffffff163373ffffffffffffffffffffffffffffffffffffffff1614155b61064a576040517f08c379a000000000000000000000000000000000000000000000000000000000815260040161064190610ec6565b60405180910390fd5b60008160000160009054906101000a900473ffffffffffffffffffffffffffffffffffffffff16905060008260010160009054906101000a900473ffffffffffffffffffffffffffffffffffffffff1690508260010160009054906101000a900473ffffffffffffffffffffffffffffffffffffffff168360000160006101000a81548173ffffffffffffffffffffffffffffffffffffffff021916908373ffffffffffffffffffffffffffffffffffffffff16021790555060008360010160006101000a81548173ffffffffffffffffffffffffffffffffffffffff021916908373ffffffffffffffffffffffffffffffffffffffff1602179055508260000160009054906101000a900473ffffffffffffffffffffffffffffffffffffffff1673ffffffffffffffffffffffffffffffffffffffff168273ffffffffffffffffffffffffffffffffffffffff167ff9ffabca9c8276e99321725bcb43fb076a6c66a54b7f21c4e8146d8519b417dc60405160405180910390a38260010160009054906101000a900473ffffffffffffffffffffffffffffffffffffffff1673ffffffffffffffffffffffffffffffffffffffff168173ffffffffffffffffffffffffffffffffffffffff167fca4f2f25d0898edd99413412fb94012f9e54ec8142f9b093e7720646a95b16a960405160405180910390a36001935050505090565b600080610858610d2e565b90508060030160009054906101000a900473ffffffffffffffffffffffffffffffffffffffff1673ffffffffffffffffffffffffffffffffffffffff163373ffffffffffffffffffffffffffffffffffffffff1614801561090a5750600073ffffffffffffffffffffffffffffffffffffffff168160030160009054906101000a900473ffffffffffffffffffffffffffffffffffffffff1673ffffffffffffffffffffffffffffffffffffffff1614155b610949576040517f08c379a000000000000000000000000000000000000000000000000000000000815260040161094090610ee6565b60405180910390fd5b60008160020160009054906101000a900473ffffffffffffffffffffffffffffffffffffffff16905060008260030160009054906101000a900473ffffffffffffffffffffffffffffffffffffffff1690508260030160009054906101000a900473ffffffffffffffffffffffffffffffffffffffff168360020160006101000a81548173ffffffffffffffffffffffffffffffffffffffff021916908373ffffffffffffffffffffffffffffffffffffffff16021790555060008360030160006101000a81548173ffffffffffffffffffffffffffffffffffffffff021916908373ffffffffffffffffffffffffffffffffffffffff16021790555082600301601481819054906101000a900460ff1680929190610a6790610fd7565b91906101000a81548160ff021916908360ff160217905550508260020160009054906101000a900473ffffffffffffffffffffffffffffffffffffffff1673ffffffffffffffffffffffffffffffffffffffff168273ffffffffffffffffffffffffffffffffffffffff167fd604de94d45953f9138079ec1b82d533cb2160c906d1076d1f7ed54befbca97a60405160405180910390a38260030160009054906101000a900473ffffffffffffffffffffffffffffffffffffffff1673ffffffffffffffffffffffffffffffffffffffff168173ffffffffffffffffffffffffffffffffffffffff167fe945ccee5d701fc83f9b8aa8ca94ea4219ec1fcbd4f4cab4f0ea57c5c3e1d81560405160405180910390a36001935050505090565b600080610b91610d2e565b90508060030160009054906101000a900473ffffffffffffffffffffffffffffffffffffffff1691505090565b600080610bc9610d2e565b90508060000160009054906101000a900473ffffffffffffffffffffffffffffffffffffffff1673ffffffffffffffffffffffffffffffffffffffff163373ffffffffffffffffffffffffffffffffffffffff1614610c5d576040517f08c379a0000000000000000000000000000000000000000000000000000000008152600401610c5490610f26565b60405180910390fd5b60008160010160009054906101000a900473ffffffffffffffffffffffffffffffffffffffff169050838260010160006101000a81548173ffffffffffffffffffffffffffffffffffffffff021916908373ffffffffffffffffffffffffffffffffffffffff1602179055508373ffffffffffffffffffffffffffffffffffffffff168173ffffffffffffffffffffffffffffffffffffffff167fca4f2f25d0898edd99413412fb94012f9e54ec8142f9b093e7720646a95b16a960405160405180910390a3600192505050919050565b6000807f0e44922e752e5aec2c0503d75bafd73ddc558f76127cf1484a1819fd3dfb6b9090508091505090565b600081359050610d6a8161116c565b92915050565b600060208284031215610d8257600080fd5b6000610d9084828501610d5b565b91505092915050565b610da281610f7d565b82525050565b610db181610f8f565b82525050565b6000610dc38385610f61565b9350610dd0838584610fc8565b82840190509392505050565b6000610de9603583610f6c565b9150610df482611030565b604082019050919050565b6000610e0c603c83610f6c565b9150610e178261107f565b604082019050919050565b6000610e2f602f83610f6c565b9150610e3a826110ce565b604082019050919050565b6000610e52603183610f6c565b9150610e5d8261111d565b604082019050919050565b610e7181610fbb565b82525050565b6000610e84828486610db7565b91508190509392505050565b6000602082019050610ea56000830184610d99565b92915050565b6000602082019050610ec06000830184610da8565b92915050565b60006020820190508181036000830152610edf81610ddc565b9050919050565b60006020820190508181036000830152610eff81610dff565b9050919050565b60006020820190508181036000830152610f1f81610e22565b9050919050565b60006020820190508181036000830152610f3f81610e45565b9050919050565b6000602082019050610f5b6000830184610e68565b92915050565b600081905092915050565b600082825260208201905092915050565b6000610f8882610f9b565b9050919050565b60008115159050919050565b600073ffffffffffffffffffffffffffffffffffffffff82169050919050565b600060ff82169050919050565b82818337600083830152505050565b6000610fe282610fbb565b915060ff821415610ff657610ff5611001565b5b600182019050919050565b7f4e487b7100000000000000000000000000000000000000000000000000000000600052601160045260246000fd5b7f507269736d3a3a61636365707450726f787941646d696e3a2063616c6c65722060008201527f6d7573742062652070656e64696e672061646d696e0000000000000000000000602082015250565b7f507269736d3a3a61636365707450726f7879496d703a2063616c6c6572206d7560008201527f73742062652070656e64696e6720696d706c656d656e746174696f6e00000000602082015250565b7f507269736d3a3a73657450656e64696e6750726f7879496d703a2063616c6c6560008201527f72206d7573742062652061646d696e0000000000000000000000000000000000602082015250565b7f507269736d3a3a73657450656e64696e6750726f787941646d696e3a2063616c60008201527f6c6572206d7573742062652061646d696e000000000000000000000000000000602082015250565b61117581610f7d565b811461118057600080fd5b5056fea26469706673582212208bcff9bb35d7812fa861cbced98f5bdf4613b275d02ba799d4a644a2436f3b5b64736f6c63430008020033",
  "devdoc": {
    "details": "Storage for voting power is at this address, while contract calls are delegated to the PrismProxy implementationAll contracts that make use of voting powers should interact with this contract only",
    "kind": "dev",
    "methods": {
      "acceptProxyAdmin()": {
        "details": "Admin function for pending admin to accept role and update admin",
        "returns": {
          "_0": "boolean indicating success of operation"
        }
      },
      "acceptProxyImplementation()": {
        "details": "Admin function for new implementation to accept it's role as implementation",
        "returns": {
          "_0": "boolean indicating success of operation"
        }
      },
      "constructor": {
        "details": "Sets initial proxy admin to `_admin`",
        "params": {
          "_admin": "Initial proxy admin"
        }
      },
      "pendingProxyAdmin()": {
        "returns": {
          "_0": "admin address"
        }
      },
      "pendingProxyImplementation()": {
        "returns": {
          "_0": "pending implementation address"
        }
      },
      "proxyAdmin()": {
        "returns": {
          "_0": "admin address"
        }
      },
      "proxyImplementation()": {
        "returns": {
          "_0": "implementation address"
        }
      },
      "proxyImplementationVersion()": {
        "returns": {
          "_0": "version number"
        }
      },
      "setPendingProxyAdmin(address)": {
        "details": "Admin function to begin change of admin. The newPendingAdmin must call `acceptAdmin` to finalize the transfer.",
        "params": {
          "newPendingAdmin": "New pending admin."
        },
        "returns": {
          "_0": "boolean indicating success of operation"
        }
      },
      "setPendingProxyImplementation(address)": {
        "details": "Admin function for proposing new implementation contract",
        "returns": {
          "_0": "boolean indicating success of operation"
        }
      }
    },
    "title": "CrownPrism (prev. VotingPowerPrism)",
    "version": 1
  },
  "userdoc": {
    "events": {
      "NewAdmin(address,address)": {
        "notice": "Emitted when pendingAdmin is accepted, which means admin is updated"
      },
      "NewImplementation(address,address)": {
        "notice": "Emitted when pendingImplementation is accepted, which means implementation is updated"
      },
      "NewPendingAdmin(address,address)": {
        "notice": "Emitted when pendingAdmin is changed"
      },
      "NewPendingImplementation(address,address)": {
        "notice": "Emitted when pendingImplementation is changed"
      }
    },
    "kind": "user",
    "methods": {
      "acceptProxyAdmin()": {
        "notice": "Accepts transfer of admin rights. msg.sender must be pendingAdmin"
      },
      "acceptProxyImplementation()": {
        "notice": "Accepts new implementation for prism. msg.sender must be pendingImplementation"
      },
      "constructor": {
        "notice": "Construct a new Voting Power Prism Proxy"
      },
      "pendingProxyAdmin()": {
        "notice": "Get pending admin for prism proxy"
      },
      "pendingProxyImplementation()": {
        "notice": "Address of pending implementation contract"
      },
      "proxyAdmin()": {
        "notice": "Get current admin for prism proxy"
      },
      "proxyImplementation()": {
        "notice": "Address of implementation contract"
      },
      "proxyImplementationVersion()": {
        "notice": "Current implementation version for proxy"
      },
      "setPendingProxyAdmin(address)": {
        "notice": "Begins transfer of admin rights. The newPendingAdmin must call `acceptAdmin` to finalize the transfer."
      },
      "setPendingProxyImplementation(address)": {
        "notice": "Create new pending implementation for prism. msg.sender must be admin"
      }
    },
    "version": 1
  },
  "storageLayout": {
    "storage": [],
    "types": null
  }
}