{
  "address": "0x460EF112Cb639fE756Eb287e49E1aDFAbc514241",
  "abi": [
    {
      "anonymous": false,
      "inputs": [
        {
          "indexed": true,
          "internalType": "address",
          "name": "oldKing",
          "type": "address"
        },
        {
          "indexed": true,
          "internalType": "address",
          "name": "newKing",
          "type": "address"
        }
      ],
      "name": "RoyalSuccession",
      "type": "event"
    },
    {
      "anonymous": false,
      "inputs": [
        {
          "indexed": true,
          "internalType": "address",
          "name": "user",
          "type": "address"
        },
        {
          "indexed": true,
          "internalType": "address",
          "name": "token",
          "type": "address"
        },
        {
          "indexed": true,
          "internalType": "uint256",
          "name": "amount",
          "type": "uint256"
        },
        {
          "indexed": false,
          "internalType": "uint256",
          "name": "votingPower",
          "type": "uint256"
        }
      ],
      "name": "Staked",
      "type": "event"
    },
    {
      "anonymous": false,
      "inputs": [
        {
          "indexed": true,
          "internalType": "address",
          "name": "voter",
          "type": "address"
        },
        {
          "indexed": true,
          "internalType": "uint256",
          "name": "previousBalance",
          "type": "uint256"
        },
        {
          "indexed": true,
          "internalType": "uint256",
          "name": "newBalance",
          "type": "uint256"
        }
      ],
      "name": "VotingPowerChanged",
      "type": "event"
    },
    {
      "anonymous": false,
      "inputs": [
        {
          "indexed": true,
          "internalType": "address",
          "name": "user",
          "type": "address"
        },
        {
          "indexed": true,
          "internalType": "address",
          "name": "token",
          "type": "address"
        },
        {
          "indexed": true,
          "internalType": "uint256",
          "name": "amount",
          "type": "uint256"
        },
        {
          "indexed": false,
          "internalType": "uint256",
          "name": "votingPower",
          "type": "uint256"
        }
      ],
      "name": "Withdrawn",
      "type": "event"
    },
    {
      "inputs": [
        {
          "internalType": "address",
          "name": "account",
          "type": "address"
        },
        {
          "internalType": "uint256",
          "name": "amount",
          "type": "uint256"
        }
      ],
      "name": "addVotingPowerForLockedTokens",
      "outputs": [],
      "stateMutability": "nonpayable",
      "type": "function"
    },
    {
      "inputs": [
        {
          "internalType": "address",
          "name": "account",
          "type": "address"
        },
        {
          "internalType": "uint256",
          "name": "amount",
          "type": "uint256"
        }
      ],
      "name": "addVotingPowerForVestingTokens",
      "outputs": [],
      "stateMutability": "nonpayable",
      "type": "function"
    },
    {
      "inputs": [
        {
          "internalType": "contract PrismProxy",
          "name": "prism",
          "type": "address"
        }
      ],
      "name": "become",
      "outputs": [],
      "stateMutability": "nonpayable",
      "type": "function"
    },
    {
      "inputs": [
        {
          "internalType": "address",
          "name": "staker",
          "type": "address"
        },
        {
          "internalType": "address",
          "name": "stakedToken",
          "type": "address"
        }
      ],
      "name": "getAmountStaked",
      "outputs": [
        {
          "internalType": "uint256",
          "name": "",
          "type": "uint256"
        }
      ],
      "stateMutability": "view",
      "type": "function"
    },
    {
      "inputs": [
        {
          "internalType": "address",
          "name": "staker",
          "type": "address"
        }
      ],
      "name": "getGovernanceTokenAmountStaked",
      "outputs": [
        {
          "internalType": "uint256",
          "name": "",
          "type": "uint256"
        }
      ],
      "stateMutability": "view",
      "type": "function"
    },
    {
      "inputs": [
        {
          "internalType": "address",
          "name": "staker",
          "type": "address"
        }
      ],
      "name": "getGovernanceTokenStake",
      "outputs": [
        {
          "components": [
            {
              "internalType": "uint256",
              "name": "amount",
              "type": "uint256"
            },
            {
              "internalType": "uint256",
              "name": "votingPower",
              "type": "uint256"
            }
          ],
          "internalType": "struct CrownStake",
          "name": "",
          "type": "tuple"
        }
      ],
      "stateMutability": "view",
      "type": "function"
    },
    {
      "inputs": [
        {
          "internalType": "address",
          "name": "staker",
          "type": "address"
        },
        {
          "internalType": "address",
          "name": "stakedToken",
          "type": "address"
        }
      ],
      "name": "getStake",
      "outputs": [
        {
          "components": [
            {
              "internalType": "uint256",
              "name": "amount",
              "type": "uint256"
            },
            {
              "internalType": "uint256",
              "name": "votingPower",
              "type": "uint256"
            }
          ],
          "internalType": "struct CrownStake",
          "name": "",
          "type": "tuple"
        }
      ],
      "stateMutability": "view",
      "type": "function"
    },
    {
      "inputs": [],
      "name": "govToken",
      "outputs": [
        {
          "internalType": "address",
          "name": "",
          "type": "address"
        }
      ],
      "stateMutability": "view",
      "type": "function"
    },
    {
      "inputs": [
        {
          "internalType": "address",
          "name": "_govToken",
          "type": "address"
        },
        {
          "internalType": "address",
          "name": "_vestingContract",
          "type": "address"
        }
      ],
      "name": "initialize",
      "outputs": [],
      "stateMutability": "nonpayable",
      "type": "function"
    },
    {
      "inputs": [],
      "name": "lockManager",
      "outputs": [
        {
          "internalType": "address",
          "name": "",
          "type": "address"
        }
      ],
      "stateMutability": "view",
      "type": "function"
    },
    {
      "inputs": [],
      "name": "owner",
      "outputs": [
        {
          "internalType": "address",
          "name": "",
          "type": "address"
        }
      ],
      "stateMutability": "view",
      "type": "function"
    },
    {
      "inputs": [
        {
          "internalType": "address",
          "name": "account",
          "type": "address"
        },
        {
          "internalType": "uint256",
          "name": "amount",
          "type": "uint256"
        }
      ],
      "name": "removeVotingPowerForClaimedTokens",
      "outputs": [],
      "stateMutability": "nonpayable",
      "type": "function"
    },
    {
      "inputs": [
        {
          "internalType": "address",
          "name": "account",
          "type": "address"
        },
        {
          "internalType": "uint256",
          "name": "amount",
          "type": "uint256"
        }
      ],
      "name": "removeVotingPowerForUnlockedTokens",
      "outputs": [],
      "stateMutability": "nonpayable",
      "type": "function"
    },
    {
      "inputs": [
        {
          "internalType": "address",
          "name": "newLockManager",
          "type": "address"
        }
      ],
      "name": "setLockManager",
      "outputs": [],
      "stateMutability": "nonpayable",
      "type": "function"
    },
    {
      "inputs": [
        {
          "internalType": "address",
          "name": "registry",
          "type": "address"
        }
      ],
      "name": "setTokenRegistry",
      "outputs": [],
      "stateMutability": "nonpayable",
      "type": "function"
    },
    {
      "inputs": [
        {
          "internalType": "uint256",
          "name": "amount",
          "type": "uint256"
        }
      ],
      "name": "stake",
      "outputs": [],
      "stateMutability": "nonpayable",
      "type": "function"
    },
    {
      "inputs": [
        {
          "internalType": "address",
          "name": "token",
          "type": "address"
        },
        {
          "internalType": "uint256",
          "name": "amount",
          "type": "uint256"
        }
      ],
      "name": "stake",
      "outputs": [],
      "stateMutability": "nonpayable",
      "type": "function"
    },
    {
      "inputs": [
        {
          "internalType": "uint256",
          "name": "amount",
          "type": "uint256"
        },
        {
          "internalType": "uint256",
          "name": "deadline",
          "type": "uint256"
        },
        {
          "internalType": "uint8",
          "name": "v",
          "type": "uint8"
        },
        {
          "internalType": "bytes32",
          "name": "r",
          "type": "bytes32"
        },
        {
          "internalType": "bytes32",
          "name": "s",
          "type": "bytes32"
        }
      ],
      "name": "stakeWithPermit",
      "outputs": [],
      "stateMutability": "nonpayable",
      "type": "function"
    },
    {
      "inputs": [
        {
          "internalType": "address",
          "name": "newKing",
          "type": "address"
        }
      ],
      "name": "succeed",
      "outputs": [],
      "stateMutability": "nonpayable",
      "type": "function"
    },
    {
      "inputs": [],
      "name": "tokenRegistry",
      "outputs": [
        {
          "internalType": "address",
          "name": "",
          "type": "address"
        }
      ],
      "stateMutability": "view",
      "type": "function"
    },
    {
      "inputs": [],
      "name": "vestingContract",
      "outputs": [
        {
          "internalType": "address",
          "name": "",
          "type": "address"
        }
      ],
      "stateMutability": "view",
      "type": "function"
    },
    {
      "inputs": [],
      "name": "votingDecimals",
      "outputs": [
        {
          "internalType": "uint8",
          "name": "",
          "type": "uint8"
        }
      ],
      "stateMutability": "pure",
      "type": "function"
    },
    {
      "inputs": [
        {
          "internalType": "address",
          "name": "account",
          "type": "address"
        }
      ],
      "name": "votingPowerOf",
      "outputs": [
        {
          "internalType": "uint256",
          "name": "",
          "type": "uint256"
        }
      ],
      "stateMutability": "view",
      "type": "function"
    },
    {
      "inputs": [
        {
          "internalType": "address",
          "name": "account",
          "type": "address"
        },
        {
          "internalType": "uint256",
          "name": "blockNumber",
          "type": "uint256"
        }
      ],
      "name": "votingPowerOfAt",
      "outputs": [
        {
          "internalType": "uint256",
          "name": "",
          "type": "uint256"
        }
      ],
      "stateMutability": "view",
      "type": "function"
    },
    {
      "inputs": [
        {
          "internalType": "uint256",
          "name": "amount",
          "type": "uint256"
        }
      ],
      "name": "withdraw",
      "outputs": [],
      "stateMutability": "nonpayable",
      "type": "function"
    },
    {
      "inputs": [
        {
          "internalType": "address",
          "name": "token",
          "type": "address"
        },
        {
          "internalType": "uint256",
          "name": "amount",
          "type": "uint256"
        }
      ],
      "name": "withdraw",
      "outputs": [],
      "stateMutability": "nonpayable",
      "type": "function"
    }
  ],
  "transactionHash": "0x8e8f1b5b1fb400d60b488d88b242453d24b1d1dd1c9a253fb828efe5398ff13e",
  "args": [],
  "solcInputHash": "e885469200b403bc2af39246669116fe",
  "bytecode": "0x608060405234801561001057600080fd5b50614fb8806100206000396000f3fe608060405234801561001057600080fd5b50600436106101ae5760003560e01c80639d10084a116100ee578063bcc3f3bd11610097578063deedfdbd11610071578063deedfdbd1461048b578063ecd9ba82146104a7578063f3fef3a3146104c3578063f9a92d82146104df576101ae565b8063bcc3f3bd146103fb578063ca291ba11461042b578063dd18ffa41461045b576101ae565b8063a694fc3a116100c8578063a694fc3a146103a5578063acca30a2146103c1578063adc9772e146103df576101ae565b80639d10084a1461034d5780639d23c4c71461036b578063a1194c8e14610389576101ae565b8063485cc9551161015b57806382dda22d1161013557806382dda22d146102c75780638da5cb5b146102f75780639b92ac4a146103155780639cc7a36714610331576101ae565b8063485cc9551461025d5780635e6f6045146102795780637741459e14610297576101ae565b80631efaa4421161018c5780631efaa442146102095780632e1a7d4d1461022557806335a5af9214610241576101ae565b806305268cff146101b35780630b70b812146101d15780630bae5b7c146101ed575b600080fd5b6101bb61050f565b6040516101c89190613f3d565b60405180910390f35b6101eb60048036038101906101e691906138ac565b610547565b005b6102076004803603810190610202919061393a565b6107ba565b005b610223600480360381019061021e919061393a565b61092e565b005b61023f600480360381019061023a91906139c8565b610aa2565b005b61025b600480360381019061025691906138ac565b610ba9565b005b610277600480360381019061027291906138fe565b610cf6565b005b610281610e6c565b60405161028e9190613f3d565b60405180910390f35b6102b160048036038101906102ac91906138fe565b610ea4565b6040516102be91906143ed565b60405180910390f35b6102e160048036038101906102dc91906138fe565b610ebc565b6040516102ee91906143d2565b60405180910390f35b6102ff610f76565b60405161030c9190613f3d565b60405180910390f35b61032f600480360381019061032a919061393a565b610fae565b005b61034b6004803603810190610346919061393a565b611122565b005b610355611296565b6040516103629190614408565b60405180910390f35b61037361129f565b6040516103809190613f3d565b60405180910390f35b6103a3600480360381019061039e919061399f565b6112d7565b005b6103bf60048036038101906103ba91906139c8565b61148b565b005b6103c9611772565b6040516103d69190613f3d565b60405180910390f35b6103f960048036038101906103f4919061393a565b6117aa565b005b610415600480360381019061041091906138ac565b611be2565b60405161042291906143ed565b60405180910390f35b610445600480360381019061044091906138ac565b611cd2565b60405161045291906143d2565b60405180910390f35b610475600480360381019061047091906138ac565b611d1c565b60405161048291906143ed565b60405180910390f35b6104a560048036038101906104a091906138ac565b611d32565b005b6104c160048036038101906104bc9190613a1a565b611e7f565b005b6104dd60048036038101906104d8919061393a565b612114565b005b6104f960048036038101906104f4919061393a565b61222c565b60405161050691906143ed565b60405180910390f35b60008061051a612620565b90508060010160009054906101000a900473ffffffffffffffffffffffffffffffffffffffff1691505090565b6000610551612620565b9050600073ffffffffffffffffffffffffffffffffffffffff168160030160009054906101000a900473ffffffffffffffffffffffffffffffffffffffff1673ffffffffffffffffffffffffffffffffffffffff16148061060157508060030160009054906101000a900473ffffffffffffffffffffffffffffffffffffffff1673ffffffffffffffffffffffffffffffffffffffff163373ffffffffffffffffffffffffffffffffffffffff16145b610640576040517f08c379a0000000000000000000000000000000000000000000000000000000008152600401610637906141f2565b60405180910390fd5b600073ffffffffffffffffffffffffffffffffffffffff168273ffffffffffffffffffffffffffffffffffffffff16141580156106a957503073ffffffffffffffffffffffffffffffffffffffff168273ffffffffffffffffffffffffffffffffffffffff1614155b6106e8576040517f08c379a00000000000000000000000000000000000000000000000000000000081526004016106df906143b2565b60405180910390fd5b60006106f2612620565b90508273ffffffffffffffffffffffffffffffffffffffff168160030160009054906101000a900473ffffffffffffffffffffffffffffffffffffffff1673ffffffffffffffffffffffffffffffffffffffff167fb4877dbaed6986c73208f0c04f109dbb743d2285a0a9b6b1ee90c87929158cfe60405160405180910390a3828160030160006101000a81548173ffffffffffffffffffffffffffffffffffffffff021916908373ffffffffffffffffffffffffffffffffffffffff160217905550505050565b600060029054906101000a900460ff16610809576040517f08c379a000000000000000000000000000000000000000000000000000000000815260040161080090614372565b60405180910390fd5b60008060026101000a81548160ff021916908315150217905550600061082d612620565b905060008211610872576040517f08c379a0000000000000000000000000000000000000000000000000000000008152600401610869906140f2565b60405180910390fd5b8060040160009054906101000a900473ffffffffffffffffffffffffffffffffffffffff1673ffffffffffffffffffffffffffffffffffffffff163373ffffffffffffffffffffffffffffffffffffffff1614610904576040517f08c379a00000000000000000000000000000000000000000000000000000000081526004016108fb906140b2565b60405180910390fd5b61090e838361264d565b506001600060026101000a81548160ff0219169083151502179055505050565b600060029054906101000a900460ff1661097d576040517f08c379a000000000000000000000000000000000000000000000000000000000815260040161097490614372565b60405180910390fd5b60008060026101000a81548160ff02191690831515021790555060006109a1612620565b9050600082116109e6576040517f08c379a00000000000000000000000000000000000000000000000000000000081526004016109dd90614232565b60405180910390fd5b8060020160009054906101000a900473ffffffffffffffffffffffffffffffffffffffff1673ffffffffffffffffffffffffffffffffffffffff163373ffffffffffffffffffffffffffffffffffffffff1614610a78576040517f08c379a0000000000000000000000000000000000000000000000000000000008152600401610a6f90614092565b60405180910390fd5b610a828383612761565b506001600060026101000a81548160ff0219169083151502179055505050565b600060029054906101000a900460ff16610af1576040517f08c379a0000000000000000000000000000000000000000000000000000000008152600401610ae890614372565b60405180910390fd5b60008060026101000a81548160ff02191690831515021790555060008111610b4e576040517f08c379a0000000000000000000000000000000000000000000000000000000008152600401610b4590614312565b60405180910390fd5b6000610b58612620565b9050610b8a338260010160009054906101000a900473ffffffffffffffffffffffffffffffffffffffff168485612875565b506001600060026101000a81548160ff02191690831515021790555050565b6000610bb3612620565b9050600073ffffffffffffffffffffffffffffffffffffffff168160030160009054906101000a900473ffffffffffffffffffffffffffffffffffffffff1673ffffffffffffffffffffffffffffffffffffffff161480610c6357508060030160009054906101000a900473ffffffffffffffffffffffffffffffffffffffff1673ffffffffffffffffffffffffffffffffffffffff163373ffffffffffffffffffffffffffffffffffffffff16145b610ca2576040517f08c379a0000000000000000000000000000000000000000000000000000000008152600401610c99906141f2565b60405180910390fd5b6000610cac612620565b9050828160050160006101000a81548173ffffffffffffffffffffffffffffffffffffffff021916908373ffffffffffffffffffffffffffffffffffffffff160217905550505050565b600060019054906101000a900460ff1680610d1c575060008054906101000a900460ff16155b610d5b576040517f08c379a0000000000000000000000000000000000000000000000000000000008152600401610d5290614192565b60405180910390fd5b60008060019054906101000a900460ff161590508015610dab576001600060016101000a81548160ff02191690831515021790555060016000806101000a81548160ff0219169083151502179055505b610db3612cdd565b6000610dbd612620565b9050838160010160006101000a81548173ffffffffffffffffffffffffffffffffffffffff021916908373ffffffffffffffffffffffffffffffffffffffff160217905550828160020160006101000a81548173ffffffffffffffffffffffffffffffffffffffff021916908373ffffffffffffffffffffffffffffffffffffffff160217905550508015610e675760008060016101000a81548160ff0219169083151502179055505b505050565b600080610e77612620565b90508060020160009054906101000a900473ffffffffffffffffffffffffffffffffffffffff1691505090565b6000610eb08383610ebc565b60000151905092915050565b610ec46137ea565b6000610ece612dd1565b90508060000160008573ffffffffffffffffffffffffffffffffffffffff1673ffffffffffffffffffffffffffffffffffffffff16815260200190815260200160002060008473ffffffffffffffffffffffffffffffffffffffff1673ffffffffffffffffffffffffffffffffffffffff1681526020019081526020016000206040518060400160405290816000820154815260200160018201548152505091505092915050565b600080610f81612620565b90508060030160009054906101000a900473ffffffffffffffffffffffffffffffffffffffff1691505090565b600060029054906101000a900460ff16610ffd576040517f08c379a0000000000000000000000000000000000000000000000000000000008152600401610ff490614372565b60405180910390fd5b60008060026101000a81548160ff0219169083151502179055506000611021612620565b905060008211611066576040517f08c379a000000000000000000000000000000000000000000000000000000000815260040161105d90614252565b60405180910390fd5b8060020160009054906101000a900473ffffffffffffffffffffffffffffffffffffffff1673ffffffffffffffffffffffffffffffffffffffff163373ffffffffffffffffffffffffffffffffffffffff16146110f8576040517f08c379a00000000000000000000000000000000000000000000000000000000081526004016110ef906142d2565b60405180910390fd5b611102838361264d565b506001600060026101000a81548160ff0219169083151502179055505050565b600060029054906101000a900460ff16611171576040517f08c379a000000000000000000000000000000000000000000000000000000000815260040161116890614372565b60405180910390fd5b60008060026101000a81548160ff0219169083151502179055506000611195612620565b9050600082116111da576040517f08c379a00000000000000000000000000000000000000000000000000000000081526004016111d190614292565b60405180910390fd5b8060040160009054906101000a900473ffffffffffffffffffffffffffffffffffffffff1673ffffffffffffffffffffffffffffffffffffffff163373ffffffffffffffffffffffffffffffffffffffff161461126c576040517f08c379a000000000000000000000000000000000000000000000000000000000815260040161126390614392565b60405180910390fd5b6112768383612761565b506001600060026101000a81548160ff0219169083151502179055505050565b60006012905090565b6000806112aa612620565b90508060050160009054906101000a900473ffffffffffffffffffffffffffffffffffffffff1691505090565b8073ffffffffffffffffffffffffffffffffffffffff16633e47158c6040518163ffffffff1660e01b815260040160206040518083038186803b15801561131d57600080fd5b505afa158015611331573d6000803e3d6000fd5b505050506040513d601f19601f8201168201806040525081019061135591906138d5565b73ffffffffffffffffffffffffffffffffffffffff163373ffffffffffffffffffffffffffffffffffffffff16146113c2576040517f08c379a00000000000000000000000000000000000000000000000000000000081526004016113b990614072565b60405180910390fd5b600115158173ffffffffffffffffffffffffffffffffffffffff166394d8fbd06040518163ffffffff1660e01b8152600401602060405180830381600087803b15801561140e57600080fd5b505af1158015611422573d6000803e3d6000fd5b505050506040513d601f19601f820116820180604052508101906114469190613976565b151514611488576040517f08c379a000000000000000000000000000000000000000000000000000000000815260040161147f90614212565b60405180910390fd5b50565b600060029054906101000a900460ff166114da576040517f08c379a00000000000000000000000000000000000000000000000000000000081526004016114d190614372565b60405180910390fd5b60008060026101000a81548160ff02191690831515021790555060006114fe612620565b905060008211611543576040517f08c379a000000000000000000000000000000000000000000000000000000000815260040161153a90614152565b60405180910390fd5b818160010160009054906101000a900473ffffffffffffffffffffffffffffffffffffffff1673ffffffffffffffffffffffffffffffffffffffff166370a08231336040518263ffffffff1660e01b81526004016115a19190613f3d565b60206040518083038186803b1580156115b957600080fd5b505afa1580156115cd573d6000803e3d6000fd5b505050506040513d601f19601f820116820180604052508101906115f191906139f1565b1015611632576040517f08c379a0000000000000000000000000000000000000000000000000000000008152600401611629906140d2565b60405180910390fd5b818160010160009054906101000a900473ffffffffffffffffffffffffffffffffffffffff1673ffffffffffffffffffffffffffffffffffffffff1663dd62ed3e33306040518363ffffffff1660e01b8152600401611692929190613f58565b60206040518083038186803b1580156116aa57600080fd5b505afa1580156116be573d6000803e3d6000fd5b505050506040513d601f19601f820116820180604052508101906116e291906139f1565b1015611723576040517f08c379a000000000000000000000000000000000000000000000000000000000815260040161171a906142b2565b60405180910390fd5b611753338260010160009054906101000a900473ffffffffffffffffffffffffffffffffffffffff168485612dfe565b506001600060026101000a81548160ff02191690831515021790555050565b60008061177d612620565b90508060040160009054906101000a900473ffffffffffffffffffffffffffffffffffffffff1691505090565b600060029054906101000a900460ff166117f9576040517f08c379a00000000000000000000000000000000000000000000000000000000081526004016117f090614372565b60405180910390fd5b60008060026101000a81548160ff02191690831515021790555060008290506000821161185b576040517f08c379a000000000000000000000000000000000000000000000000000000000815260040161185290614152565b60405180910390fd5b818173ffffffffffffffffffffffffffffffffffffffff166370a08231336040518263ffffffff1660e01b81526004016118959190613f3d565b60206040518083038186803b1580156118ad57600080fd5b505afa1580156118c1573d6000803e3d6000fd5b505050506040513d601f19601f820116820180604052508101906118e591906139f1565b1015611926576040517f08c379a000000000000000000000000000000000000000000000000000000000815260040161191d906140d2565b60405180910390fd5b818173ffffffffffffffffffffffffffffffffffffffff1663dd62ed3e33306040518363ffffffff1660e01b8152600401611962929190613f58565b60206040518083038186803b15801561197a57600080fd5b505afa15801561198e573d6000803e3d6000fd5b505050506040513d601f19601f820116820180604052508101906119b291906139f1565b10156119f3576040517f08c379a00000000000000000000000000000000000000000000000000000000081526004016119ea906142b2565b60405180910390fd5b60006119fd612620565b905060008160050160009054906101000a900473ffffffffffffffffffffffffffffffffffffffff1673ffffffffffffffffffffffffffffffffffffffff16636af133e3866040518263ffffffff1660e01b8152600401611a5e9190613f3d565b60206040518083038186803b158015611a7657600080fd5b505afa158015611a8a573d6000803e3d6000fd5b505050506040513d601f19601f82011682018060405250810190611aae91906138d5565b9050600073ffffffffffffffffffffffffffffffffffffffff168173ffffffffffffffffffffffffffffffffffffffff161415611b20576040517f08c379a0000000000000000000000000000000000000000000000000000000008152600401611b17906142f2565b60405180910390fd5b600081905060008173ffffffffffffffffffffffffffffffffffffffff16635a16f502876040518263ffffffff1660e01b8152600401611b6091906143ed565b60206040518083038186803b158015611b7857600080fd5b505afa158015611b8c573d6000803e3d6000fd5b505050506040513d601f19601f82011682018060405250810190611bb091906139f1565b9050611bbe33888884612dfe565b50505050506001600060026101000a81548160ff0219169083151502179055505050565b600080611bed6130e0565b905060008160010160008573ffffffffffffffffffffffffffffffffffffffff1673ffffffffffffffffffffffffffffffffffffffff16815260200190815260200160002060009054906101000a900463ffffffff16905060008163ffffffff1611611c5a576000611cc9565b8160000160008573ffffffffffffffffffffffffffffffffffffffff1673ffffffffffffffffffffffffffffffffffffffff1681526020019081526020016000206000600183611caa91906145d5565b63ffffffff1663ffffffff168152602001908152602001600020600101545b92505050919050565b611cda6137ea565b6000611ce4612620565b9050611d14838260010160009054906101000a900473ffffffffffffffffffffffffffffffffffffffff16610ebc565b915050919050565b6000611d2782611cd2565b600001519050919050565b6000611d3c612620565b9050600073ffffffffffffffffffffffffffffffffffffffff168160030160009054906101000a900473ffffffffffffffffffffffffffffffffffffffff1673ffffffffffffffffffffffffffffffffffffffff161480611dec57508060030160009054906101000a900473ffffffffffffffffffffffffffffffffffffffff1673ffffffffffffffffffffffffffffffffffffffff163373ffffffffffffffffffffffffffffffffffffffff16145b611e2b576040517f08c379a0000000000000000000000000000000000000000000000000000000008152600401611e22906141f2565b60405180910390fd5b6000611e35612620565b9050828160040160006101000a81548173ffffffffffffffffffffffffffffffffffffffff021916908373ffffffffffffffffffffffffffffffffffffffff160217905550505050565b600060029054906101000a900460ff16611ece576040517f08c379a0000000000000000000000000000000000000000000000000000000008152600401611ec590614372565b60405180910390fd5b60008060026101000a81548160ff02191690831515021790555060008511611f2b576040517f08c379a0000000000000000000000000000000000000000000000000000000008152600401611f22906141d2565b60405180910390fd5b6000611f35612620565b9050858160010160009054906101000a900473ffffffffffffffffffffffffffffffffffffffff1673ffffffffffffffffffffffffffffffffffffffff166370a08231336040518263ffffffff1660e01b8152600401611f959190613f3d565b60206040518083038186803b158015611fad57600080fd5b505afa158015611fc1573d6000803e3d6000fd5b505050506040513d601f19601f82011682018060405250810190611fe591906139f1565b1015612026576040517f08c379a000000000000000000000000000000000000000000000000000000000815260040161201d90614112565b60405180910390fd5b8060010160009054906101000a900473ffffffffffffffffffffffffffffffffffffffff1673ffffffffffffffffffffffffffffffffffffffff1663d505accf333089898989896040518863ffffffff1660e01b815260040161208f9796959493929190613fb8565b600060405180830381600087803b1580156120a957600080fd5b505af11580156120bd573d6000803e3d6000fd5b505050506120f1338260010160009054906101000a900473ffffffffffffffffffffffffffffffffffffffff168889612dfe565b506001600060026101000a81548160ff0219169083151502179055505050505050565b600060029054906101000a900460ff16612163576040517f08c379a000000000000000000000000000000000000000000000000000000000815260040161215a90614372565b60405180910390fd5b60008060026101000a81548160ff021916908315150217905550600081116121c0576040517f08c379a00000000000000000000000000000000000000000000000000000000081526004016121b790614312565b60405180910390fd5b60006121cc3384610ebc565b905060006121fd82600001516121ef84602001518661310d90919063ffffffff16565b61312390919063ffffffff16565b905061220b33858584612875565b50506001600060026101000a81548160ff0219169083151502179055505050565b6000438210612270576040517f08c379a0000000000000000000000000000000000000000000000000000000008152600401612267906141b2565b60405180910390fd5b600061227a6130e0565b905060008160010160008673ffffffffffffffffffffffffffffffffffffffff1673ffffffffffffffffffffffffffffffffffffffff16815260200190815260200160002060009054906101000a900463ffffffff16905060008163ffffffff1614156122ec5760009250505061261a565b838260000160008773ffffffffffffffffffffffffffffffffffffffff1673ffffffffffffffffffffffffffffffffffffffff168152602001908152602001600020600060018461233d91906145d5565b63ffffffff1663ffffffff16815260200190815260200160002060000160009054906101000a900463ffffffff1663ffffffff16116123ed578160000160008673ffffffffffffffffffffffffffffffffffffffff1673ffffffffffffffffffffffffffffffffffffffff16815260200190815260200160002060006001836123c691906145d5565b63ffffffff1663ffffffff168152602001908152602001600020600101549250505061261a565b838260000160008773ffffffffffffffffffffffffffffffffffffffff1673ffffffffffffffffffffffffffffffffffffffff16815260200190815260200160002060008063ffffffff16815260200190815260200160002060000160009054906101000a900463ffffffff1663ffffffff1611156124715760009250505061261a565b60008060018361248191906145d5565b90505b8163ffffffff168163ffffffff1611156125b1576000600283836124a891906145d5565b6124b29190614516565b826124bd91906145d5565b905060008560000160008a73ffffffffffffffffffffffffffffffffffffffff1673ffffffffffffffffffffffffffffffffffffffff16815260200190815260200160002060008363ffffffff1663ffffffff1681526020019081526020016000206040518060400160405290816000820160009054906101000a900463ffffffff1663ffffffff1663ffffffff168152602001600182015481525050905087816000015163ffffffff161415612580578060200151965050505050505061261a565b87816000015163ffffffff16101561259a578193506125aa565b6001826125a791906145d5565b92505b5050612484565b8360000160008873ffffffffffffffffffffffffffffffffffffffff1673ffffffffffffffffffffffffffffffffffffffff16815260200190815260200160002060008363ffffffff1663ffffffff168152602001908152602001600020600101549450505050505b92915050565b6000807feedc8c3fe1f2c3ab8dce1e429990e954667f9815b833f1da5923b0c280dd34cd90508091505090565b60006126576130e0565b905060008160010160008573ffffffffffffffffffffffffffffffffffffffff1673ffffffffffffffffffffffffffffffffffffffff16815260200190815260200160002060009054906101000a900463ffffffff1690506000808263ffffffff16116126c5576000612734565b8260000160008673ffffffffffffffffffffffffffffffffffffffff1673ffffffffffffffffffffffffffffffffffffffff168152602001908152602001600020600060018461271591906145d5565b63ffffffff1663ffffffff168152602001908152602001600020600101545b9050600061274b858361313990919063ffffffff16565b90506127598684848461314f565b505050505050565b600061276b6130e0565b905060008160010160008573ffffffffffffffffffffffffffffffffffffffff1673ffffffffffffffffffffffffffffffffffffffff16815260200190815260200160002060009054906101000a900463ffffffff1690506000808263ffffffff16116127d9576000612848565b8260000160008673ffffffffffffffffffffffffffffffffffffffff1673ffffffffffffffffffffffffffffffffffffffff168152602001908152602001600020600060018461282991906145d5565b63ffffffff1663ffffffff168152602001908152602001600020600101545b9050600061285f858361340290919063ffffffff16565b905061286d8684848461314f565b505050505050565b600061287f612dd1565b9050828160000160008773ffffffffffffffffffffffffffffffffffffffff1673ffffffffffffffffffffffffffffffffffffffff16815260200190815260200160002060008673ffffffffffffffffffffffffffffffffffffffff1673ffffffffffffffffffffffffffffffffffffffff168152602001908152602001600020600001541015612945576040517f08c379a000000000000000000000000000000000000000000000000000000000815260040161293c90614172565b60405180910390fd5b818160000160008773ffffffffffffffffffffffffffffffffffffffff1673ffffffffffffffffffffffffffffffffffffffff16815260200190815260200160002060008673ffffffffffffffffffffffffffffffffffffffff1673ffffffffffffffffffffffffffffffffffffffff168152602001908152602001600020600101541015612a09576040517f08c379a0000000000000000000000000000000000000000000000000000000008152600401612a0090614352565b60405180910390fd5b612a9d838260000160008873ffffffffffffffffffffffffffffffffffffffff1673ffffffffffffffffffffffffffffffffffffffff16815260200190815260200160002060008773ffffffffffffffffffffffffffffffffffffffff1673ffffffffffffffffffffffffffffffffffffffff1681526020019081526020016000206000015461340290919063ffffffff16565b8160000160008773ffffffffffffffffffffffffffffffffffffffff1673ffffffffffffffffffffffffffffffffffffffff16815260200190815260200160002060008673ffffffffffffffffffffffffffffffffffffffff1673ffffffffffffffffffffffffffffffffffffffff16815260200190815260200160002060000181905550612bb6828260000160008873ffffffffffffffffffffffffffffffffffffffff1673ffffffffffffffffffffffffffffffffffffffff16815260200190815260200160002060008773ffffffffffffffffffffffffffffffffffffffff1673ffffffffffffffffffffffffffffffffffffffff1681526020019081526020016000206001015461340290919063ffffffff16565b8160000160008773ffffffffffffffffffffffffffffffffffffffff1673ffffffffffffffffffffffffffffffffffffffff16815260200190815260200160002060008673ffffffffffffffffffffffffffffffffffffffff1673ffffffffffffffffffffffffffffffffffffffff16815260200190815260200160002060010181905550612c6685848673ffffffffffffffffffffffffffffffffffffffff166134189092919063ffffffff16565b828473ffffffffffffffffffffffffffffffffffffffff168673ffffffffffffffffffffffffffffffffffffffff167f91fb9d98b786c57d74c099ccd2beca1739e9f6a81fb49001ca465c4b7591bbe285604051612cc491906143ed565b60405180910390a4612cd68583612761565b5050505050565b600060019054906101000a900460ff1680612d03575060008054906101000a900460ff16155b612d42576040517f08c379a0000000000000000000000000000000000000000000000000000000008152600401612d3990614192565b60405180910390fd5b60008060019054906101000a900460ff161590508015612d92576001600060016101000a81548160ff02191690831515021790555060016000806101000a81548160ff0219169083151502179055505b6001600060026101000a81548160ff0219169083151502179055508015612dce5760008060016101000a81548160ff0219169083151502179055505b50565b6000807f7e8b17b07bec32d4181cbe0bc0ebb49f064985defb44e2b5781615189e4789e290508091505090565b612e2b8430848673ffffffffffffffffffffffffffffffffffffffff1661349e909392919063ffffffff16565b6000612e35612dd1565b9050612ecb838260000160008873ffffffffffffffffffffffffffffffffffffffff1673ffffffffffffffffffffffffffffffffffffffff16815260200190815260200160002060008773ffffffffffffffffffffffffffffffffffffffff1673ffffffffffffffffffffffffffffffffffffffff1681526020019081526020016000206000015461313990919063ffffffff16565b8160000160008773ffffffffffffffffffffffffffffffffffffffff1673ffffffffffffffffffffffffffffffffffffffff16815260200190815260200160002060008673ffffffffffffffffffffffffffffffffffffffff1673ffffffffffffffffffffffffffffffffffffffff16815260200190815260200160002060000181905550612fe4828260000160008873ffffffffffffffffffffffffffffffffffffffff1673ffffffffffffffffffffffffffffffffffffffff16815260200190815260200160002060008773ffffffffffffffffffffffffffffffffffffffff1673ffffffffffffffffffffffffffffffffffffffff1681526020019081526020016000206001015461313990919063ffffffff16565b8160000160008773ffffffffffffffffffffffffffffffffffffffff1673ffffffffffffffffffffffffffffffffffffffff16815260200190815260200160002060008673ffffffffffffffffffffffffffffffffffffffff1673ffffffffffffffffffffffffffffffffffffffff16815260200190815260200160002060010181905550828473ffffffffffffffffffffffffffffffffffffffff168673ffffffffffffffffffffffffffffffffffffffff167f6c86f3fd5118b3aa8bb4f389a617046de0a3d3d477de1a1673d227f802f616dc856040516130c791906143ed565b60405180910390a46130d9858361264d565b5050505050565b6000807f05121b62eff87a86d558d12269da9469bab58a7f680d19e08a27a018956bbe7290508091505090565b6000818361311b9190614547565b905092915050565b6000818361313191906144e5565b905092915050565b600081836131479190614455565b905092915050565b600061317343604051806060016040528060358152602001614f4e60359139613527565b9050600061317f6130e0565b905060008563ffffffff1611801561321f57508163ffffffff168160000160008873ffffffffffffffffffffffffffffffffffffffff1673ffffffffffffffffffffffffffffffffffffffff16815260200190815260200160002060006001886131e991906145d5565b63ffffffff1663ffffffff16815260200190815260200160002060000160009054906101000a900463ffffffff1663ffffffff16145b1561329b57828160000160008873ffffffffffffffffffffffffffffffffffffffff1673ffffffffffffffffffffffffffffffffffffffff168152602001908152602001600020600060018861327591906145d5565b63ffffffff1663ffffffff168152602001908152602001600020600101819055506133b5565b60405180604001604052808363ffffffff168152602001848152508160000160008873ffffffffffffffffffffffffffffffffffffffff1673ffffffffffffffffffffffffffffffffffffffff16815260200190815260200160002060008763ffffffff1663ffffffff16815260200190815260200160002060008201518160000160006101000a81548163ffffffff021916908363ffffffff1602179055506020820151816001015590505060018561335591906144ab565b8160010160008873ffffffffffffffffffffffffffffffffffffffff1673ffffffffffffffffffffffffffffffffffffffff16815260200190815260200160002060006101000a81548163ffffffff021916908363ffffffff1602179055505b82848773ffffffffffffffffffffffffffffffffffffffff167f53ed7954de66613e30dd29b46ab783aa594e6309d021d8854c76bb3325d03aa360405160405180910390a4505050505050565b6000818361341091906145a1565b905092915050565b6134998363a9059cbb60e01b8484604051602401613437929190614027565b604051602081830303815290604052907bffffffffffffffffffffffffffffffffffffffffffffffffffffffff19166020820180517bffffffffffffffffffffffffffffffffffffffffffffffffffffffff838183161783525050505061357d565b505050565b613521846323b872dd60e01b8585856040516024016134bf93929190613f81565b604051602081830303815290604052907bffffffffffffffffffffffffffffffffffffffffffffffffffffffff19166020820180517bffffffffffffffffffffffffffffffffffffffffffffffffffffffff838183161783525050505061357d565b50505050565b600064010000000083108290613573576040517f08c379a000000000000000000000000000000000000000000000000000000000815260040161356a9190614050565b60405180910390fd5b5082905092915050565b60006135df826040518060400160405280602081526020017f5361666545524332303a206c6f772d6c6576656c2063616c6c206661696c65648152508573ffffffffffffffffffffffffffffffffffffffff166136449092919063ffffffff16565b905060008151111561363f57808060200190518101906135ff9190613976565b61363e576040517f08c379a000000000000000000000000000000000000000000000000000000000815260040161363590614332565b60405180910390fd5b5b505050565b6060613653848460008561365c565b90509392505050565b6060824710156136a1576040517f08c379a000000000000000000000000000000000000000000000000000000000815260040161369890614132565b60405180910390fd5b6136aa85613770565b6136e9576040517f08c379a00000000000000000000000000000000000000000000000000000000081526004016136e090614272565b60405180910390fd5b6000808673ffffffffffffffffffffffffffffffffffffffff1685876040516137129190613f26565b60006040518083038185875af1925050503d806000811461374f576040519150601f19603f3d011682016040523d82523d6000602084013e613754565b606091505b5091509150613764828286613783565b92505050949350505050565b600080823b905060008111915050919050565b60608315613793578290506137e3565b6000835111156137a65782518084602001fd5b816040517f08c379a00000000000000000000000000000000000000000000000000000000081526004016137da9190614050565b60405180910390fd5b9392505050565b604051806040016040528060008152602001600081525090565b60008135905061381381614ec3565b92915050565b60008151905061382881614ec3565b92915050565b60008151905061383d81614eda565b92915050565b60008135905061385281614ef1565b92915050565b60008135905061386781614f08565b92915050565b60008135905061387c81614f1f565b92915050565b60008151905061389181614f1f565b92915050565b6000813590506138a681614f36565b92915050565b6000602082840312156138be57600080fd5b60006138cc84828501613804565b91505092915050565b6000602082840312156138e757600080fd5b60006138f584828501613819565b91505092915050565b6000806040838503121561391157600080fd5b600061391f85828601613804565b925050602061393085828601613804565b9150509250929050565b6000806040838503121561394d57600080fd5b600061395b85828601613804565b925050602061396c8582860161386d565b9150509250929050565b60006020828403121561398857600080fd5b60006139968482850161382e565b91505092915050565b6000602082840312156139b157600080fd5b60006139bf84828501613858565b91505092915050565b6000602082840312156139da57600080fd5b60006139e88482850161386d565b91505092915050565b600060208284031215613a0357600080fd5b6000613a1184828501613882565b91505092915050565b600080600080600060a08688031215613a3257600080fd5b6000613a408882890161386d565b9550506020613a518882890161386d565b9450506040613a6288828901613897565b9350506060613a7388828901613843565b9250506080613a8488828901613843565b9150509295509295909350565b613a9a81614609565b82525050565b613aa981614627565b82525050565b6000613aba82614423565b613ac48185614439565b9350613ad481856020860161468a565b80840191505092915050565b6000613aeb8261442e565b613af58185614444565b9350613b0581856020860161468a565b613b0e8161471b565b840191505092915050565b6000613b26603983614444565b9150613b318261472c565b604082019050919050565b6000613b49602d83614444565b9150613b548261477b565b604082019050919050565b6000613b6c602c83614444565b9150613b77826147ca565b604082019050919050565b6000613b8f601f83614444565b9150613b9a82614819565b602082019050919050565b6000613bb2602c83614444565b9150613bbd82614842565b604082019050919050565b6000613bd5602983614444565b9150613be082614891565b604082019050919050565b6000613bf8602683614444565b9150613c03826148e0565b604082019050919050565b6000613c1b601c83614444565b9150613c268261492f565b602082019050919050565b6000613c3e602a83614444565b9150613c4982614958565b604082019050919050565b6000613c61602e83614444565b9150613c6c826149a7565b604082019050919050565b6000613c84602a83614444565b9150613c8f826149f6565b604082019050919050565b6000613ca7602683614444565b9150613cb282614a45565b604082019050919050565b6000613cca601d83614444565b9150613cd582614a94565b602082019050919050565b6000613ced602483614444565b9150613cf882614abd565b604082019050919050565b6000613d10603283614444565b9150613d1b82614b0c565b604082019050919050565b6000613d33602c83614444565b9150613d3e82614b5b565b604082019050919050565b6000613d56601d83614444565b9150613d6182614baa565b602082019050919050565b6000613d79603283614444565b9150613d8482614bd3565b604082019050919050565b6000613d9c603083614444565b9150613da782614c22565b604082019050919050565b6000613dbf602a83614444565b9150613dca82614c71565b604082019050919050565b6000613de2602183614444565b9150613ded82614cc0565b604082019050919050565b6000613e05602283614444565b9150613e1082614d0f565b604082019050919050565b6000613e28602a83614444565b9150613e3382614d5e565b604082019050919050565b6000613e4b602983614444565b9150613e5682614dad565b604082019050919050565b6000613e6e601f83614444565b9150613e7982614dfc565b602082019050919050565b6000613e91602f83614444565b9150613e9c82614e25565b604082019050919050565b6000613eb4602183614444565b9150613ebf82614e74565b604082019050919050565b604082016000820151613ee06000850182613ef9565b506020820151613ef36020850182613ef9565b50505050565b613f0281614663565b82525050565b613f1181614663565b82525050565b613f208161467d565b82525050565b6000613f328284613aaf565b915081905092915050565b6000602082019050613f526000830184613a91565b92915050565b6000604082019050613f6d6000830185613a91565b613f7a6020830184613a91565b9392505050565b6000606082019050613f966000830186613a91565b613fa36020830185613a91565b613fb06040830184613f08565b949350505050565b600060e082019050613fcd600083018a613a91565b613fda6020830189613a91565b613fe76040830188613f08565b613ff46060830187613f08565b6140016080830186613f17565b61400e60a0830185613aa0565b61401b60c0830184613aa0565b98975050505050505050565b600060408201905061403c6000830185613a91565b6140496020830184613f08565b9392505050565b6000602082019050818103600083015261406a8184613ae0565b905092915050565b6000602082019050818103600083015261408b81613b19565b9050919050565b600060208201905081810360008301526140ab81613b3c565b9050919050565b600060208201905081810360008301526140cb81613b5f565b9050919050565b600060208201905081810360008301526140eb81613b82565b9050919050565b6000602082019050818103600083015261410b81613ba5565b9050919050565b6000602082019050818103600083015261412b81613bc8565b9050919050565b6000602082019050818103600083015261414b81613beb565b9050919050565b6000602082019050818103600083015261416b81613c0e565b9050919050565b6000602082019050818103600083015261418b81613c31565b9050919050565b600060208201905081810360008301526141ab81613c54565b9050919050565b600060208201905081810360008301526141cb81613c77565b9050919050565b600060208201905081810360008301526141eb81613c9a565b9050919050565b6000602082019050818103600083015261420b81613cbd565b9050919050565b6000602082019050818103600083015261422b81613ce0565b9050919050565b6000602082019050818103600083015261424b81613d03565b9050919050565b6000602082019050818103600083015261426b81613d26565b9050919050565b6000602082019050818103600083015261428b81613d49565b9050919050565b600060208201905081810360008301526142ab81613d6c565b9050919050565b600060208201905081810360008301526142cb81613d8f565b9050919050565b600060208201905081810360008301526142eb81613db2565b9050919050565b6000602082019050818103600083015261430b81613dd5565b9050919050565b6000602082019050818103600083015261432b81613df8565b9050919050565b6000602082019050818103600083015261434b81613e1b565b9050919050565b6000602082019050818103600083015261436b81613e3e565b9050919050565b6000602082019050818103600083015261438b81613e61565b9050919050565b600060208201905081810360008301526143ab81613e84565b9050919050565b600060208201905081810360008301526143cb81613ea7565b9050919050565b60006040820190506143e76000830184613eca565b92915050565b60006020820190506144026000830184613f08565b92915050565b600060208201905061441d6000830184613f17565b92915050565b600081519050919050565b600081519050919050565b600081905092915050565b600082825260208201905092915050565b600061446082614663565b915061446b83614663565b9250827fffffffffffffffffffffffffffffffffffffffffffffffffffffffffffffffff038211156144a05761449f6146bd565b5b828201905092915050565b60006144b68261466d565b91506144c18361466d565b92508263ffffffff038211156144da576144d96146bd565b5b828201905092915050565b60006144f082614663565b91506144fb83614663565b92508261450b5761450a6146ec565b5b828204905092915050565b60006145218261466d565b915061452c8361466d565b92508261453c5761453b6146ec565b5b828204905092915050565b600061455282614663565b915061455d83614663565b9250817fffffffffffffffffffffffffffffffffffffffffffffffffffffffffffffffff0483118215151615614596576145956146bd565b5b828202905092915050565b60006145ac82614663565b91506145b783614663565b9250828210156145ca576145c96146bd565b5b828203905092915050565b60006145e08261466d565b91506145eb8361466d565b9250828210156145fe576145fd6146bd565b5b828203905092915050565b600061461482614643565b9050919050565b60008115159050919050565b6000819050919050565b600061463c82614609565b9050919050565b600073ffffffffffffffffffffffffffffffffffffffff82169050919050565b6000819050919050565b600063ffffffff82169050919050565b600060ff82169050919050565b60005b838110156146a857808201518184015260208101905061468d565b838111156146b7576000848401525b50505050565b7f4e487b7100000000000000000000000000000000000000000000000000000000600052601160045260246000fd5b7f4e487b7100000000000000000000000000000000000000000000000000000000600052601260045260246000fd5b6000601f19601f8301169050919050565b7f507269736d3a3a6265636f6d653a206f6e6c792070726f78792061646d696e2060008201527f63616e206368616e676520696d706c656d656e746174696f6e00000000000000602082015250565b7f43726f776e3a3a72656d6f76655650666f7243543a206f6e6c79204d6f6e617360008201527f7465727920636f6e747261637400000000000000000000000000000000000000602082015250565b7f43726f776e3a3a6164645650666f724c543a206f6e6c79206c6f636b4d616e6160008201527f67657220636f6e74726163740000000000000000000000000000000000000000602082015250565b7f43726f776e3a3a7374616b653a206e6f7420656e6f75676820746f6b656e7300600082015250565b7f43726f776e3a3a6164645650666f724c543a2063616e6e6f742061646420302060008201527f766f74696e6720706f7765720000000000000000000000000000000000000000602082015250565b7f43726f776e3a3a7374616b65576974685065726d69743a206e6f7420656e6f7560008201527f676820746f6b656e730000000000000000000000000000000000000000000000602082015250565b7f416464726573733a20696e73756666696369656e742062616c616e636520666f60008201527f722063616c6c0000000000000000000000000000000000000000000000000000602082015250565b7f43726f776e3a3a7374616b653a2063616e6e6f74207374616b65203000000000600082015250565b7f43726f776e3a3a5f77697468647261773a206e6f7420656e6f75676820746f6b60008201527f656e73207374616b656400000000000000000000000000000000000000000000602082015250565b7f496e697469616c697a61626c653a20636f6e747261637420697320616c72656160008201527f647920696e697469616c697a6564000000000000000000000000000000000000602082015250565b7f43726f776e3a3a766f74696e67506f7765724f6641743a206e6f74207965742060008201527f64657465726d696e656400000000000000000000000000000000000000000000602082015250565b7f43726f776e3a3a7374616b65576974685065726d69743a2063616e6e6f74207360008201527f74616b6520300000000000000000000000000000000000000000000000000000602082015250565b7f43726f776e3a3a6f6e6c794b696e673a206e6f7420746865206b696e67000000600082015250565b7f507269736d3a3a6265636f6d653a206368616e6765206e6f7420617574686f7260008201527f697a656400000000000000000000000000000000000000000000000000000000602082015250565b7f43726f776e3a3a72656d6f76655650666f7243543a2063616e6e6f742072656d60008201527f6f7665203020766f74696e6720706f7765720000000000000000000000000000602082015250565b7f43726f776e3a3a6164645650666f7256543a2063616e6e6f742061646420302060008201527f766f74696e6720706f7765720000000000000000000000000000000000000000602082015250565b7f416464726573733a2063616c6c20746f206e6f6e2d636f6e7472616374000000600082015250565b7f43726f776e3a3a72656d6f76655650666f7255543a2063616e6e6f742072656d60008201527f6f7665203020766f74696e6720706f7765720000000000000000000000000000602082015250565b7f43726f776e3a3a7374616b653a206d75737420617070726f766520746f6b656e60008201527f73206265666f7265207374616b696e6700000000000000000000000000000000602082015250565b7f43726f776e3a3a6164645650666f7256543a206f6e6c79204d6f6e617374657260008201527f7920636f6e747261637400000000000000000000000000000000000000000000602082015250565b7f43726f776e3a3a7374616b653a20746f6b656e206e6f7420737570706f72746560008201527f6400000000000000000000000000000000000000000000000000000000000000602082015250565b7f43726f776e3a3a77697468647261773a2063616e6e6f7420776974686472617760008201527f2030000000000000000000000000000000000000000000000000000000000000602082015250565b7f5361666545524332303a204552433230206f7065726174696f6e20646964206e60008201527f6f74207375636365656400000000000000000000000000000000000000000000602082015250565b7f43726f776e3a3a5f77697468647261773a206e6f7420656e6f75676820766f7460008201527f696e6720706f7765720000000000000000000000000000000000000000000000602082015250565b7f5265656e7472616e637947756172643a207265656e7472616e742063616c6c00600082015250565b7f43726f776e3a3a72656d6f76655650666f7255543a206f6e6c79206c6f636b4d60008201527f616e6167657220636f6e74726163740000000000000000000000000000000000602082015250565b7f43726f776e3a3a737563636565643a206e6f742076616c69642061646472657360008201527f7300000000000000000000000000000000000000000000000000000000000000602082015250565b614ecc81614609565b8114614ed757600080fd5b50565b614ee38161461b565b8114614eee57600080fd5b50565b614efa81614627565b8114614f0557600080fd5b50565b614f1181614631565b8114614f1c57600080fd5b50565b614f2881614663565b8114614f3357600080fd5b50565b614f3f8161467d565b8114614f4a57600080fd5b5056fe43726f776e3a3a5f7772697465436865636b706f696e743a20626c6f636b206e756d62657220657863656564732033322062697473a2646970667358221220bcab3d752c1ed8a8663fb697d5413783bea4a84fda1f7e7f93c43dc2b808953364736f6c63430008020033",
  "devdoc": {
    "details": "Implementation contract for voting power prism proxy. Calls should not be made directly to this contract, instead make calls to the VotingPowerPrism proxy contract. The exception to this is the `become` function specified in PrismProxyImplementation. This function is called once and is used by this contract to accept its role as the implementation for the prism proxy",
    "kind": "dev",
    "methods": {
      "addVotingPowerForLockedTokens(address,uint256)": {
        "params": {
          "account": "The recipient of voting power",
          "amount": "The amount of voting power to add"
        }
      },
      "addVotingPowerForVestingTokens(address,uint256)": {
        "params": {
          "account": "The recipient of voting power",
          "amount": "The amount of voting power to add"
        }
      },
      "become(address)": {
        "params": {
          "prism": "Prism Proxy contract"
        }
      },
      "getAmountStaked(address,address)": {
        "params": {
          "stakedToken": "The staked token",
          "staker": "The user with staked tokens"
        },
        "returns": {
          "_0": "total amount staked"
        }
      },
      "getGovernanceTokenAmountStaked(address)": {
        "params": {
          "staker": "The user with staked KING"
        },
        "returns": {
          "_0": "total KING amount staked"
        }
      },
      "getGovernanceTokenStake(address)": {
        "params": {
          "staker": "The user with staked KING"
        },
        "returns": {
          "_0": "total KING staked"
        }
      },
      "getStake(address,address)": {
        "params": {
          "stakedToken": "The staked token",
          "staker": "The user with staked tokens"
        },
        "returns": {
          "_0": "total staked"
        }
      },
      "govToken()": {
        "returns": {
          "_0": "Address of KING token"
        }
      },
      "initialize(address,address)": {
        "details": "Should be called via VotingPowerPrism before calling anything else",
        "params": {
          "_govToken": "address of KING token",
          "_vestingContract": "address of Vesting contract"
        }
      },
      "lockManager()": {
        "returns": {
          "_0": "Address of lockManager"
        }
      },
      "owner()": {
        "returns": {
          "_0": "Address of owner"
        }
      },
      "removeVotingPowerForClaimedTokens(address,uint256)": {
        "params": {
          "account": "The account with voting power",
          "amount": "The amount of voting power to remove"
        }
      },
      "removeVotingPowerForUnlockedTokens(address,uint256)": {
        "params": {
          "account": "The account with voting power",
          "amount": "The amount of voting power to remove"
        }
      },
      "setLockManager(address)": {
        "params": {
          "newLockManager": "Address of lockManager"
        }
      },
      "setTokenRegistry(address)": {
        "params": {
          "registry": "Address of token registry"
        }
      },
      "stake(address,uint256)": {
        "params": {
          "amount": "The amount to stake",
          "token": "The token to stake"
        }
      },
      "stake(uint256)": {
        "params": {
          "amount": "The amount to stake"
        }
      },
      "stakeWithPermit(uint256,uint256,uint8,bytes32,bytes32)": {
        "params": {
          "amount": "The amount to stake",
          "deadline": "The time at which to expire the signature",
          "r": "Half of the ECDSA signature pair",
          "s": "Half of the ECDSA signature pair",
          "v": "The recovery byte of the signature"
        }
      },
      "succeed(address)": {
        "params": {
          "newKing": "New owner address"
        }
      },
      "tokenRegistry()": {
        "returns": {
          "_0": "Address of token registry"
        }
      },
      "vestingContract()": {
        "returns": {
          "_0": "Address of vesting contract"
        }
      },
      "votingDecimals()": {
        "returns": {
          "_0": "decimals"
        }
      },
      "votingPowerOf(address)": {
        "params": {
          "account": "The address to get votes balance"
        },
        "returns": {
          "_0": "The number of current votes for `account`"
        }
      },
      "votingPowerOfAt(address,uint256)": {
        "details": "Block number must be a finalized block or else this function will revert to prevent misinformation.",
        "params": {
          "account": "The address of the account to check",
          "blockNumber": "The block number to get the vote balance at"
        },
        "returns": {
          "_0": "The number of votes the account had as of the given block"
        }
      },
      "withdraw(address,uint256)": {
        "params": {
          "amount": "The amount to withdraw",
          "token": "The token to withdraw"
        }
      },
      "withdraw(uint256)": {
        "params": {
          "amount": "The amount to withdraw"
        }
      }
    },
    "title": "CrownCourt (prev. VotingPower)",
    "version": 1
  },
  "userdoc": {
    "events": {
      "RoyalSuccession(address,address)": {
        "notice": "Event emitted when the owner of the voting power contract is updated"
      },
      "Staked(address,address,uint256,uint256)": {
        "notice": "An event that's emitted when a user's staked balance increases"
      },
      "VotingPowerChanged(address,uint256,uint256)": {
        "notice": "An event that's emitted when an account's vote balance changes"
      },
      "Withdrawn(address,address,uint256,uint256)": {
        "notice": "An event that's emitted when a user's staked balance decreases"
      }
    },
    "kind": "user",
    "methods": {
      "addVotingPowerForLockedTokens(address,uint256)": {
        "notice": "Count locked tokens toward voting power for `account`"
      },
      "addVotingPowerForVestingTokens(address,uint256)": {
        "notice": "Count vesting KING tokens toward voting power for `account`"
      },
      "become(address)": {
        "notice": "Accept invitation to be implementation contract for proxy"
      },
      "getAmountStaked(address,address)": {
        "notice": "Get total amount of tokens staked in contract by `staker`"
      },
      "getGovernanceTokenAmountStaked(address)": {
        "notice": "Get total amount of KING tokens staked in contract by `staker`"
      },
      "getGovernanceTokenStake(address)": {
        "notice": "Get staked amount and voting power from KING tokens staked in contract by `staker`"
      },
      "getStake(address,address)": {
        "notice": "Get total staked amount and voting power from `stakedToken` staked in contract by `staker`"
      },
      "govToken()": {
        "notice": "Address of KING token"
      },
      "initialize(address,address)": {
        "notice": "Initialize VotingPower contract"
      },
      "lockManager()": {
        "notice": "Address of lockManager"
      },
      "owner()": {
        "notice": "Address of owner"
      },
      "removeVotingPowerForClaimedTokens(address,uint256)": {
        "notice": "Remove claimed vesting KING tokens from voting power for `account`"
      },
      "removeVotingPowerForUnlockedTokens(address,uint256)": {
        "notice": "Remove unlocked tokens from voting power for `account`"
      },
      "setLockManager(address)": {
        "notice": "Sets lockManager address"
      },
      "setTokenRegistry(address)": {
        "notice": "Sets token registry address"
      },
      "stake(address,uint256)": {
        "notice": "Stake LP tokens to unlock voting power for `msg.sender`"
      },
      "stake(uint256)": {
        "notice": "Stake KING tokens to unlock voting power for `msg.sender`"
      },
      "stakeWithPermit(uint256,uint256,uint8,bytes32,bytes32)": {
        "notice": "Stake KING tokens using offchain approvals to unlock voting power"
      },
      "succeed(address)": {
        "notice": "Change owner of vesting contract"
      },
      "tokenRegistry()": {
        "notice": "Address of token registry"
      },
      "vestingContract()": {
        "notice": "Address of vesting contract"
      },
      "votingDecimals()": {
        "notice": "Decimals used for voting power"
      },
      "votingPowerOf(address)": {
        "notice": "Gets the current votes balance for `account`"
      },
      "votingPowerOfAt(address,uint256)": {
        "notice": "Determine the prior number of votes for an account as of a block number"
      },
      "withdraw(address,uint256)": {
        "notice": "Withdraw staked LP tokens, removing voting power for `msg.sender`"
      },
      "withdraw(uint256)": {
        "notice": "Withdraw staked KING tokens, removing voting power for `msg.sender`"
      }
    },
    "version": 1
  },
  "storageLayout": {
    "storage": [
      {
        "astId": 439,
        "contract": "contracts/governance/Crown.sol:Crown",
        "label": "_initialized",
        "offset": 0,
        "slot": "0",
        "type": "t_bool"
      },
      {
        "astId": 442,
        "contract": "contracts/governance/Crown.sol:Crown",
        "label": "_initializing",
        "offset": 1,
        "slot": "0",
        "type": "t_bool"
      },
      {
        "astId": 14793,
        "contract": "contracts/governance/Crown.sol:Crown",
        "label": "_notEntered",
        "offset": 2,
        "slot": "0",
        "type": "t_bool"
      },
      {
        "astId": 14834,
        "contract": "contracts/governance/Crown.sol:Crown",
        "label": "__gap",
        "offset": 0,
        "slot": "1",
        "type": "t_array(t_uint256)49_storage"
      }
    ],
    "types": {
      "t_array(t_uint256)49_storage": {
        "base": "t_uint256",
        "encoding": "inplace",
        "label": "uint256[49]",
        "numberOfBytes": "1568"
      },
      "t_bool": {
        "encoding": "inplace",
        "label": "bool",
        "numberOfBytes": "1"
      },
      "t_uint256": {
        "encoding": "inplace",
        "label": "uint256",
        "numberOfBytes": "32"
      }
    }
  }
}