{
  "address": "0x82e93ba8449F809FB20f9035fd3b1Cf3051a6c9B",
  "abi": [
    {
      "inputs": [
        {
          "internalType": "uint256",
          "name": "amount",
          "type": "uint256"
        }
      ],
      "name": "toVotingPower",
      "outputs": [
        {
          "internalType": "uint256",
          "name": "",
          "type": "uint256"
        }
      ],
      "stateMutability": "pure",
      "type": "function"
    }
  ],
  "transactionHash": "0x813397c6ae2845550222d58205f0be576acb06449393a37505c630ce997e5910",
  "args": [],
  "solcInputHash": "e885469200b403bc2af39246669116fe",
  "bytecode": "0x608060405234801561001057600080fd5b50610114806100206000396000f3fe6080604052348015600f57600080fd5b506004361060285760003560e01c80635a16f50214602d575b600080fd5b60436004803603810190603f91906074565b6057565b604051604e919060a7565b60405180910390f35b6000819050919050565b600081359050606e8160ca565b92915050565b600060208284031215608557600080fd5b60006091848285016061565b91505092915050565b60a18160c0565b82525050565b600060208201905060ba6000830184609a565b92915050565b6000819050919050565b60d18160c0565b811460db57600080fd5b5056fea2646970667358221220a470a1b7ec6e850a357b585a103f7f4abb7528d79033c1e9763e6167ca3b6c0d64736f6c63430008020033",
  "devdoc": {
    "details": "Convert Kingmaker Crown governance token to its voting power equivalent to aid in gov calculations",
    "kind": "dev",
    "methods": {
      "toVotingPower(uint256)": {
        "details": "Always converts 1-1",
        "params": {
          "amount": "token amount"
        },
        "returns": {
          "_0": "voting power amount"
        }
      }
    },
    "title": "KingmakerFormula",
    "version": 1
  },
  "userdoc": {
    "kind": "user",
    "methods": {
      "toVotingPower(uint256)": {
        "notice": "Convert KING amount to voting power"
      }
    },
    "version": 1
  },
  "storageLayout": {
    "storage": [],
    "types": null
  }
}