{
  "address": "0xAc8782195fF6Aea8684b32e838E5b196e28c61Af",
  "abi": [
    {
      "inputs": [
        {
          "internalType": "address",
          "name": "_token",
          "type": "address"
        },
        {
          "internalType": "address",
          "name": "_king",
          "type": "address"
        }
      ],
      "stateMutability": "nonpayable",
      "type": "constructor"
    },
    {
      "anonymous": false,
      "inputs": [
        {
          "indexed": true,
          "internalType": "uint256",
          "name": "amount",
          "type": "uint256"
        },
        {
          "indexed": true,
          "internalType": "address",
          "name": "source",
          "type": "address"
        },
        {
          "indexed": false,
          "internalType": "uint256",
          "name": "oldSupply",
          "type": "uint256"
        },
        {
          "indexed": false,
          "internalType": "uint256",
          "name": "newSupply",
          "type": "uint256"
        }
      ],
      "name": "BurnAccepted",
      "type": "event"
    },
    {
      "anonymous": false,
      "inputs": [
        {
          "indexed": true,
          "internalType": "uint256",
          "name": "amount",
          "type": "uint256"
        },
        {
          "indexed": true,
          "internalType": "address",
          "name": "source",
          "type": "address"
        }
      ],
      "name": "BurnCanceled",
      "type": "event"
    },
    {
      "anonymous": false,
      "inputs": [
        {
          "indexed": true,
          "internalType": "uint256",
          "name": "amount",
          "type": "uint256"
        },
        {
          "indexed": true,
          "internalType": "address",
          "name": "source",
          "type": "address"
        },
        {
          "indexed": false,
          "internalType": "uint256",
          "name": "oldSupply",
          "type": "uint256"
        },
        {
          "indexed": false,
          "internalType": "uint256",
          "name": "newSupply",
          "type": "uint256"
        },
        {
          "indexed": false,
          "internalType": "uint256",
          "name": "eta",
          "type": "uint256"
        }
      ],
      "name": "BurnProposed",
      "type": "event"
    },
    {
      "anonymous": false,
      "inputs": [
        {
          "indexed": true,
          "internalType": "address",
          "name": "oldKing",
          "type": "address"
        },
        {
          "indexed": true,
          "internalType": "address",
          "name": "newKing",
          "type": "address"
        }
      ],
      "name": "KingAccepted",
      "type": "event"
    },
    {
      "anonymous": false,
      "inputs": [
        {
          "indexed": true,
          "internalType": "address",
          "name": "proposedKing",
          "type": "address"
        }
      ],
      "name": "KingCanceled",
      "type": "event"
    },
    {
      "anonymous": false,
      "inputs": [
        {
          "indexed": true,
          "internalType": "address",
          "name": "oldKing",
          "type": "address"
        },
        {
          "indexed": true,
          "internalType": "address",
          "name": "newKing",
          "type": "address"
        },
        {
          "indexed": false,
          "internalType": "uint256",
          "name": "eta",
          "type": "uint256"
        }
      ],
      "name": "KingProposed",
      "type": "event"
    },
    {
      "anonymous": false,
      "inputs": [
        {
          "indexed": true,
          "internalType": "address",
          "name": "oldMiners",
          "type": "address"
        },
        {
          "indexed": true,
          "internalType": "address",
          "name": "newMiners",
          "type": "address"
        }
      ],
      "name": "MinersAccepted",
      "type": "event"
    },
    {
      "anonymous": false,
      "inputs": [
        {
          "indexed": true,
          "internalType": "address",
          "name": "proposedMiners",
          "type": "address"
        }
      ],
      "name": "MinersCanceled",
      "type": "event"
    },
    {
      "anonymous": false,
      "inputs": [
        {
          "indexed": true,
          "internalType": "address",
          "name": "oldMiners",
          "type": "address"
        },
        {
          "indexed": true,
          "internalType": "address",
          "name": "newMiners",
          "type": "address"
        },
        {
          "indexed": false,
          "internalType": "uint256",
          "name": "eta",
          "type": "uint256"
        }
      ],
      "name": "MinersProposed",
      "type": "event"
    },
    {
      "anonymous": false,
      "inputs": [
        {
          "indexed": true,
          "internalType": "uint256",
          "name": "amount",
          "type": "uint256"
        },
        {
          "indexed": true,
          "internalType": "address",
          "name": "recipient",
          "type": "address"
        },
        {
          "indexed": false,
          "internalType": "uint256",
          "name": "oldSupply",
          "type": "uint256"
        },
        {
          "indexed": false,
          "internalType": "uint256",
          "name": "newSupply",
          "type": "uint256"
        }
      ],
      "name": "MintAccepted",
      "type": "event"
    },
    {
      "anonymous": false,
      "inputs": [
        {
          "indexed": true,
          "internalType": "uint256",
          "name": "amount",
          "type": "uint256"
        },
        {
          "indexed": true,
          "internalType": "address",
          "name": "recipient",
          "type": "address"
        }
      ],
      "name": "MintCanceled",
      "type": "event"
    },
    {
      "anonymous": false,
      "inputs": [
        {
          "indexed": true,
          "internalType": "uint32",
          "name": "oldCap",
          "type": "uint32"
        },
        {
          "indexed": true,
          "internalType": "uint32",
          "name": "newCap",
          "type": "uint32"
        }
      ],
      "name": "MintCapAccepted",
      "type": "event"
    },
    {
      "anonymous": false,
      "inputs": [
        {
          "indexed": true,
          "internalType": "uint32",
          "name": "proposedCap",
          "type": "uint32"
        }
      ],
      "name": "MintCapCanceled",
      "type": "event"
    },
    {
      "anonymous": false,
      "inputs": [
        {
          "indexed": true,
          "internalType": "uint32",
          "name": "oldCap",
          "type": "uint32"
        },
        {
          "indexed": true,
          "internalType": "uint32",
          "name": "newCap",
          "type": "uint32"
        },
        {
          "indexed": false,
          "internalType": "uint256",
          "name": "eta",
          "type": "uint256"
        }
      ],
      "name": "MintCapProposed",
      "type": "event"
    },
    {
      "anonymous": false,
      "inputs": [
        {
          "indexed": true,
          "internalType": "uint256",
          "name": "amount",
          "type": "uint256"
        },
        {
          "indexed": true,
          "internalType": "address",
          "name": "recipient",
          "type": "address"
        },
        {
          "indexed": false,
          "internalType": "uint256",
          "name": "oldSupply",
          "type": "uint256"
        },
        {
          "indexed": false,
          "internalType": "uint256",
          "name": "newSupply",
          "type": "uint256"
        },
        {
          "indexed": false,
          "internalType": "uint256",
          "name": "eta",
          "type": "uint256"
        }
      ],
      "name": "MintProposed",
      "type": "event"
    },
    {
      "anonymous": false,
      "inputs": [
        {
          "indexed": true,
          "internalType": "uint32",
          "name": "oldProposalLength",
          "type": "uint32"
        },
        {
          "indexed": true,
          "internalType": "uint32",
          "name": "newProposalLength",
          "type": "uint32"
        }
      ],
      "name": "ProposalLengthAccepted",
      "type": "event"
    },
    {
      "anonymous": false,
      "inputs": [
        {
          "indexed": true,
          "internalType": "uint32",
          "name": "proposedProposalLength",
          "type": "uint32"
        }
      ],
      "name": "ProposalLengthCanceled",
      "type": "event"
    },
    {
      "anonymous": false,
      "inputs": [
        {
          "indexed": true,
          "internalType": "uint32",
          "name": "oldProposalLength",
          "type": "uint32"
        },
        {
          "indexed": true,
          "internalType": "uint32",
          "name": "newProposalLength",
          "type": "uint32"
        },
        {
          "indexed": false,
          "internalType": "uint256",
          "name": "eta",
          "type": "uint256"
        }
      ],
      "name": "ProposalLengthProposed",
      "type": "event"
    },
    {
      "anonymous": false,
      "inputs": [
        {
          "indexed": true,
          "internalType": "uint32",
          "name": "oldWaitingPeriod",
          "type": "uint32"
        },
        {
          "indexed": true,
          "internalType": "uint32",
          "name": "newWaitingPeriod",
          "type": "uint32"
        }
      ],
      "name": "WaitingPeriodAccepted",
      "type": "event"
    },
    {
      "anonymous": false,
      "inputs": [
        {
          "indexed": true,
          "internalType": "uint32",
          "name": "proposedWaitingPeriod",
          "type": "uint32"
        }
      ],
      "name": "WaitingPeriodCanceled",
      "type": "event"
    },
    {
      "anonymous": false,
      "inputs": [
        {
          "indexed": true,
          "internalType": "uint32",
          "name": "oldWaitingPeriod",
          "type": "uint32"
        },
        {
          "indexed": true,
          "internalType": "uint32",
          "name": "newWaitingPeriod",
          "type": "uint32"
        },
        {
          "indexed": false,
          "internalType": "uint256",
          "name": "eta",
          "type": "uint256"
        }
      ],
      "name": "WaitingPeriodProposed",
      "type": "event"
    },
    {
      "inputs": [],
      "name": "acceptBurn",
      "outputs": [],
      "stateMutability": "nonpayable",
      "type": "function"
    },
    {
      "inputs": [],
      "name": "acceptKing",
      "outputs": [],
      "stateMutability": "nonpayable",
      "type": "function"
    },
    {
      "inputs": [],
      "name": "acceptMiners",
      "outputs": [],
      "stateMutability": "nonpayable",
      "type": "function"
    },
    {
      "inputs": [],
      "name": "acceptMint",
      "outputs": [],
      "stateMutability": "nonpayable",
      "type": "function"
    },
    {
      "inputs": [],
      "name": "acceptMintCap",
      "outputs": [],
      "stateMutability": "nonpayable",
      "type": "function"
    },
    {
      "inputs": [],
      "name": "acceptProposalLength",
      "outputs": [],
      "stateMutability": "nonpayable",
      "type": "function"
    },
    {
      "inputs": [],
      "name": "acceptSupplyChangeWaitingPeriod",
      "outputs": [],
      "stateMutability": "nonpayable",
      "type": "function"
    },
    {
      "inputs": [],
      "name": "cancelBurn",
      "outputs": [],
      "stateMutability": "nonpayable",
      "type": "function"
    },
    {
      "inputs": [],
      "name": "cancelKing",
      "outputs": [],
      "stateMutability": "nonpayable",
      "type": "function"
    },
    {
      "inputs": [],
      "name": "cancelMiners",
      "outputs": [],
      "stateMutability": "nonpayable",
      "type": "function"
    },
    {
      "inputs": [],
      "name": "cancelMint",
      "outputs": [],
      "stateMutability": "nonpayable",
      "type": "function"
    },
    {
      "inputs": [],
      "name": "cancelMintCap",
      "outputs": [],
      "stateMutability": "nonpayable",
      "type": "function"
    },
    {
      "inputs": [],
      "name": "cancelProposalLength",
      "outputs": [],
      "stateMutability": "nonpayable",
      "type": "function"
    },
    {
      "inputs": [],
      "name": "cancelWaitingPeriod",
      "outputs": [],
      "stateMutability": "nonpayable",
      "type": "function"
    },
    {
      "inputs": [],
      "name": "changeAllowedAfter",
      "outputs": [
        {
          "internalType": "uint256",
          "name": "",
          "type": "uint256"
        }
      ],
      "stateMutability": "view",
      "type": "function"
    },
    {
      "inputs": [],
      "name": "king",
      "outputs": [
        {
          "internalType": "address",
          "name": "",
          "type": "address"
        }
      ],
      "stateMutability": "view",
      "type": "function"
    },
    {
      "inputs": [],
      "name": "pendingBurn",
      "outputs": [
        {
          "internalType": "uint256",
          "name": "eta",
          "type": "uint256"
        },
        {
          "internalType": "address",
          "name": "source",
          "type": "address"
        },
        {
          "internalType": "uint256",
          "name": "amount",
          "type": "uint256"
        }
      ],
      "stateMutability": "view",
      "type": "function"
    },
    {
      "inputs": [],
      "name": "pendingKing",
      "outputs": [
        {
          "internalType": "uint256",
          "name": "eta",
          "type": "uint256"
        },
        {
          "internalType": "address",
          "name": "newKing",
          "type": "address"
        }
      ],
      "stateMutability": "view",
      "type": "function"
    },
    {
      "inputs": [],
      "name": "pendingMiners",
      "outputs": [
        {
          "internalType": "uint256",
          "name": "eta",
          "type": "uint256"
        },
        {
          "internalType": "address",
          "name": "newMiners",
          "type": "address"
        }
      ],
      "stateMutability": "view",
      "type": "function"
    },
    {
      "inputs": [],
      "name": "pendingMint",
      "outputs": [
        {
          "internalType": "uint256",
          "name": "eta",
          "type": "uint256"
        },
        {
          "internalType": "address",
          "name": "destination",
          "type": "address"
        },
        {
          "internalType": "uint256",
          "name": "amount",
          "type": "uint256"
        }
      ],
      "stateMutability": "view",
      "type": "function"
    },
    {
      "inputs": [],
      "name": "pendingMintCap",
      "outputs": [
        {
          "internalType": "uint256",
          "name": "eta",
          "type": "uint256"
        },
        {
          "internalType": "uint32",
          "name": "newCap",
          "type": "uint32"
        }
      ],
      "stateMutability": "view",
      "type": "function"
    },
    {
      "inputs": [],
      "name": "pendingProposalLength",
      "outputs": [
        {
          "internalType": "uint256",
          "name": "eta",
          "type": "uint256"
        },
        {
          "internalType": "uint32",
          "name": "newLength",
          "type": "uint32"
        }
      ],
      "stateMutability": "view",
      "type": "function"
    },
    {
      "inputs": [],
      "name": "pendingWaitingPeriod",
      "outputs": [
        {
          "internalType": "uint256",
          "name": "eta",
          "type": "uint256"
        },
        {
          "internalType": "uint32",
          "name": "newPeriod",
          "type": "uint32"
        }
      ],
      "stateMutability": "view",
      "type": "function"
    },
    {
      "inputs": [],
      "name": "proposalLength",
      "outputs": [
        {
          "internalType": "uint32",
          "name": "",
          "type": "uint32"
        }
      ],
      "stateMutability": "view",
      "type": "function"
    },
    {
      "inputs": [],
      "name": "proposalLengthMinimum",
      "outputs": [
        {
          "internalType": "uint32",
          "name": "",
          "type": "uint32"
        }
      ],
      "stateMutability": "view",
      "type": "function"
    },
    {
      "inputs": [
        {
          "internalType": "address",
          "name": "src",
          "type": "address"
        },
        {
          "internalType": "uint256",
          "name": "amount",
          "type": "uint256"
        }
      ],
      "name": "proposeBurn",
      "outputs": [],
      "stateMutability": "nonpayable",
      "type": "function"
    },
    {
      "inputs": [
        {
          "internalType": "address",
          "name": "newKing",
          "type": "address"
        }
      ],
      "name": "proposeKing",
      "outputs": [],
      "stateMutability": "nonpayable",
      "type": "function"
    },
    {
      "inputs": [
        {
          "internalType": "address",
          "name": "newMiners",
          "type": "address"
        }
      ],
      "name": "proposeMiners",
      "outputs": [],
      "stateMutability": "nonpayable",
      "type": "function"
    },
    {
      "inputs": [
        {
          "internalType": "address",
          "name": "dst",
          "type": "address"
        },
        {
          "internalType": "uint256",
          "name": "amount",
          "type": "uint256"
        }
      ],
      "name": "proposeMint",
      "outputs": [],
      "stateMutability": "nonpayable",
      "type": "function"
    },
    {
      "inputs": [
        {
          "internalType": "uint32",
          "name": "newCap",
          "type": "uint32"
        }
      ],
      "name": "proposeMintCap",
      "outputs": [],
      "stateMutability": "nonpayable",
      "type": "function"
    },
    {
      "inputs": [
        {
          "internalType": "uint32",
          "name": "newLength",
          "type": "uint32"
        }
      ],
      "name": "proposeNewProposalLength",
      "outputs": [],
      "stateMutability": "nonpayable",
      "type": "function"
    },
    {
      "inputs": [
        {
          "internalType": "uint32",
          "name": "newPeriod",
          "type": "uint32"
        }
      ],
      "name": "proposeSupplyChangeWaitingPeriod",
      "outputs": [],
      "stateMutability": "nonpayable",
      "type": "function"
    },
    {
      "inputs": [],
      "name": "token",
      "outputs": [
        {
          "internalType": "contract ICrownGovernanceToken",
          "name": "",
          "type": "address"
        }
      ],
      "stateMutability": "view",
      "type": "function"
    }
  ],
  "transactionHash": "0xa08aa41dd1e12e9fadd104f1d23b42107b14117698d315a058d0314fc3a9ee35",
  "args": [
    "0x1aBB9e038819c9Cc6BdB34848b0De193D7c3D00a",
    "0x0A26a1eBca217c8090f9a7759Ef82f19a1E19ea1"
  ],
  "solcInputHash": "e885469200b403bc2af39246669116fe",
  "bytecode": "0x608060405262278d00600360006101000a81548163ffffffff021916908363ffffffff16021790555062093a80600360046101000a81548163ffffffff021916908363ffffffff1602179055503480156200005957600080fd5b50604051620060223803806200602283398181016040528101906200007f9190620001de565b816000806101000a81548173ffffffffffffffffffffffffffffffffffffffff021916908373ffffffffffffffffffffffffffffffffffffffff16021790555060008054906101000a900473ffffffffffffffffffffffffffffffffffffffff1673ffffffffffffffffffffffffffffffffffffffff1663892b0edf6040518163ffffffff1660e01b815260040160206040518083038186803b1580156200012657600080fd5b505afa1580156200013b573d6000803e3d6000fd5b505050506040513d601f19601f820116820180604052508101906200016191906200021f565b60028190555080600160006101000a81548173ffffffffffffffffffffffffffffffffffffffff021916908373ffffffffffffffffffffffffffffffffffffffff1602179055505050620002bd565b600081519050620001c18162000289565b92915050565b600081519050620001d881620002a3565b92915050565b60008060408385031215620001f257600080fd5b60006200020285828601620001b0565b92505060206200021585828601620001b0565b9150509250929050565b6000602082840312156200023257600080fd5b60006200024284828501620001c7565b91505092915050565b600062000258826200025f565b9050919050565b600073ffffffffffffffffffffffffffffffffffffffff82169050919050565b6000819050919050565b62000294816200024b565b8114620002a057600080fd5b50565b620002ae816200027f565b8114620002ba57600080fd5b50565b615d5580620002cd6000396000f3fe608060405234801561001057600080fd5b506004361061020b5760003560e01c80637e5649b41161012a578063d4307540116100bd578063e11749a91161008c578063e9bea2dc11610071578063e9bea2dc14610478578063ecd13fb114610494578063fc0c546a146104b35761020b565b8063e11749a91461044f578063e631b8ea1461046e5761020b565b8063d4307540146103ea578063d7510b2914610409578063e0c6a23f14610413578063e114482c1461042f5761020b565b8063a56c05b7116100f9578063a56c05b71461039c578063b48c589f146103a6578063bd1bfaa7146103c2578063cc181ca8146103cc5761020b565b80637e5649b41461036257806381aa91f11461036c5780639279dc3b14610388578063a4f1f256146103925761020b565b80634d7ecb34116101a257806367f237491161017157806367f237491461031457806369a441ce146103305780636a420fb31461033a5780636efc3904146103445761020b565b80634d7ecb34146102b057806359b3a049146102cc57806359fe0e6d146102eb5780635ca2167e146102f55761020b565b806326465af2116101de57806326465af21461024a578063288b52c914610268578063371f530a1461027257806339557d3d146102925761020b565b8063074dacbc146102105780630a4673c01461021a5780630c7252aa1461022457806315d4c5d51461022e575b600080fd5b6102186104d1565b005b610222610701565b005b61022c6108e1565b005b61024860048036038101906102439190614580565b610b28565b005b610252611031565b60405161025f919061500a565b60405180910390f35b610270611037565b005b61027a61147a565b6040516102899392919061504e565b60405180910390f35b61029a6114b2565b6040516102a7919061510e565b60405180910390f35b6102ca60048036038101906102c5919061452e565b6114c8565b005b6102d4611771565b6040516102e29291906150e5565b60405180910390f35b6102f3611793565b005b6102fd611b56565b60405161030b929190615025565b60405180910390f35b61032e6004803603810190610329919061460e565b611b88565b005b610338611de1565b005b610342612028565b005b61034c612208565b604051610359919061510e565b60405180910390f35b61036a61221e565b005b6103866004803603810190610381919061452e565b612641565b005b61039061286f565b005b61039a612c32565b005b6103a4612ea0565b005b6103c060048036038101906103bb919061460e565b6130d0565b005b6103ca6132ff565b005b6103d4613742565b6040516103e19190614b42565b60405180910390f35b6103f2613768565b604051610400929190615025565b60405180910390f35b61041161379a565b005b61042d60048036038101906104289190614580565b61397a565b005b610437613e77565b6040516104469392919061504e565b60405180910390f35b610457613eaf565b6040516104659291906150e5565b60405180910390f35b610476613ed1565b005b610492600480360381019061048d919061460e565b6141cf565b005b61049c614428565b6040516104aa9291906150e5565b60405180910390f35b6104bb61444a565b6040516104c89190614baf565b60405180910390f35b60006104db61446e565b9050600073ffffffffffffffffffffffffffffffffffffffff168160030160009054906101000a900473ffffffffffffffffffffffffffffffffffffffff1673ffffffffffffffffffffffffffffffffffffffff16148061058b57508060030160009054906101000a900473ffffffffffffffffffffffffffffffffffffffff1673ffffffffffffffffffffffffffffffffffffffff163373ffffffffffffffffffffffffffffffffffffffff16145b6105ca576040517f08c379a00000000000000000000000000000000000000000000000000000000081526004016105c190614d6a565b60405180910390fd5b60006010600001541415610613576040517f08c379a000000000000000000000000000000000000000000000000000000000815260040161060a90614d8a565b60405180910390fd5b601060010160009054906101000a900473ffffffffffffffffffffffffffffffffffffffff1673ffffffffffffffffffffffffffffffffffffffff167fdb04e72bd3e2c9e4e96256c0cab8f472ecef4cb7cc8d869525c2c56cf22667d260405160405180910390a2604051806040016040528060008152602001600073ffffffffffffffffffffffffffffffffffffffff1681525060106000820151816000015560208201518160010160006101000a81548173ffffffffffffffffffffffffffffffffffffffff021916908373ffffffffffffffffffffffffffffffffffffffff16021790555090505050565b600061070b61446e565b9050600073ffffffffffffffffffffffffffffffffffffffff168160030160009054906101000a900473ffffffffffffffffffffffffffffffffffffffff1673ffffffffffffffffffffffffffffffffffffffff1614806107bb57508060030160009054906101000a900473ffffffffffffffffffffffffffffffffffffffff1673ffffffffffffffffffffffffffffffffffffffff163373ffffffffffffffffffffffffffffffffffffffff16145b6107fa576040517f08c379a00000000000000000000000000000000000000000000000000000000081526004016107f190614d6a565b60405180910390fd5b60006012600001541415610843576040517f08c379a000000000000000000000000000000000000000000000000000000000815260040161083a90614f8a565b60405180910390fd5b601260010160009054906101000a900463ffffffff1663ffffffff167f268e39839b17c0ddd4b92771a64137229a8bffba784f353f24833c16bcf0e31e60405160405180910390a2604051806040016040528060008152602001600063ffffffff1681525060126000820151816000015560208201518160010160006101000a81548163ffffffff021916908363ffffffff16021790555090505050565b60006108eb61446e565b9050600073ffffffffffffffffffffffffffffffffffffffff168160030160009054906101000a900473ffffffffffffffffffffffffffffffffffffffff1673ffffffffffffffffffffffffffffffffffffffff16148061099b57508060030160009054906101000a900473ffffffffffffffffffffffffffffffffffffffff1673ffffffffffffffffffffffffffffffffffffffff163373ffffffffffffffffffffffffffffffffffffffff16145b6109da576040517f08c379a00000000000000000000000000000000000000000000000000000000081526004016109d190614d6a565b60405180910390fd5b60006006600001541415610a23576040517f08c379a0000000000000000000000000000000000000000000000000000000008152600401610a1a90614c6a565b60405180910390fd5b600660010160009054906101000a900473ffffffffffffffffffffffffffffffffffffffff1673ffffffffffffffffffffffffffffffffffffffff166006600201547fcbba48cbe11f5f53a4b8f86013b3dced6bfa520669fbeb42b44f4ef4a6ba57e160405160405180910390a3604051806060016040528060008152602001600073ffffffffffffffffffffffffffffffffffffffff168152602001600081525060066000820151816000015560208201518160010160006101000a81548173ffffffffffffffffffffffffffffffffffffffff021916908373ffffffffffffffffffffffffffffffffffffffff1602179055506040820151816002015590505050565b6000610b3261446e565b9050600073ffffffffffffffffffffffffffffffffffffffff168160030160009054906101000a900473ffffffffffffffffffffffffffffffffffffffff1673ffffffffffffffffffffffffffffffffffffffff161480610be257508060030160009054906101000a900473ffffffffffffffffffffffffffffffffffffffff1673ffffffffffffffffffffffffffffffffffffffff163373ffffffffffffffffffffffffffffffffffffffff16145b610c21576040517f08c379a0000000000000000000000000000000000000000000000000000000008152600401610c1890614d6a565b60405180910390fd5b60008060009054906101000a900473ffffffffffffffffffffffffffffffffffffffff1673ffffffffffffffffffffffffffffffffffffffff166318160ddd6040518163ffffffff1660e01b815260040160206040518083038186803b158015610c8a57600080fd5b505afa158015610c9e573d6000803e3d6000fd5b505050506040513d601f19601f82011682018060405250810190610cc291906145e5565b9050600073ffffffffffffffffffffffffffffffffffffffff168473ffffffffffffffffffffffffffffffffffffffff161415610d34576040517f08c379a0000000000000000000000000000000000000000000000000000000008152600401610d2b90614e4a565b60405180910390fd5b620f424060008054906101000a900473ffffffffffffffffffffffffffffffffffffffff1673ffffffffffffffffffffffffffffffffffffffff166376c71ca16040518163ffffffff1660e01b815260040160206040518083038186803b158015610d9e57600080fd5b505afa158015610db2573d6000803e3d6000fd5b505050506040513d601f19601f82011682018060405250810190610dd69190614637565b63ffffffff1682610de791906151c1565b610df19190615190565b831115610e33576040517f08c379a0000000000000000000000000000000000000000000000000000000008152600401610e2a90614cca565b60405180910390fd5b6000600360009054906101000a900463ffffffff1663ffffffff1642610e59919061513a565b905060008054906101000a900473ffffffffffffffffffffffffffffffffffffffff1673ffffffffffffffffffffffffffffffffffffffff1663892b0edf6040518163ffffffff1660e01b815260040160206040518083038186803b158015610ec157600080fd5b505afa158015610ed5573d6000803e3d6000fd5b505050506040513d601f19601f82011682018060405250810190610ef991906145e5565b811015610f3b576040517f08c379a0000000000000000000000000000000000000000000000000000000008152600401610f3290614f4a565b60405180910390fd5b60405180606001604052808281526020018673ffffffffffffffffffffffffffffffffffffffff1681526020018581525060066000820151816000015560208201518160010160006101000a81548173ffffffffffffffffffffffffffffffffffffffff021916908373ffffffffffffffffffffffffffffffffffffffff160217905550604082015181600201559050508473ffffffffffffffffffffffffffffffffffffffff16847f77217190dc6169d79fa5e0fae70258ac2c7aff9a26395192a26a46fe8f73a738848786611012919061513a565b85604051611022939291906150ae565b60405180910390a35050505050565b60025481565b600061104161446e565b9050600073ffffffffffffffffffffffffffffffffffffffff168160030160009054906101000a900473ffffffffffffffffffffffffffffffffffffffff1673ffffffffffffffffffffffffffffffffffffffff1614806110f157508060030160009054906101000a900473ffffffffffffffffffffffffffffffffffffffff1673ffffffffffffffffffffffffffffffffffffffff163373ffffffffffffffffffffffffffffffffffffffff16145b611130576040517f08c379a000000000000000000000000000000000000000000000000000000000815260040161112790614d6a565b60405180910390fd5b60006006600001541415611179576040517f08c379a000000000000000000000000000000000000000000000000000000000815260040161117090614caa565b60405180910390fd5b6006600001544210156111c1576040517f08c379a00000000000000000000000000000000000000000000000000000000081526004016111b890614faa565b60405180910390fd5b6000600660010160009054906101000a900473ffffffffffffffffffffffffffffffffffffffff1690506000600660020154905060008060009054906101000a900473ffffffffffffffffffffffffffffffffffffffff1673ffffffffffffffffffffffffffffffffffffffff166318160ddd6040518163ffffffff1660e01b815260040160206040518083038186803b15801561125e57600080fd5b505afa158015611272573d6000803e3d6000fd5b505050506040513d601f19601f8201168201806040525081019061129691906145e5565b9050604051806060016040528060008152602001600073ffffffffffffffffffffffffffffffffffffffff168152602001600081525060066000820151816000015560208201518160010160006101000a81548173ffffffffffffffffffffffffffffffffffffffff021916908373ffffffffffffffffffffffffffffffffffffffff1602179055506040820151816002015590505060008054906101000a900473ffffffffffffffffffffffffffffffffffffffff1673ffffffffffffffffffffffffffffffffffffffff166340c10f1984846040518363ffffffff1660e01b8152600401611387929190614b86565b602060405180830381600087803b1580156113a157600080fd5b505af11580156113b5573d6000803e3d6000fd5b505050506040513d601f19601f820116820180604052508101906113d991906145bc565b611418576040517f08c379a000000000000000000000000000000000000000000000000000000000815260040161140f90614f2a565b60405180910390fd5b8273ffffffffffffffffffffffffffffffffffffffff16827fcbaf6b8a944325ef48927f70dda9445819f52d3a516f9ddff17ec1ad4d3e44cd83858561145e919061513a565b60405161146c929190615085565b60405180910390a350505050565b60098060000154908060010160009054906101000a900473ffffffffffffffffffffffffffffffffffffffff16908060020154905083565b600360009054906101000a900463ffffffff1681565b60006114d261446e565b9050600073ffffffffffffffffffffffffffffffffffffffff168160030160009054906101000a900473ffffffffffffffffffffffffffffffffffffffff1673ffffffffffffffffffffffffffffffffffffffff16148061158257508060030160009054906101000a900473ffffffffffffffffffffffffffffffffffffffff1673ffffffffffffffffffffffffffffffffffffffff163373ffffffffffffffffffffffffffffffffffffffff16145b6115c1576040517f08c379a00000000000000000000000000000000000000000000000000000000081526004016115b890614d6a565b60405180910390fd5b6000600360009054906101000a900463ffffffff1663ffffffff16426115e7919061513a565b905060405180604001604052808281526020018473ffffffffffffffffffffffffffffffffffffffff1681525060106000820151816000015560208201518160010160006101000a81548173ffffffffffffffffffffffffffffffffffffffff021916908373ffffffffffffffffffffffffffffffffffffffff1602179055509050508273ffffffffffffffffffffffffffffffffffffffff1660008054906101000a900473ffffffffffffffffffffffffffffffffffffffff1673ffffffffffffffffffffffffffffffffffffffff1663f147389f6040518163ffffffff1660e01b815260040160206040518083038186803b1580156116e757600080fd5b505afa1580156116fb573d6000803e3d6000fd5b505050506040513d601f19601f8201168201806040525081019061171f9190614557565b73ffffffffffffffffffffffffffffffffffffffff167fdddfa440841350e4fae2b613e20f6aa58fbb368a83f172fda600b7dff2f123a283604051611764919061500a565b60405180910390a3505050565b60128060000154908060010160009054906101000a900463ffffffff16905082565b600061179d61446e565b9050600073ffffffffffffffffffffffffffffffffffffffff168160030160009054906101000a900473ffffffffffffffffffffffffffffffffffffffff1673ffffffffffffffffffffffffffffffffffffffff16148061184d57508060030160009054906101000a900473ffffffffffffffffffffffffffffffffffffffff1673ffffffffffffffffffffffffffffffffffffffff163373ffffffffffffffffffffffffffffffffffffffff16145b61188c576040517f08c379a000000000000000000000000000000000000000000000000000000000815260040161188390614d6a565b60405180910390fd5b6000600c6000015414156118d5576040517f08c379a00000000000000000000000000000000000000000000000000000000081526004016118cc90614eea565b60405180910390fd5b600c6000015442101561191d576040517f08c379a000000000000000000000000000000000000000000000000000000000815260040161191490614fca565b60405180910390fd5b60008060009054906101000a900473ffffffffffffffffffffffffffffffffffffffff1673ffffffffffffffffffffffffffffffffffffffff166376c71ca16040518163ffffffff1660e01b815260040160206040518083038186803b15801561198657600080fd5b505afa15801561199a573d6000803e3d6000fd5b505050506040513d601f19601f820116820180604052508101906119be9190614637565b90506000600c60010160009054906101000a900463ffffffff169050604051806040016040528060008152602001600063ffffffff16815250600c6000820151816000015560208201518160010160006101000a81548163ffffffff021916908363ffffffff16021790555090505060008054906101000a900473ffffffffffffffffffffffffffffffffffffffff1673ffffffffffffffffffffffffffffffffffffffff16633dae1a3a826040518263ffffffff1660e01b8152600401611a86919061510e565b602060405180830381600087803b158015611aa057600080fd5b505af1158015611ab4573d6000803e3d6000fd5b505050506040513d601f19601f82011682018060405250810190611ad891906145bc565b611b17576040517f08c379a0000000000000000000000000000000000000000000000000000000008152600401611b0e90614c8a565b60405180910390fd5b8063ffffffff168263ffffffff167f64749be294bcf937f5a4cd8f655f72ca5d82202fe82c4d3346ec1139e78e964a60405160405180910390a3505050565b60108060000154908060010160009054906101000a900473ffffffffffffffffffffffffffffffffffffffff16905082565b6000611b9261446e565b9050600073ffffffffffffffffffffffffffffffffffffffff168160030160009054906101000a900473ffffffffffffffffffffffffffffffffffffffff1673ffffffffffffffffffffffffffffffffffffffff161480611c4257508060030160009054906101000a900473ffffffffffffffffffffffffffffffffffffffff1673ffffffffffffffffffffffffffffffffffffffff163373ffffffffffffffffffffffffffffffffffffffff16145b611c81576040517f08c379a0000000000000000000000000000000000000000000000000000000008152600401611c7890614d6a565b60405180910390fd5b6000600360009054906101000a900463ffffffff1663ffffffff1642611ca7919061513a565b905060405180604001604052808281526020018463ffffffff16815250600e6000820151816000015560208201518160010160006101000a81548163ffffffff021916908363ffffffff1602179055509050508263ffffffff1660008054906101000a900473ffffffffffffffffffffffffffffffffffffffff1673ffffffffffffffffffffffffffffffffffffffff1663941acc496040518163ffffffff1660e01b815260040160206040518083038186803b158015611d6757600080fd5b505afa158015611d7b573d6000803e3d6000fd5b505050506040513d601f19601f82011682018060405250810190611d9f9190614637565b63ffffffff167fc2c16c71c9c502bf94ab9f1a0daabd5381971788a55723198760940ec854c54683604051611dd4919061500a565b60405180910390a3505050565b6000611deb61446e565b9050600073ffffffffffffffffffffffffffffffffffffffff168160030160009054906101000a900473ffffffffffffffffffffffffffffffffffffffff1673ffffffffffffffffffffffffffffffffffffffff161480611e9b57508060030160009054906101000a900473ffffffffffffffffffffffffffffffffffffffff1673ffffffffffffffffffffffffffffffffffffffff163373ffffffffffffffffffffffffffffffffffffffff16145b611eda576040517f08c379a0000000000000000000000000000000000000000000000000000000008152600401611ed190614d6a565b60405180910390fd5b60006009600001541415611f23576040517f08c379a0000000000000000000000000000000000000000000000000000000008152600401611f1a90614e8a565b60405180910390fd5b600960010160009054906101000a900473ffffffffffffffffffffffffffffffffffffffff1673ffffffffffffffffffffffffffffffffffffffff166009600201547f3d6cc2bba18f18586d6b9b1beab8aac2cee2c506d36c60a11935a30f81af407d60405160405180910390a3604051806060016040528060008152602001600073ffffffffffffffffffffffffffffffffffffffff168152602001600081525060096000820151816000015560208201518160010160006101000a81548173ffffffffffffffffffffffffffffffffffffffff021916908373ffffffffffffffffffffffffffffffffffffffff1602179055506040820151816002015590505050565b600061203261446e565b9050600073ffffffffffffffffffffffffffffffffffffffff168160030160009054906101000a900473ffffffffffffffffffffffffffffffffffffffff1673ffffffffffffffffffffffffffffffffffffffff1614806120e257508060030160009054906101000a900473ffffffffffffffffffffffffffffffffffffffff1673ffffffffffffffffffffffffffffffffffffffff163373ffffffffffffffffffffffffffffffffffffffff16145b612121576040517f08c379a000000000000000000000000000000000000000000000000000000000815260040161211890614d6a565b60405180910390fd5b6000600c60000154141561216a576040517f08c379a000000000000000000000000000000000000000000000000000000000815260040161216190614dca565b60405180910390fd5b600c60010160009054906101000a900463ffffffff1663ffffffff167fdc771861018090e0b7ba1fb85ea482d6117ae853a84294bafc5baa114356b5f360405160405180910390a2604051806040016040528060008152602001600063ffffffff16815250600c6000820151816000015560208201518160010160006101000a81548163ffffffff021916908363ffffffff16021790555090505050565b600360049054906101000a900463ffffffff1681565b600061222861446e565b9050600073ffffffffffffffffffffffffffffffffffffffff168160030160009054906101000a900473ffffffffffffffffffffffffffffffffffffffff1673ffffffffffffffffffffffffffffffffffffffff1614806122d857508060030160009054906101000a900473ffffffffffffffffffffffffffffffffffffffff1673ffffffffffffffffffffffffffffffffffffffff163373ffffffffffffffffffffffffffffffffffffffff16145b612317576040517f08c379a000000000000000000000000000000000000000000000000000000000815260040161230e90614d6a565b60405180910390fd5b60006010600001541415612360576040517f08c379a000000000000000000000000000000000000000000000000000000000815260040161235790614c2a565b60405180910390fd5b6010600001544210156123a8576040517f08c379a000000000000000000000000000000000000000000000000000000000815260040161239f90614bca565b60405180910390fd5b60008060009054906101000a900473ffffffffffffffffffffffffffffffffffffffff1673ffffffffffffffffffffffffffffffffffffffff1663f147389f6040518163ffffffff1660e01b815260040160206040518083038186803b15801561241157600080fd5b505afa158015612425573d6000803e3d6000fd5b505050506040513d601f19601f820116820180604052508101906124499190614557565b90506000601060010160009054906101000a900473ffffffffffffffffffffffffffffffffffffffff169050604051806040016040528060008152602001600073ffffffffffffffffffffffffffffffffffffffff1681525060106000820151816000015560208201518160010160006101000a81548173ffffffffffffffffffffffffffffffffffffffff021916908373ffffffffffffffffffffffffffffffffffffffff16021790555090505060008054906101000a900473ffffffffffffffffffffffffffffffffffffffff1673ffffffffffffffffffffffffffffffffffffffff1663191250d7826040518263ffffffff1660e01b81526004016125519190614b42565b602060405180830381600087803b15801561256b57600080fd5b505af115801561257f573d6000803e3d6000fd5b505050506040513d601f19601f820116820180604052508101906125a391906145bc565b6125e2576040517f08c379a00000000000000000000000000000000000000000000000000000000081526004016125d990614d2a565b60405180910390fd5b8073ffffffffffffffffffffffffffffffffffffffff168273ffffffffffffffffffffffffffffffffffffffff167f9a18635ac9034fca80401aa1427a50a518bf537c407c158edc32d87a99705b2760405160405180910390a3505050565b600061264b61446e565b9050600073ffffffffffffffffffffffffffffffffffffffff168160030160009054906101000a900473ffffffffffffffffffffffffffffffffffffffff1673ffffffffffffffffffffffffffffffffffffffff1614806126fb57508060030160009054906101000a900473ffffffffffffffffffffffffffffffffffffffff1673ffffffffffffffffffffffffffffffffffffffff163373ffffffffffffffffffffffffffffffffffffffff16145b61273a576040517f08c379a000000000000000000000000000000000000000000000000000000000815260040161273190614d6a565b60405180910390fd5b6000600360049054906101000a900463ffffffff1663ffffffff1642612760919061513a565b905060405180604001604052808281526020018473ffffffffffffffffffffffffffffffffffffffff1681525060046000820151816000015560208201518160010160006101000a81548173ffffffffffffffffffffffffffffffffffffffff021916908373ffffffffffffffffffffffffffffffffffffffff1602179055509050508273ffffffffffffffffffffffffffffffffffffffff16600160009054906101000a900473ffffffffffffffffffffffffffffffffffffffff1673ffffffffffffffffffffffffffffffffffffffff167f204bf6ef7395d63b0097526aa09282e0c2d229af630dfec592dc76281c9ea04c83604051612862919061500a565b60405180910390a3505050565b600061287961446e565b9050600073ffffffffffffffffffffffffffffffffffffffff168160030160009054906101000a900473ffffffffffffffffffffffffffffffffffffffff1673ffffffffffffffffffffffffffffffffffffffff16148061292957508060030160009054906101000a900473ffffffffffffffffffffffffffffffffffffffff1673ffffffffffffffffffffffffffffffffffffffff163373ffffffffffffffffffffffffffffffffffffffff16145b612968576040517f08c379a000000000000000000000000000000000000000000000000000000000815260040161295f90614d6a565b60405180910390fd5b6000600e6000015414156129b1576040517f08c379a00000000000000000000000000000000000000000000000000000000081526004016129a890614eca565b60405180910390fd5b600e600001544210156129f9576040517f08c379a00000000000000000000000000000000000000000000000000000000081526004016129f090614daa565b60405180910390fd5b60008060009054906101000a900473ffffffffffffffffffffffffffffffffffffffff1673ffffffffffffffffffffffffffffffffffffffff1663941acc496040518163ffffffff1660e01b815260040160206040518083038186803b158015612a6257600080fd5b505afa158015612a76573d6000803e3d6000fd5b505050506040513d601f19601f82011682018060405250810190612a9a9190614637565b90506000600e60010160009054906101000a900463ffffffff169050604051806040016040528060008152602001600063ffffffff16815250600e6000820151816000015560208201518160010160006101000a81548163ffffffff021916908363ffffffff16021790555090505060008054906101000a900473ffffffffffffffffffffffffffffffffffffffff1673ffffffffffffffffffffffffffffffffffffffff16631d4f8072826040518263ffffffff1660e01b8152600401612b62919061510e565b602060405180830381600087803b158015612b7c57600080fd5b505af1158015612b90573d6000803e3d6000fd5b505050506040513d601f19601f82011682018060405250810190612bb491906145bc565b612bf3576040517f08c379a0000000000000000000000000000000000000000000000000000000008152600401612bea90614fea565b60405180910390fd5b8063ffffffff168263ffffffff167f7025e54ef5c16a096828ea481527440f63a7fbdc6305b0ade9a4389ffd8cf0d760405160405180910390a3505050565b6000612c3c61446e565b9050600073ffffffffffffffffffffffffffffffffffffffff168160030160009054906101000a900473ffffffffffffffffffffffffffffffffffffffff1673ffffffffffffffffffffffffffffffffffffffff161480612cec57508060030160009054906101000a900473ffffffffffffffffffffffffffffffffffffffff1673ffffffffffffffffffffffffffffffffffffffff163373ffffffffffffffffffffffffffffffffffffffff16145b612d2b576040517f08c379a0000000000000000000000000000000000000000000000000000000008152600401612d2290614d6a565b60405180910390fd5b60006012600001541415612d74576040517f08c379a0000000000000000000000000000000000000000000000000000000008152600401612d6b90614d4a565b60405180910390fd5b601260000154421015612dbc576040517f08c379a0000000000000000000000000000000000000000000000000000000008152600401612db390614bea565b60405180910390fd5b6000600360009054906101000a900463ffffffff1690506000601260010160009054906101000a900463ffffffff169050604051806040016040528060008152602001600063ffffffff1681525060126000820151816000015560208201518160010160006101000a81548163ffffffff021916908363ffffffff16021790555090505080600360006101000a81548163ffffffff021916908363ffffffff1602179055508063ffffffff168263ffffffff167f3ee0f8b74189553d82e64fbb1afcf149c2490693194978e4fd0d119967aabf3560405160405180910390a3505050565b6000612eaa61446e565b9050600073ffffffffffffffffffffffffffffffffffffffff168160030160009054906101000a900473ffffffffffffffffffffffffffffffffffffffff1673ffffffffffffffffffffffffffffffffffffffff161480612f5a57508060030160009054906101000a900473ffffffffffffffffffffffffffffffffffffffff1673ffffffffffffffffffffffffffffffffffffffff163373ffffffffffffffffffffffffffffffffffffffff16145b612f99576040517f08c379a0000000000000000000000000000000000000000000000000000000008152600401612f9090614d6a565b60405180910390fd5b60006004600001541415612fe2576040517f08c379a0000000000000000000000000000000000000000000000000000000008152600401612fd990614f6a565b60405180910390fd5b600460010160009054906101000a900473ffffffffffffffffffffffffffffffffffffffff1673ffffffffffffffffffffffffffffffffffffffff167f3a29656c93a8d9cd1a9212a1b15b53b65fd5d13a52ff2ecf86b986a49b4fc53a60405160405180910390a2604051806040016040528060008152602001600073ffffffffffffffffffffffffffffffffffffffff1681525060046000820151816000015560208201518160010160006101000a81548173ffffffffffffffffffffffffffffffffffffffff021916908373ffffffffffffffffffffffffffffffffffffffff16021790555090505050565b60006130da61446e565b9050600073ffffffffffffffffffffffffffffffffffffffff168160030160009054906101000a900473ffffffffffffffffffffffffffffffffffffffff1673ffffffffffffffffffffffffffffffffffffffff16148061318a57508060030160009054906101000a900473ffffffffffffffffffffffffffffffffffffffff1673ffffffffffffffffffffffffffffffffffffffff163373ffffffffffffffffffffffffffffffffffffffff16145b6131c9576040517f08c379a00000000000000000000000000000000000000000000000000000000081526004016131c090614d6a565b60405180910390fd5b600360049054906101000a900463ffffffff1663ffffffff168263ffffffff16101561322a576040517f08c379a000000000000000000000000000000000000000000000000000000000815260040161322190614dea565b60405180910390fd5b6000600360009054906101000a900463ffffffff1663ffffffff1642613250919061513a565b905060405180604001604052808281526020018463ffffffff1681525060126000820151816000015560208201518160010160006101000a81548163ffffffff021916908363ffffffff1602179055509050508263ffffffff16600360009054906101000a900463ffffffff1663ffffffff167f069598cb2d57f0d331816a082dc250a4166ca53fbd97029d6b275b8173365e5f836040516132f2919061500a565b60405180910390a3505050565b600061330961446e565b9050600073ffffffffffffffffffffffffffffffffffffffff168160030160009054906101000a900473ffffffffffffffffffffffffffffffffffffffff1673ffffffffffffffffffffffffffffffffffffffff1614806133b957508060030160009054906101000a900473ffffffffffffffffffffffffffffffffffffffff1673ffffffffffffffffffffffffffffffffffffffff163373ffffffffffffffffffffffffffffffffffffffff16145b6133f8576040517f08c379a00000000000000000000000000000000000000000000000000000000081526004016133ef90614d6a565b60405180910390fd5b60006009600001541415613441576040517f08c379a000000000000000000000000000000000000000000000000000000000815260040161343890614f0a565b60405180910390fd5b600960000154421015613489576040517f08c379a000000000000000000000000000000000000000000000000000000000815260040161348090614c0a565b60405180910390fd5b6000600960010160009054906101000a900473ffffffffffffffffffffffffffffffffffffffff16905060006009600201549050604051806060016040528060008152602001600073ffffffffffffffffffffffffffffffffffffffff168152602001600081525060096000820151816000015560208201518160010160006101000a81548173ffffffffffffffffffffffffffffffffffffffff021916908373ffffffffffffffffffffffffffffffffffffffff1602179055506040820151816002015590505060008054906101000a900473ffffffffffffffffffffffffffffffffffffffff1673ffffffffffffffffffffffffffffffffffffffff16639dc29fac83836040518363ffffffff1660e01b81526004016135ac929190614b86565b602060405180830381600087803b1580156135c657600080fd5b505af11580156135da573d6000803e3d6000fd5b505050506040513d601f19601f820116820180604052508101906135fe91906145bc565b61363d576040517f08c379a000000000000000000000000000000000000000000000000000000000815260040161363490614e0a565b60405180910390fd5b60008060009054906101000a900473ffffffffffffffffffffffffffffffffffffffff1673ffffffffffffffffffffffffffffffffffffffff166318160ddd6040518163ffffffff1660e01b815260040160206040518083038186803b1580156136a657600080fd5b505afa1580156136ba573d6000803e3d6000fd5b505050506040513d601f19601f820116820180604052508101906136de91906145e5565b90508273ffffffffffffffffffffffffffffffffffffffff16827f09c59a79c658ab5a8ed31ebecb2e804b41b6a74bf519b7980b26c06af31a53758484613725919061513a565b84604051613734929190615085565b60405180910390a350505050565b600160009054906101000a900473ffffffffffffffffffffffffffffffffffffffff1681565b60048060000154908060010160009054906101000a900473ffffffffffffffffffffffffffffffffffffffff16905082565b60006137a461446e565b9050600073ffffffffffffffffffffffffffffffffffffffff168160030160009054906101000a900473ffffffffffffffffffffffffffffffffffffffff1673ffffffffffffffffffffffffffffffffffffffff16148061385457508060030160009054906101000a900473ffffffffffffffffffffffffffffffffffffffff1673ffffffffffffffffffffffffffffffffffffffff163373ffffffffffffffffffffffffffffffffffffffff16145b613893576040517f08c379a000000000000000000000000000000000000000000000000000000000815260040161388a90614d6a565b60405180910390fd5b6000600e6000015414156138dc576040517f08c379a00000000000000000000000000000000000000000000000000000000081526004016138d390614c4a565b60405180910390fd5b604051806040016040528060008152602001600063ffffffff16815250600e6000820151816000015560208201518160010160006101000a81548163ffffffff021916908363ffffffff160217905550905050600e60010160009054906101000a900463ffffffff1663ffffffff167f334d41ac66c5a2fdc0ce0e80d3774e9a0a2396ce959e99260267e9c05ec486ff60405160405180910390a250565b600061398461446e565b9050600073ffffffffffffffffffffffffffffffffffffffff168160030160009054906101000a900473ffffffffffffffffffffffffffffffffffffffff1673ffffffffffffffffffffffffffffffffffffffff161480613a3457508060030160009054906101000a900473ffffffffffffffffffffffffffffffffffffffff1673ffffffffffffffffffffffffffffffffffffffff163373ffffffffffffffffffffffffffffffffffffffff16145b613a73576040517f08c379a0000000000000000000000000000000000000000000000000000000008152600401613a6a90614d6a565b60405180910390fd5b600073ffffffffffffffffffffffffffffffffffffffff168373ffffffffffffffffffffffffffffffffffffffff161415613ae3576040517f08c379a0000000000000000000000000000000000000000000000000000000008152600401613ada90614cea565b60405180910390fd5b8160008054906101000a900473ffffffffffffffffffffffffffffffffffffffff1673ffffffffffffffffffffffffffffffffffffffff1663dd62ed3e85306040518363ffffffff1660e01b8152600401613b3f929190614b5d565b60206040518083038186803b158015613b5757600080fd5b505afa158015613b6b573d6000803e3d6000fd5b505050506040513d601f19601f82011682018060405250810190613b8f91906145e5565b1015613bd0576040517f08c379a0000000000000000000000000000000000000000000000000000000008152600401613bc790614d0a565b60405180910390fd5b60008060009054906101000a900473ffffffffffffffffffffffffffffffffffffffff1673ffffffffffffffffffffffffffffffffffffffff166318160ddd6040518163ffffffff1660e01b815260040160206040518083038186803b158015613c3957600080fd5b505afa158015613c4d573d6000803e3d6000fd5b505050506040513d601f19601f82011682018060405250810190613c7191906145e5565b905060008382613c81919061521b565b90506000600360009054906101000a900463ffffffff1663ffffffff1642613ca9919061513a565b905060008054906101000a900473ffffffffffffffffffffffffffffffffffffffff1673ffffffffffffffffffffffffffffffffffffffff1663892b0edf6040518163ffffffff1660e01b815260040160206040518083038186803b158015613d1157600080fd5b505afa158015613d25573d6000803e3d6000fd5b505050506040513d601f19601f82011682018060405250810190613d4991906145e5565b811015613d8b576040517f08c379a0000000000000000000000000000000000000000000000000000000008152600401613d8290614eaa565b60405180910390fd5b60405180606001604052808281526020018773ffffffffffffffffffffffffffffffffffffffff1681526020018681525060096000820151816000015560208201518160010160006101000a81548173ffffffffffffffffffffffffffffffffffffffff021916908373ffffffffffffffffffffffffffffffffffffffff160217905550604082015181600201559050508573ffffffffffffffffffffffffffffffffffffffff16857fb090ef20572b93378e0ec84252d95d856bb4c2243e1d4a2d695c852f38576cd7858585604051613e67939291906150ae565b60405180910390a3505050505050565b60068060000154908060010160009054906101000a900473ffffffffffffffffffffffffffffffffffffffff16908060020154905083565b600c8060000154908060010160009054906101000a900463ffffffff16905082565b6000613edb61446e565b9050600073ffffffffffffffffffffffffffffffffffffffff168160030160009054906101000a900473ffffffffffffffffffffffffffffffffffffffff1673ffffffffffffffffffffffffffffffffffffffff161480613f8b57508060030160009054906101000a900473ffffffffffffffffffffffffffffffffffffffff1673ffffffffffffffffffffffffffffffffffffffff163373ffffffffffffffffffffffffffffffffffffffff16145b613fca576040517f08c379a0000000000000000000000000000000000000000000000000000000008152600401613fc190614d6a565b60405180910390fd5b60006004600001541415614013576040517f08c379a000000000000000000000000000000000000000000000000000000000815260040161400a90614e2a565b60405180910390fd5b60046000015442101561405b576040517f08c379a000000000000000000000000000000000000000000000000000000000815260040161405290614e6a565b60405180910390fd5b6000600160009054906101000a900473ffffffffffffffffffffffffffffffffffffffff1690506000600460010160009054906101000a900473ffffffffffffffffffffffffffffffffffffffff169050604051806040016040528060008152602001600073ffffffffffffffffffffffffffffffffffffffff1681525060046000820151816000015560208201518160010160006101000a81548173ffffffffffffffffffffffffffffffffffffffff021916908373ffffffffffffffffffffffffffffffffffffffff16021790555090505080600160006101000a81548173ffffffffffffffffffffffffffffffffffffffff021916908373ffffffffffffffffffffffffffffffffffffffff1602179055508073ffffffffffffffffffffffffffffffffffffffff168273ffffffffffffffffffffffffffffffffffffffff167f2ba6723600b34486a0ca83f0b7698406d268a1b56194406796cb82209a8f480260405160405180910390a3505050565b60006141d961446e565b9050600073ffffffffffffffffffffffffffffffffffffffff168160030160009054906101000a900473ffffffffffffffffffffffffffffffffffffffff1673ffffffffffffffffffffffffffffffffffffffff16148061428957508060030160009054906101000a900473ffffffffffffffffffffffffffffffffffffffff1673ffffffffffffffffffffffffffffffffffffffff163373ffffffffffffffffffffffffffffffffffffffff16145b6142c8576040517f08c379a00000000000000000000000000000000000000000000000000000000081526004016142bf90614d6a565b60405180910390fd5b6000600360009054906101000a900463ffffffff1663ffffffff16426142ee919061513a565b905060405180604001604052808281526020018463ffffffff16815250600c6000820151816000015560208201518160010160006101000a81548163ffffffff021916908363ffffffff1602179055509050508263ffffffff1660008054906101000a900473ffffffffffffffffffffffffffffffffffffffff1673ffffffffffffffffffffffffffffffffffffffff166376c71ca16040518163ffffffff1660e01b815260040160206040518083038186803b1580156143ae57600080fd5b505afa1580156143c2573d6000803e3d6000fd5b505050506040513d601f19601f820116820180604052508101906143e69190614637565b63ffffffff167f80bec46a6fa15769a60d0635a2c048a9aa33db573eca5c7b80e2209678df080f8360405161441b919061500a565b60405180910390a3505050565b600e8060000154908060010160009054906101000a900463ffffffff16905082565b60008054906101000a900473ffffffffffffffffffffffffffffffffffffffff1681565b6000807feedc8c3fe1f2c3ab8dce1e429990e954667f9815b833f1da5923b0c280dd34cd90508091505090565b6000813590506144aa81615cc3565b92915050565b6000815190506144bf81615cc3565b92915050565b6000815190506144d481615cda565b92915050565b6000813590506144e981615cf1565b92915050565b6000815190506144fe81615cf1565b92915050565b60008135905061451381615d08565b92915050565b60008151905061452881615d08565b92915050565b60006020828403121561454057600080fd5b600061454e8482850161449b565b91505092915050565b60006020828403121561456957600080fd5b6000614577848285016144b0565b91505092915050565b6000806040838503121561459357600080fd5b60006145a18582860161449b565b92505060206145b2858286016144da565b9150509250929050565b6000602082840312156145ce57600080fd5b60006145dc848285016144c5565b91505092915050565b6000602082840312156145f757600080fd5b6000614605848285016144ef565b91505092915050565b60006020828403121561462057600080fd5b600061462e84828501614504565b91505092915050565b60006020828403121561464957600080fd5b600061465784828501614519565b91505092915050565b6146698161524f565b82525050565b614678816152a7565b82525050565b600061468b602d83615129565b915061469682615329565b604082019050919050565b60006146ae602d83615129565b91506146b982615378565b604082019050919050565b60006146d1602f83615129565b91506146dc826153c7565b604082019050919050565b60006146f4602483615129565b91506146ff82615416565b604082019050919050565b6000614717602f83615129565b915061472282615465565b604082019050919050565b600061473a602683615129565b9150614745826154b4565b604082019050919050565b600061475d601e83615129565b915061476882615503565b602082019050919050565b6000614780602683615129565b915061478b8261552c565b604082019050919050565b60006147a3602c83615129565b91506147ae8261557b565b604082019050919050565b60006147c6603a83615129565b91506147d1826155ca565b604082019050919050565b60006147e9603483615129565b91506147f482615619565b604082019050919050565b600061480c601e83615129565b915061481782615668565b602082019050919050565b600061482f602483615129565b915061483a82615691565b604082019050919050565b6000614852602083615129565b915061485d826156e0565b602082019050919050565b6000614875602483615129565b915061488082615709565b604082019050919050565b6000614898602d83615129565b91506148a382615758565b604082019050919050565b60006148bb602483615129565b91506148c6826157a7565b604082019050919050565b60006148de602c83615129565b91506148e9826157f6565b604082019050919050565b6000614901602083615129565b915061490c82615845565b602082019050919050565b6000614924602683615129565b915061492f8261586e565b604082019050919050565b6000614947603883615129565b9150614952826158bd565b604082019050919050565b600061496a602f83615129565b91506149758261590c565b604082019050919050565b600061498d602683615129565b91506149988261595b565b604082019050919050565b60006149b0602c83615129565b91506149bb826159aa565b604082019050919050565b60006149d3602483615129565b91506149de826159f9565b604082019050919050565b60006149f6602483615129565b9150614a0182615a48565b604082019050919050565b6000614a19602683615129565b9150614a2482615a97565b604082019050919050565b6000614a3c602083615129565b9150614a4782615ae6565b602082019050919050565b6000614a5f602c83615129565b9150614a6a82615b0f565b604082019050919050565b6000614a82602683615129565b9150614a8d82615b5e565b604082019050919050565b6000614aa5602483615129565b9150614ab082615bad565b604082019050919050565b6000614ac8602f83615129565b9150614ad382615bfc565b604082019050919050565b6000614aeb602d83615129565b9150614af682615c4b565b604082019050919050565b6000614b0e601e83615129565b9150614b1982615c9a565b602082019050919050565b614b2d8161528d565b82525050565b614b3c81615297565b82525050565b6000602082019050614b576000830184614660565b92915050565b6000604082019050614b726000830185614660565b614b7f6020830184614660565b9392505050565b6000604082019050614b9b6000830185614660565b614ba86020830184614b24565b9392505050565b6000602082019050614bc4600083018461466f565b92915050565b60006020820190508181036000830152614be38161467e565b9050919050565b60006020820190508181036000830152614c03816146a1565b9050919050565b60006020820190508181036000830152614c23816146c4565b9050919050565b60006020820190508181036000830152614c43816146e7565b9050919050565b60006020820190508181036000830152614c638161470a565b9050919050565b60006020820190508181036000830152614c838161472d565b9050919050565b60006020820190508181036000830152614ca381614750565b9050919050565b60006020820190508181036000830152614cc381614773565b9050919050565b60006020820190508181036000830152614ce381614796565b9050919050565b60006020820190508181036000830152614d03816147b9565b9050919050565b60006020820190508181036000830152614d23816147dc565b9050919050565b60006020820190508181036000830152614d43816147ff565b9050919050565b60006020820190508181036000830152614d6381614822565b9050919050565b60006020820190508181036000830152614d8381614845565b9050919050565b60006020820190508181036000830152614da381614868565b9050919050565b60006020820190508181036000830152614dc38161488b565b9050919050565b60006020820190508181036000830152614de3816148ae565b9050919050565b60006020820190508181036000830152614e03816148d1565b9050919050565b60006020820190508181036000830152614e23816148f4565b9050919050565b60006020820190508181036000830152614e4381614917565b9050919050565b60006020820190508181036000830152614e638161493a565b9050919050565b60006020820190508181036000830152614e838161495d565b9050919050565b60006020820190508181036000830152614ea381614980565b9050919050565b60006020820190508181036000830152614ec3816149a3565b9050919050565b60006020820190508181036000830152614ee3816149c6565b9050919050565b60006020820190508181036000830152614f03816149e9565b9050919050565b60006020820190508181036000830152614f2381614a0c565b9050919050565b60006020820190508181036000830152614f4381614a2f565b9050919050565b60006020820190508181036000830152614f6381614a52565b9050919050565b60006020820190508181036000830152614f8381614a75565b9050919050565b60006020820190508181036000830152614fa381614a98565b9050919050565b60006020820190508181036000830152614fc381614abb565b9050919050565b60006020820190508181036000830152614fe381614ade565b9050919050565b6000602082019050818103600083015261500381614b01565b9050919050565b600060208201905061501f6000830184614b24565b92915050565b600060408201905061503a6000830185614b24565b6150476020830184614660565b9392505050565b60006060820190506150636000830186614b24565b6150706020830185614660565b61507d6040830184614b24565b949350505050565b600060408201905061509a6000830185614b24565b6150a76020830184614b24565b9392505050565b60006060820190506150c36000830186614b24565b6150d06020830185614b24565b6150dd6040830184614b24565b949350505050565b60006040820190506150fa6000830185614b24565b6151076020830184614b33565b9392505050565b60006020820190506151236000830184614b33565b92915050565b600082825260208201905092915050565b60006151458261528d565b91506151508361528d565b9250827fffffffffffffffffffffffffffffffffffffffffffffffffffffffffffffffff03821115615185576151846152cb565b5b828201905092915050565b600061519b8261528d565b91506151a68361528d565b9250826151b6576151b56152fa565b5b828204905092915050565b60006151cc8261528d565b91506151d78361528d565b9250817fffffffffffffffffffffffffffffffffffffffffffffffffffffffffffffffff04831182151516156152105761520f6152cb565b5b828202905092915050565b60006152268261528d565b91506152318361528d565b925082821015615244576152436152cb565b5b828203905092915050565b600061525a8261526d565b9050919050565b60008115159050919050565b600073ffffffffffffffffffffffffffffffffffffffff82169050919050565b6000819050919050565b600063ffffffff82169050919050565b60006152b2826152b9565b9050919050565b60006152c48261526d565b9050919050565b7f4e487b7100000000000000000000000000000000000000000000000000000000600052601160045260246000fd5b7f4e487b7100000000000000000000000000000000000000000000000000000000600052601260045260246000fd5b7f4d696e6572733a3a616363657074534d3a2070726f706f73616c20657461206e60008201527f6f74207965742070617373656400000000000000000000000000000000000000602082015250565b7f4d696e6572733a3a616363657074504c3a2070726f706f73616c20657461206e60008201527f6f74207965742070617373656400000000000000000000000000000000000000602082015250565b7f4d696e6572733a3a6163636570744275726e3a2070726f706f73616c2065746160008201527f206e6f7420796574207061737365640000000000000000000000000000000000602082015250565b7f4d696e6572733a3a616363657074534d3a206e6f206163746976652070726f7060008201527f6f73616c00000000000000000000000000000000000000000000000000000000602082015250565b7f4d696e6572733a3a63616e63656c57616974696e67506572696f643a206e6f2060008201527f6163746976652070726f706f73616c0000000000000000000000000000000000602082015250565b7f4d696e6572733a3a63616e63656c4d696e743a206e6f2061637469766520707260008201527f6f706f73616c0000000000000000000000000000000000000000000000000000602082015250565b7f4d696e6572733a3a6163636570744d433a20756e7375636365737366756c0000600082015250565b7f4d696e6572733a3a6163636570744d696e743a206e6f2061637469766520707260008201527f6f706f73616c0000000000000000000000000000000000000000000000000000602082015250565b7f4d696e6572733a3a70726f706f73654d696e743a20616d6f756e74206578636560008201527f656473206d696e74206361700000000000000000000000000000000000000000602082015250565b7f4d696e6572733a3a70726f706f73654275726e3a2063616e6e6f74207472616e60008201527f736665722066726f6d20746865207a65726f2061646472657373000000000000602082015250565b7f4d696e6572733a3a70726f706f73654275726e3a20737570706c794d616e616760008201527f657220617070726f76616c203c20616d6f756e74000000000000000000000000602082015250565b7f4d696e6572733a3a616363657074534d3a20756e7375636365737366756c0000600082015250565b7f4d696e6572733a3a616363657074504c3a206e6f206163746976652070726f7060008201527f6f73616c00000000000000000000000000000000000000000000000000000000602082015250565b7f43726f776e3a3a6f6e6c795468654b696e673a206e6f7420746865206b696e67600082015250565b7f4d696e6572733a3a63616e63656c534d3a206e6f206163746976652070726f7060008201527f6f73616c00000000000000000000000000000000000000000000000000000000602082015250565b7f4d696e6572733a3a61636365707457503a2070726f706f73616c20657461206e60008201527f6f74207965742070617373656400000000000000000000000000000000000000602082015250565b7f4d696e6572733a3a63616e63656c4d433a206e6f206163746976652070726f7060008201527f6f73616c00000000000000000000000000000000000000000000000000000000602082015250565b7f4d696e6572733a3a70726f706f7365504c3a206c656e677468206d757374206260008201527f65203e3d206d696e696d756d0000000000000000000000000000000000000000602082015250565b7f4d696e6572733a3a6163636570744275726e3a20756e7375636365737366756c600082015250565b7f4d696e6572733a3a6163636570744b696e673a206e6f2061637469766520707260008201527f6f706f73616c0000000000000000000000000000000000000000000000000000602082015250565b7f4d696e6572733a3a70726f706f73654d696e743a2063616e6e6f74207472616e60008201527f7366657220746f20746865207a65726f20616464726573730000000000000000602082015250565b7f4d696e6572733a3a6163636570744b696e673a2070726f706f73616c2065746160008201527f206e6f7420796574207061737365640000000000000000000000000000000000602082015250565b7f4d696e6572733a3a63616e63656c4275726e3a206e6f2061637469766520707260008201527f6f706f73616c0000000000000000000000000000000000000000000000000000602082015250565b7f4d696e6572733a3a70726f706f73654275726e3a206275726e696e67206e6f7460008201527f20616c6c6f776564207965740000000000000000000000000000000000000000602082015250565b7f4d696e6572733a3a61636365707457503a206e6f206163746976652070726f7060008201527f6f73616c00000000000000000000000000000000000000000000000000000000602082015250565b7f4d696e6572733a3a6163636570744d433a206e6f206163746976652070726f7060008201527f6f73616c00000000000000000000000000000000000000000000000000000000602082015250565b7f4d696e6572733a3a6163636570744275726e3a206e6f2061637469766520707260008201527f6f706f73616c0000000000000000000000000000000000000000000000000000602082015250565b7f4d696e6572733a3a6163636570744d696e743a20756e7375636365737366756c600082015250565b7f4d696e6572733a3a70726f706f73654d696e743a206d696e74696e67206e6f7460008201527f20616c6c6f776564207965740000000000000000000000000000000000000000602082015250565b7f4d696e6572733a3a63616e63656c4b696e673a206e6f2061637469766520707260008201527f6f706f73616c0000000000000000000000000000000000000000000000000000602082015250565b7f4d696e6572733a3a63616e63656c504c3a206e6f206163746976652070726f7060008201527f6f73616c00000000000000000000000000000000000000000000000000000000602082015250565b7f4d696e6572733a3a6163636570744d696e743a2070726f706f73616c2065746160008201527f206e6f7420796574207061737365640000000000000000000000000000000000602082015250565b7f4d696e6572733a3a6163636570744d433a2070726f706f73616c20657461206e60008201527f6f74207965742070617373656400000000000000000000000000000000000000602082015250565b7f4d696e6572733a3a61636365707457503a20756e7375636365737366756c0000600082015250565b615ccc8161524f565b8114615cd757600080fd5b50565b615ce381615261565b8114615cee57600080fd5b50565b615cfa8161528d565b8114615d0557600080fd5b50565b615d1181615297565b8114615d1c57600080fd5b5056fea2646970667358221220d68eba5a1b5ea39e4636009ecf46427ca6fdeb4d40b6c3b3ebf1eb95f3511f8d64736f6c63430008020033",
  "devdoc": {
    "details": "Collective responsible for enacting decisions related to Crown governance token supply",
    "kind": "dev",
    "methods": {
      "constructor": {
        "params": {
          "_king": "The king account for this contract",
          "_token": "The address for the token"
        }
      },
      "proposeBurn(address,uint256)": {
        "params": {
          "amount": "The number of tokens to be burned",
          "src": "The address of the account that will burn tokens"
        }
      },
      "proposeKing(address)": {
        "params": {
          "newKing": "The address of the new king"
        }
      },
      "proposeMiners(address)": {
        "params": {
          "newMiners": "new supply manager address"
        }
      },
      "proposeMint(address,uint256)": {
        "params": {
          "amount": "The number of tokens to be minted",
          "dst": "The address of the destination account"
        }
      },
      "proposeMintCap(uint32)": {
        "params": {
          "newCap": "The new mint cap in bips (10,000 bips = 1% of totalSupply)"
        }
      },
      "proposeNewProposalLength(uint32)": {
        "params": {
          "newLength": "new proposal length"
        }
      },
      "proposeSupplyChangeWaitingPeriod(uint32)": {
        "params": {
          "newPeriod": "new waiting period"
        }
      }
    },
    "title": "Miners (prev. SupplyManager)",
    "version": 1
  },
  "userdoc": {
    "events": {
      "BurnAccepted(uint256,address,uint256,uint256)": {
        "notice": "An event that's emitted when a new burn is accepted"
      },
      "BurnCanceled(uint256,address)": {
        "notice": "An event that's emitted when a burn proposal is canceled"
      },
      "BurnProposed(uint256,address,uint256,uint256,uint256)": {
        "notice": "An event that's emitted when a new burn is proposed"
      },
      "KingAccepted(address,address)": {
        "notice": "An event that's emitted when a new king is accepted"
      },
      "KingCanceled(address)": {
        "notice": "An event that's emitted when an king proposal is canceled"
      },
      "KingProposed(address,address,uint256)": {
        "notice": "An event that's emitted when a new king is proposed"
      },
      "MinersAccepted(address,address)": {
        "notice": "An event that's emitted when a new supply manager is accepted"
      },
      "MinersCanceled(address)": {
        "notice": "An event that's emitted when a supply manager proposal is canceled"
      },
      "MinersProposed(address,address,uint256)": {
        "notice": "An event that's emitted when a new supply manager is proposed"
      },
      "MintAccepted(uint256,address,uint256,uint256)": {
        "notice": "An event that's emitted when a new mint is accepted"
      },
      "MintCanceled(uint256,address)": {
        "notice": "An event that's emitted when a mint proposal is canceled"
      },
      "MintCapAccepted(uint32,uint32)": {
        "notice": "An event that's emitted when a new mint cap is accepted"
      },
      "MintCapCanceled(uint32)": {
        "notice": "An event that's emitted when a mint cap proposal is canceled"
      },
      "MintCapProposed(uint32,uint32,uint256)": {
        "notice": "An event that's emitted when a new mint cap is proposed"
      },
      "MintProposed(uint256,address,uint256,uint256,uint256)": {
        "notice": "An event that's emitted when a new mint is proposed"
      },
      "ProposalLengthAccepted(uint32,uint32)": {
        "notice": "An event that's emitted when a new proposal length is accepted"
      },
      "ProposalLengthCanceled(uint32)": {
        "notice": "An event that's emitted when a proposal length proposal is canceled"
      },
      "ProposalLengthProposed(uint32,uint32,uint256)": {
        "notice": "An event that's emitted when a new proposal length is proposed"
      },
      "WaitingPeriodAccepted(uint32,uint32)": {
        "notice": "An event that's emitted when a new waiting period is accepted"
      },
      "WaitingPeriodCanceled(uint32)": {
        "notice": "An event that's emitted when a waiting period proposal is canceled"
      },
      "WaitingPeriodProposed(uint32,uint32,uint256)": {
        "notice": "An event that's emitted when a new waiting period is proposed"
      }
    },
    "kind": "user",
    "methods": {
      "acceptBurn()": {
        "notice": "Accept proposed token burn"
      },
      "acceptKing()": {
        "notice": "Accept proposed king"
      },
      "acceptMiners()": {
        "notice": "Accept change to the supplyManager address"
      },
      "acceptMint()": {
        "notice": "Accept proposed token mint"
      },
      "acceptMintCap()": {
        "notice": "Accept change to the maximum amount of tokens that can be minted at once"
      },
      "acceptProposalLength()": {
        "notice": "Accept change to the proposal length"
      },
      "acceptSupplyChangeWaitingPeriod()": {
        "notice": "Accept change to the supply change waiting period"
      },
      "cancelBurn()": {
        "notice": "Cancel proposed token burn"
      },
      "cancelKing()": {
        "notice": "Cancel proposed king change"
      },
      "cancelMiners()": {
        "notice": "Cancel proposed supply manager update"
      },
      "cancelMint()": {
        "notice": "Cancel proposed token mint"
      },
      "cancelMintCap()": {
        "notice": "Cancel proposed mint cap"
      },
      "cancelProposalLength()": {
        "notice": "Cancel proposed update to proposal length"
      },
      "cancelWaitingPeriod()": {
        "notice": "Cancel proposed waiting period"
      },
      "changeAllowedAfter()": {
        "notice": "The timestamp after which a change may occur"
      },
      "constructor": {
        "notice": "Construct a new supply manager"
      },
      "king()": {
        "notice": "Address which may make changes the token supply by calling provided functions"
      },
      "pendingBurn()": {
        "notice": "Current pending burn proposal"
      },
      "pendingKing()": {
        "notice": "Current pending king proposal"
      },
      "pendingMiners()": {
        "notice": "Current pending supply manager proposal"
      },
      "pendingMint()": {
        "notice": "Current pending mint proposal"
      },
      "pendingMintCap()": {
        "notice": "Current pending mint cap proposal"
      },
      "pendingProposalLength()": {
        "notice": "Current pending proposal length proposal"
      },
      "pendingWaitingPeriod()": {
        "notice": "Current pending waiting period proposal"
      },
      "proposalLength()": {
        "notice": "The current time between proposal and acceptance"
      },
      "proposalLengthMinimum()": {
        "notice": "The minimum time between proposal and acceptance"
      },
      "proposeBurn(address,uint256)": {
        "notice": "Propose a new token burn"
      },
      "proposeKing(address)": {
        "notice": "Propose a new king"
      },
      "proposeMiners(address)": {
        "notice": "Propose change to the supplyManager address"
      },
      "proposeMint(address,uint256)": {
        "notice": "Propose a new token mint"
      },
      "proposeMintCap(uint32)": {
        "notice": "Propose change to the maximum amount of tokens that can be minted at once"
      },
      "proposeNewProposalLength(uint32)": {
        "notice": "Propose change to the proposal length"
      },
      "proposeSupplyChangeWaitingPeriod(uint32)": {
        "notice": "Propose change to the supply change waiting period"
      },
      "token()": {
        "notice": "Crown Governance token"
      }
    },
    "notice": "Decisions are made via a timelocked propose/accept schemeInitial proposal length (timelock) is 30 days",
    "version": 1
  },
  "storageLayout": {
    "storage": [
      {
        "astId": 6293,
        "contract": "contracts/governance/Miners.sol:Miners",
        "label": "token",
        "offset": 0,
        "slot": "0",
        "type": "t_contract(ICrownGovernanceToken)10584"
      },
      {
        "astId": 6296,
        "contract": "contracts/governance/Miners.sol:Miners",
        "label": "king",
        "offset": 0,
        "slot": "1",
        "type": "t_address"
      },
      {
        "astId": 6299,
        "contract": "contracts/governance/Miners.sol:Miners",
        "label": "changeAllowedAfter",
        "offset": 0,
        "slot": "2",
        "type": "t_uint256"
      },
      {
        "astId": 6305,
        "contract": "contracts/governance/Miners.sol:Miners",
        "label": "proposalLength",
        "offset": 0,
        "slot": "3",
        "type": "t_uint32"
      },
      {
        "astId": 6311,
        "contract": "contracts/governance/Miners.sol:Miners",
        "label": "proposalLengthMinimum",
        "offset": 4,
        "slot": "3",
        "type": "t_uint32"
      },
      {
        "astId": 6354,
        "contract": "contracts/governance/Miners.sol:Miners",
        "label": "pendingKing",
        "offset": 0,
        "slot": "4",
        "type": "t_struct(RoyalDecree)6316_storage"
      },
      {
        "astId": 6358,
        "contract": "contracts/governance/Miners.sol:Miners",
        "label": "pendingMint",
        "offset": 0,
        "slot": "6",
        "type": "t_struct(MintProposal)6323_storage"
      },
      {
        "astId": 6362,
        "contract": "contracts/governance/Miners.sol:Miners",
        "label": "pendingBurn",
        "offset": 0,
        "slot": "9",
        "type": "t_struct(BurnProposal)6330_storage"
      },
      {
        "astId": 6366,
        "contract": "contracts/governance/Miners.sol:Miners",
        "label": "pendingMintCap",
        "offset": 0,
        "slot": "12",
        "type": "t_struct(MintCapProposal)6335_storage"
      },
      {
        "astId": 6370,
        "contract": "contracts/governance/Miners.sol:Miners",
        "label": "pendingWaitingPeriod",
        "offset": 0,
        "slot": "14",
        "type": "t_struct(WaitingPeriodProposal)6340_storage"
      },
      {
        "astId": 6374,
        "contract": "contracts/governance/Miners.sol:Miners",
        "label": "pendingMiners",
        "offset": 0,
        "slot": "16",
        "type": "t_struct(MinersProposal)6345_storage"
      },
      {
        "astId": 6378,
        "contract": "contracts/governance/Miners.sol:Miners",
        "label": "pendingProposalLength",
        "offset": 0,
        "slot": "18",
        "type": "t_struct(ProposalLengthProposal)6350_storage"
      }
    ],
    "types": {
      "t_address": {
        "encoding": "inplace",
        "label": "address",
        "numberOfBytes": "20"
      },
      "t_contract(ICrownGovernanceToken)10584": {
        "encoding": "inplace",
        "label": "contract ICrownGovernanceToken",
        "numberOfBytes": "20"
      },
      "t_struct(BurnProposal)6330_storage": {
        "encoding": "inplace",
        "label": "struct Miners.BurnProposal",
        "members": [
          {
            "astId": 6325,
            "contract": "contracts/governance/Miners.sol:Miners",
            "label": "eta",
            "offset": 0,
            "slot": "0",
            "type": "t_uint256"
          },
          {
            "astId": 6327,
            "contract": "contracts/governance/Miners.sol:Miners",
            "label": "source",
            "offset": 0,
            "slot": "1",
            "type": "t_address"
          },
          {
            "astId": 6329,
            "contract": "contracts/governance/Miners.sol:Miners",
            "label": "amount",
            "offset": 0,
            "slot": "2",
            "type": "t_uint256"
          }
        ],
        "numberOfBytes": "96"
      },
      "t_struct(MinersProposal)6345_storage": {
        "encoding": "inplace",
        "label": "struct Miners.MinersProposal",
        "members": [
          {
            "astId": 6342,
            "contract": "contracts/governance/Miners.sol:Miners",
            "label": "eta",
            "offset": 0,
            "slot": "0",
            "type": "t_uint256"
          },
          {
            "astId": 6344,
            "contract": "contracts/governance/Miners.sol:Miners",
            "label": "newMiners",
            "offset": 0,
            "slot": "1",
            "type": "t_address"
          }
        ],
        "numberOfBytes": "64"
      },
      "t_struct(MintCapProposal)6335_storage": {
        "encoding": "inplace",
        "label": "struct Miners.MintCapProposal",
        "members": [
          {
            "astId": 6332,
            "contract": "contracts/governance/Miners.sol:Miners",
            "label": "eta",
            "offset": 0,
            "slot": "0",
            "type": "t_uint256"
          },
          {
            "astId": 6334,
            "contract": "contracts/governance/Miners.sol:Miners",
            "label": "newCap",
            "offset": 0,
            "slot": "1",
            "type": "t_uint32"
          }
        ],
        "numberOfBytes": "64"
      },
      "t_struct(MintProposal)6323_storage": {
        "encoding": "inplace",
        "label": "struct Miners.MintProposal",
        "members": [
          {
            "astId": 6318,
            "contract": "contracts/governance/Miners.sol:Miners",
            "label": "eta",
            "offset": 0,
            "slot": "0",
            "type": "t_uint256"
          },
          {
            "astId": 6320,
            "contract": "contracts/governance/Miners.sol:Miners",
            "label": "destination",
            "offset": 0,
            "slot": "1",
            "type": "t_address"
          },
          {
            "astId": 6322,
            "contract": "contracts/governance/Miners.sol:Miners",
            "label": "amount",
            "offset": 0,
            "slot": "2",
            "type": "t_uint256"
          }
        ],
        "numberOfBytes": "96"
      },
      "t_struct(ProposalLengthProposal)6350_storage": {
        "encoding": "inplace",
        "label": "struct Miners.ProposalLengthProposal",
        "members": [
          {
            "astId": 6347,
            "contract": "contracts/governance/Miners.sol:Miners",
            "label": "eta",
            "offset": 0,
            "slot": "0",
            "type": "t_uint256"
          },
          {
            "astId": 6349,
            "contract": "contracts/governance/Miners.sol:Miners",
            "label": "newLength",
            "offset": 0,
            "slot": "1",
            "type": "t_uint32"
          }
        ],
        "numberOfBytes": "64"
      },
      "t_struct(RoyalDecree)6316_storage": {
        "encoding": "inplace",
        "label": "struct Miners.RoyalDecree",
        "members": [
          {
            "astId": 6313,
            "contract": "contracts/governance/Miners.sol:Miners",
            "label": "eta",
            "offset": 0,
            "slot": "0",
            "type": "t_uint256"
          },
          {
            "astId": 6315,
            "contract": "contracts/governance/Miners.sol:Miners",
            "label": "newKing",
            "offset": 0,
            "slot": "1",
            "type": "t_address"
          }
        ],
        "numberOfBytes": "64"
      },
      "t_struct(WaitingPeriodProposal)6340_storage": {
        "encoding": "inplace",
        "label": "struct Miners.WaitingPeriodProposal",
        "members": [
          {
            "astId": 6337,
            "contract": "contracts/governance/Miners.sol:Miners",
            "label": "eta",
            "offset": 0,
            "slot": "0",
            "type": "t_uint256"
          },
          {
            "astId": 6339,
            "contract": "contracts/governance/Miners.sol:Miners",
            "label": "newPeriod",
            "offset": 0,
            "slot": "1",
            "type": "t_uint32"
          }
        ],
        "numberOfBytes": "64"
      },
      "t_uint256": {
        "encoding": "inplace",
        "label": "uint256",
        "numberOfBytes": "32"
      },
      "t_uint32": {
        "encoding": "inplace",
        "label": "uint32",
        "numberOfBytes": "4"
      }
    }
  }
}