{
  "address": "0xEa73Be3B294804Db0e6e2636968696c6b8f21541",
  "abi": [
    {
      "inputs": [
        {
          "internalType": "address",
          "name": "_token",
          "type": "address"
        }
      ],
      "stateMutability": "nonpayable",
      "type": "constructor"
    },
    {
      "anonymous": false,
      "inputs": [
        {
          "indexed": true,
          "internalType": "address",
          "name": "oldOwner",
          "type": "address"
        },
        {
          "indexed": true,
          "internalType": "address",
          "name": "newChurch",
          "type": "address"
        }
      ],
      "name": "ApostolicSuccession",
      "type": "event"
    },
    {
      "anonymous": false,
      "inputs": [
        {
          "indexed": true,
          "internalType": "address",
          "name": "oldContract",
          "type": "address"
        },
        {
          "indexed": true,
          "internalType": "address",
          "name": "newContract",
          "type": "address"
        }
      ],
      "name": "ChangedVotingPower",
      "type": "event"
    },
    {
      "anonymous": false,
      "inputs": [
        {
          "indexed": true,
          "internalType": "address",
          "name": "recipient",
          "type": "address"
        },
        {
          "indexed": true,
          "internalType": "uint256",
          "name": "amount",
          "type": "uint256"
        },
        {
          "indexed": false,
          "internalType": "uint256",
          "name": "startTime",
          "type": "uint256"
        },
        {
          "indexed": false,
          "internalType": "uint16",
          "name": "vestingDurationInDays",
          "type": "uint16"
        },
        {
          "indexed": false,
          "internalType": "uint16",
          "name": "vestingCliffInDays",
          "type": "uint16"
        }
      ],
      "name": "GrantAdded",
      "type": "event"
    },
    {
      "anonymous": false,
      "inputs": [
        {
          "indexed": true,
          "internalType": "address",
          "name": "recipient",
          "type": "address"
        },
        {
          "indexed": true,
          "internalType": "uint256",
          "name": "amountClaimed",
          "type": "uint256"
        }
      ],
      "name": "GrantTokensClaimed",
      "type": "event"
    },
    {
      "inputs": [
        {
          "internalType": "address",
          "name": "recipient",
          "type": "address"
        },
        {
          "internalType": "uint256",
          "name": "startTime",
          "type": "uint256"
        },
        {
          "internalType": "uint256",
          "name": "amount",
          "type": "uint256"
        },
        {
          "internalType": "uint16",
          "name": "vestingDurationInDays",
          "type": "uint16"
        },
        {
          "internalType": "uint16",
          "name": "vestingCliffInDays",
          "type": "uint16"
        }
      ],
      "name": "addTokenGrant",
      "outputs": [],
      "stateMutability": "nonpayable",
      "type": "function"
    },
    {
      "inputs": [
        {
          "internalType": "address",
          "name": "recipient",
          "type": "address"
        }
      ],
      "name": "calculateGrantClaim",
      "outputs": [
        {
          "internalType": "uint256",
          "name": "",
          "type": "uint256"
        }
      ],
      "stateMutability": "view",
      "type": "function"
    },
    {
      "inputs": [
        {
          "internalType": "address",
          "name": "recipient",
          "type": "address"
        }
      ],
      "name": "claimVestedTokens",
      "outputs": [],
      "stateMutability": "nonpayable",
      "type": "function"
    },
    {
      "inputs": [
        {
          "internalType": "address",
          "name": "recipient",
          "type": "address"
        }
      ],
      "name": "claimedBalance",
      "outputs": [
        {
          "internalType": "uint256",
          "name": "",
          "type": "uint256"
        }
      ],
      "stateMutability": "view",
      "type": "function"
    },
    {
      "inputs": [],
      "name": "clergy",
      "outputs": [
        {
          "internalType": "address",
          "name": "",
          "type": "address"
        }
      ],
      "stateMutability": "view",
      "type": "function"
    },
    {
      "inputs": [
        {
          "internalType": "address",
          "name": "newChurch",
          "type": "address"
        }
      ],
      "name": "conversion",
      "outputs": [],
      "stateMutability": "nonpayable",
      "type": "function"
    },
    {
      "inputs": [
        {
          "internalType": "address",
          "name": "recipient",
          "type": "address"
        }
      ],
      "name": "getTokenGrant",
      "outputs": [
        {
          "components": [
            {
              "internalType": "uint256",
              "name": "startTime",
              "type": "uint256"
            },
            {
              "internalType": "uint256",
              "name": "amount",
              "type": "uint256"
            },
            {
              "internalType": "uint16",
              "name": "vestingDuration",
              "type": "uint16"
            },
            {
              "internalType": "uint16",
              "name": "vestingCliff",
              "type": "uint16"
            },
            {
              "internalType": "uint256",
              "name": "totalClaimed",
              "type": "uint256"
            }
          ],
          "internalType": "struct Monastery.Grant",
          "name": "",
          "type": "tuple"
        }
      ],
      "stateMutability": "view",
      "type": "function"
    },
    {
      "inputs": [
        {
          "internalType": "address",
          "name": "newContract",
          "type": "address"
        }
      ],
      "name": "setVotingPowerContract",
      "outputs": [],
      "stateMutability": "nonpayable",
      "type": "function"
    },
    {
      "inputs": [],
      "name": "token",
      "outputs": [
        {
          "internalType": "contract ICrownGovernanceToken",
          "name": "",
          "type": "address"
        }
      ],
      "stateMutability": "view",
      "type": "function"
    },
    {
      "inputs": [
        {
          "internalType": "address",
          "name": "",
          "type": "address"
        }
      ],
      "name": "tokenGrants",
      "outputs": [
        {
          "internalType": "uint256",
          "name": "startTime",
          "type": "uint256"
        },
        {
          "internalType": "uint256",
          "name": "amount",
          "type": "uint256"
        },
        {
          "internalType": "uint16",
          "name": "vestingDuration",
          "type": "uint16"
        },
        {
          "internalType": "uint16",
          "name": "vestingCliff",
          "type": "uint16"
        },
        {
          "internalType": "uint256",
          "name": "totalClaimed",
          "type": "uint256"
        }
      ],
      "stateMutability": "view",
      "type": "function"
    },
    {
      "inputs": [
        {
          "internalType": "address",
          "name": "recipient",
          "type": "address"
        }
      ],
      "name": "tokensVestedPerDay",
      "outputs": [
        {
          "internalType": "uint256",
          "name": "",
          "type": "uint256"
        }
      ],
      "stateMutability": "view",
      "type": "function"
    },
    {
      "inputs": [
        {
          "internalType": "address",
          "name": "recipient",
          "type": "address"
        }
      ],
      "name": "vestedBalance",
      "outputs": [
        {
          "internalType": "uint256",
          "name": "",
          "type": "uint256"
        }
      ],
      "stateMutability": "view",
      "type": "function"
    },
    {
      "inputs": [],
      "name": "votingPower",
      "outputs": [
        {
          "internalType": "contract IVotingPower",
          "name": "",
          "type": "address"
        }
      ],
      "stateMutability": "view",
      "type": "function"
    }
  ],
  "transactionHash": "0xe3ba3eb60752eb82251181d3ce6520233f3631a0a41fda74d2cf2bca60af2def",
  "args": [
    "0x1aBB9e038819c9Cc6BdB34848b0De193D7c3D00a"
  ],
  "solcInputHash": "d86583ef9eed485af7fc3875009d17ed",
  "bytecode": "0x60806040523480156200001157600080fd5b50604051620026d8380380620026d8833981810160405281019062000037919062000149565b600073ffffffffffffffffffffffffffffffffffffffff168173ffffffffffffffffffffffffffffffffffffffff161415620000aa576040517f08c379a0000000000000000000000000000000000000000000000000000000008152600401620000a1906200019c565b60405180910390fd5b806000806101000a81548173ffffffffffffffffffffffffffffffffffffffff021916908373ffffffffffffffffffffffffffffffffffffffff16021790555033600360006101000a81548173ffffffffffffffffffffffffffffffffffffffff021916908373ffffffffffffffffffffffffffffffffffffffff160217905550506200026c565b600081519050620001438162000252565b92915050565b6000602082840312156200015c57600080fd5b60006200016c8482850162000132565b91505092915050565b600062000184603383620001be565b9150620001918262000203565b604082019050919050565b60006020820190508181036000830152620001b78162000175565b9050919050565b600082825260208201905092915050565b6000620001dc82620001e3565b9050919050565b600073ffffffffffffffffffffffffffffffffffffffff82169050919050565b7f4d6f6e6173746572793a3a636f6e7374727563746f723a206d7573742062652060008201527f76616c696420746f6b656e206164647265737300000000000000000000000000602082015250565b6200025d81620001cf565b81146200026957600080fd5b50565b61245c806200027c6000396000f3fe608060405234801561001057600080fd5b50600436106100df5760003560e01c806398f3b12d1161008c578063e04c64d211610066578063e04c64d21461024c578063f77bbada14610268578063fc0c546a14610284578063fd75b8d4146102a2576100df565b806398f3b12d146101de578063b81a4d8f146101fa578063cff5df401461022e576100df565b806377174f85116100bd57806377174f85146101605780639114557e1461017e5780639886c2a5146101ae576100df565b8063376d3b8f146100e45780635ca2fc53146101145780636087349c14610130575b600080fd5b6100fe60048036038101906100f99190611678565b6102d2565b60405161010b9190611c96565b60405180910390f35b61012e600480360381019061012991906116ca565b610389565b005b61014a60048036038101906101459190611678565b61099d565b6040516101579190611cb1565b60405180910390f35b610168610a0f565b6040516101759190611abb565b60405180910390f35b61019860048036038101906101939190611678565b610a35565b6040516101a59190611cb1565b60405180910390f35b6101c860048036038101906101c39190611678565b610b68565b6040516101d59190611cb1565b60405180910390f35b6101f860048036038101906101f39190611678565b610bb9565b005b610214600480360381019061020f9190611678565b610e28565b604051610225959493929190611d03565b60405180910390f35b610236610e7a565b6040516102439190611a25565b60405180910390f35b61026660048036038101906102619190611678565b610ea0565b005b610282600480360381019061027d9190611678565b611201565b005b61028c611457565b6040516102999190611aa0565b60405180910390f35b6102bc60048036038101906102b79190611678565b61147b565b6040516102c99190611cb1565b60405180910390f35b6102da6115d8565b600260008373ffffffffffffffffffffffffffffffffffffffff1673ffffffffffffffffffffffffffffffffffffffff1681526020019081526020016000206040518060a001604052908160008201548152602001600182015481526020016002820160009054906101000a900461ffff1661ffff1661ffff1681526020016002820160029054906101000a900461ffff1661ffff1661ffff1681526020016003820154815250509050919050565b600360009054906101000a900473ffffffffffffffffffffffffffffffffffffffff1673ffffffffffffffffffffffffffffffffffffffff163373ffffffffffffffffffffffffffffffffffffffff1614610419576040517f08c379a000000000000000000000000000000000000000000000000000000000815260040161041090611bb6565b60405180910390fd5b600073ffffffffffffffffffffffffffffffffffffffff16600160009054906101000a900473ffffffffffffffffffffffffffffffffffffffff1673ffffffffffffffffffffffffffffffffffffffff1614156104ab576040517f08c379a00000000000000000000000000000000000000000000000000000000081526004016104a290611bd6565b60405180910390fd5b61016d61ffff168161ffff1611156104f8576040517f08c379a00000000000000000000000000000000000000000000000000000000081526004016104ef90611b76565b60405180910390fd5b60008261ffff161161053f576040517f08c379a000000000000000000000000000000000000000000000000000000000815260040161053690611c36565b60405180910390fd5b610cd561ffff168261ffff16111561058c576040517f08c379a000000000000000000000000000000000000000000000000000000000815260040161058390611b36565b60405180910390fd5b8061ffff168261ffff1610156105d7576040517f08c379a00000000000000000000000000000000000000000000000000000000081526004016105ce90611c16565b60405180910390fd5b6000600260008773ffffffffffffffffffffffffffffffffffffffff1673ffffffffffffffffffffffffffffffffffffffff168152602001908152602001600020600101541461065c576040517f08c379a000000000000000000000000000000000000000000000000000000000815260040161065390611ad6565b60405180910390fd5b60008261ffff168461066e9190611dbd565b9050600081116106b3576040517f08c379a00000000000000000000000000000000000000000000000000000000081526004016106aa90611b56565b60405180910390fd5b60008054906101000a900473ffffffffffffffffffffffffffffffffffffffff1673ffffffffffffffffffffffffffffffffffffffff166323b872dd600360009054906101000a900473ffffffffffffffffffffffffffffffffffffffff1630876040518463ffffffff1660e01b815260040161073293929190611a40565b602060405180830381600087803b15801561074c57600080fd5b505af1158015610760573d6000803e3d6000fd5b505050506040513d601f19601f820116820180604052508101906107849190611741565b6107c3576040517f08c379a00000000000000000000000000000000000000000000000000000000081526004016107ba90611c56565b60405180910390fd5b60008086146107d257856107d4565b425b905060006040518060a001604052808381526020018781526020018661ffff1681526020018561ffff1681526020016000815250905080600260008a73ffffffffffffffffffffffffffffffffffffffff1673ffffffffffffffffffffffffffffffffffffffff168152602001908152602001600020600082015181600001556020820151816001015560408201518160020160006101000a81548161ffff021916908361ffff16021790555060608201518160020160026101000a81548161ffff021916908361ffff16021790555060808201518160030155905050858873ffffffffffffffffffffffffffffffffffffffff167f289b4a3bfb88b0c05450910f26d440c9e13127d17a232782f02184d45606bd538488886040516108fc93929190611ccc565b60405180910390a3600160009054906101000a900473ffffffffffffffffffffffffffffffffffffffff1673ffffffffffffffffffffffffffffffffffffffff16639b92ac4a89886040518363ffffffff1660e01b8152600401610961929190611a77565b600060405180830381600087803b15801561097b57600080fd5b505af115801561098f573d6000803e3d6000fd5b505050505050505050505050565b600080600260008473ffffffffffffffffffffffffffffffffffffffff1673ffffffffffffffffffffffffffffffffffffffff16815260200190815260200160002090508060020160009054906101000a900461ffff1661ffff168160010154610a079190611dbd565b915050919050565b600160009054906101000a900473ffffffffffffffffffffffffffffffffffffffff1681565b600080600260008473ffffffffffffffffffffffffffffffffffffffff1673ffffffffffffffffffffffffffffffffffffffff16815260200190815260200160002090508060000154421015610a8f576000915050610b63565b6000816000015442610aa19190611e48565b905060006201518082610ab49190611dbd565b90508260020160029054906101000a900461ffff1661ffff16811015610ae05760009350505050610b63565b8260020160009054906101000a900461ffff1661ffff168110610b0c5782600101549350505050610b63565b6000620151808460020160009054906101000a900461ffff1661ffff16610b339190611dee565b90506000818560010154610b479190611dbd565b905060008482610b579190611dee565b90508096505050505050505b919050565b600080600260008473ffffffffffffffffffffffffffffffffffffffff1673ffffffffffffffffffffffffffffffffffffffff16815260200190815260200160002090508060030154915050919050565b6000610bc48261147b565b905060008111610c09576040517f08c379a0000000000000000000000000000000000000000000000000000000008152600401610c0090611c76565b60405180910390fd5b600160009054906101000a900473ffffffffffffffffffffffffffffffffffffffff1673ffffffffffffffffffffffffffffffffffffffff16631efaa44283836040518363ffffffff1660e01b8152600401610c66929190611a77565b600060405180830381600087803b158015610c8057600080fd5b505af1158015610c94573d6000803e3d6000fd5b505050506000600260008473ffffffffffffffffffffffffffffffffffffffff1673ffffffffffffffffffffffffffffffffffffffff1681526020019081526020016000209050818160030154610ceb9190611d67565b816003018190555060008054906101000a900473ffffffffffffffffffffffffffffffffffffffff1673ffffffffffffffffffffffffffffffffffffffff1663a9059cbb84846040518363ffffffff1660e01b8152600401610d4e929190611a77565b602060405180830381600087803b158015610d6857600080fd5b505af1158015610d7c573d6000803e3d6000fd5b505050506040513d601f19601f82011682018060405250810190610da09190611741565b610ddf576040517f08c379a0000000000000000000000000000000000000000000000000000000008152600401610dd690611b96565b60405180910390fd5b818373ffffffffffffffffffffffffffffffffffffffff167fc6cbb4aa8681b18644bf64921eea8f2b9f44cbd58d64fc07a110bfccc203829660405160405180910390a3505050565b60026020528060005260406000206000915090508060000154908060010154908060020160009054906101000a900461ffff16908060020160029054906101000a900461ffff16908060030154905085565b600360009054906101000a900473ffffffffffffffffffffffffffffffffffffffff1681565b600360009054906101000a900473ffffffffffffffffffffffffffffffffffffffff1673ffffffffffffffffffffffffffffffffffffffff163373ffffffffffffffffffffffffffffffffffffffff1614610f30576040517f08c379a0000000000000000000000000000000000000000000000000000000008152600401610f2790611bb6565b60405180910390fd5b600073ffffffffffffffffffffffffffffffffffffffff168173ffffffffffffffffffffffffffffffffffffffff1614158015610f9957503073ffffffffffffffffffffffffffffffffffffffff168173ffffffffffffffffffffffffffffffffffffffff1614155b8015610ff1575060008054906101000a900473ffffffffffffffffffffffffffffffffffffffff1673ffffffffffffffffffffffffffffffffffffffff168173ffffffffffffffffffffffffffffffffffffffff1614155b611030576040517f08c379a000000000000000000000000000000000000000000000000000000000815260040161102790611bf6565b60405180910390fd5b60008054906101000a900473ffffffffffffffffffffffffffffffffffffffff1673ffffffffffffffffffffffffffffffffffffffff168173ffffffffffffffffffffffffffffffffffffffff166305268cff6040518163ffffffff1660e01b815260040160206040518083038186803b1580156110ad57600080fd5b505afa1580156110c1573d6000803e3d6000fd5b505050506040513d601f19601f820116820180604052508101906110e591906116a1565b73ffffffffffffffffffffffffffffffffffffffff161461113b576040517f08c379a000000000000000000000000000000000000000000000000000000000815260040161113290611af6565b60405180910390fd5b6000600160009054906101000a900473ffffffffffffffffffffffffffffffffffffffff16905081600160006101000a81548173ffffffffffffffffffffffffffffffffffffffff021916908373ffffffffffffffffffffffffffffffffffffffff1602179055508173ffffffffffffffffffffffffffffffffffffffff168173ffffffffffffffffffffffffffffffffffffffff167fd5ebd1c28f18d0ac07c2bde08a54c730dce59088921d8ca0c1b92bd9f2e8903860405160405180910390a35050565b600360009054906101000a900473ffffffffffffffffffffffffffffffffffffffff1673ffffffffffffffffffffffffffffffffffffffff163373ffffffffffffffffffffffffffffffffffffffff1614611291576040517f08c379a000000000000000000000000000000000000000000000000000000000815260040161128890611bb6565b60405180910390fd5b600073ffffffffffffffffffffffffffffffffffffffff168173ffffffffffffffffffffffffffffffffffffffff16141580156112fa57503073ffffffffffffffffffffffffffffffffffffffff168173ffffffffffffffffffffffffffffffffffffffff1614155b8015611352575060008054906101000a900473ffffffffffffffffffffffffffffffffffffffff1673ffffffffffffffffffffffffffffffffffffffff168173ffffffffffffffffffffffffffffffffffffffff1614155b611391576040517f08c379a000000000000000000000000000000000000000000000000000000000815260040161138890611b16565b60405180910390fd5b6000600360009054906101000a900473ffffffffffffffffffffffffffffffffffffffff16905081600360006101000a81548173ffffffffffffffffffffffffffffffffffffffff021916908373ffffffffffffffffffffffffffffffffffffffff1602179055508173ffffffffffffffffffffffffffffffffffffffff168173ffffffffffffffffffffffffffffffffffffffff167f8c0de6e34b662f136e368cd892a4b29eaaa21e939a7763d8dad8f7a787b6888660405160405180910390a35050565b60008054906101000a900473ffffffffffffffffffffffffffffffffffffffff1681565b600080600260008473ffffffffffffffffffffffffffffffffffffffff1673ffffffffffffffffffffffffffffffffffffffff168152602001908152602001600020905080600001544210156114d55760009150506115d3565b60008160000154426114e79190611e48565b9050600062015180826114fa9190611dbd565b90508260020160029054906101000a900461ffff1661ffff1681101561152657600093505050506115d3565b8260020160009054906101000a900461ffff1661ffff168110611567576000836003015484600101546115599190611e48565b9050809450505050506115d3565b6000620151808460020160009054906101000a900461ffff1661ffff1661158e9190611dee565b905060008185600101546115a29190611dbd565b9050600084826115b29190611dee565b905060008660030154826115c69190611e48565b9050809750505050505050505b919050565b6040518060a001604052806000815260200160008152602001600061ffff168152602001600061ffff168152602001600081525090565b60008135905061161e816123ca565b92915050565b600081519050611633816123ca565b92915050565b600081519050611648816123e1565b92915050565b60008135905061165d816123f8565b92915050565b6000813590506116728161240f565b92915050565b60006020828403121561168a57600080fd5b60006116988482850161160f565b91505092915050565b6000602082840312156116b357600080fd5b60006116c184828501611624565b91505092915050565b600080600080600060a086880312156116e257600080fd5b60006116f08882890161160f565b955050602061170188828901611663565b945050604061171288828901611663565b93505060606117238882890161164e565b92505060806117348882890161164e565b9150509295509295909350565b60006020828403121561175357600080fd5b600061176184828501611639565b91505092915050565b61177381611e7c565b82525050565b61178281611ed2565b82525050565b61179181611ef6565b82525050565b60006117a4603a83611d56565b91506117af82611f78565b604082019050919050565b60006117c7603f83611d56565b91506117d282611fc7565b604082019050919050565b60006117ea602883611d56565b91506117f582612016565b604082019050919050565b600061180d603483611d56565b915061181882612065565b604082019050919050565b6000611830603083611d56565b915061183b826120b4565b604082019050919050565b6000611853603083611d56565b915061185e82612103565b604082019050919050565b6000611876602783611d56565b915061188182612152565b604082019050919050565b6000611899602183611d56565b91506118a4826121a1565b604082019050919050565b60006118bc603983611d56565b91506118c7826121f0565b604082019050919050565b60006118df603583611d56565b91506118ea8261223f565b604082019050919050565b6000611902602a83611d56565b915061190d8261228e565b604082019050919050565b6000611925602e83611d56565b9150611930826122dd565b604082019050919050565b6000611948602983611d56565b91506119538261232c565b604082019050919050565b600061196b602983611d56565b91506119768261237b565b604082019050919050565b60a0820160008201516119976000850182611a07565b5060208201516119aa6020850182611a07565b5060408201516119bd60408501826119e9565b5060608201516119d060608501826119e9565b5060808201516119e36080850182611a07565b50505050565b6119f281611e9a565b82525050565b611a0181611e9a565b82525050565b611a1081611ec8565b82525050565b611a1f81611ec8565b82525050565b6000602082019050611a3a600083018461176a565b92915050565b6000606082019050611a55600083018661176a565b611a62602083018561176a565b611a6f6040830184611a16565b949350505050565b6000604082019050611a8c600083018561176a565b611a996020830184611a16565b9392505050565b6000602082019050611ab56000830184611779565b92915050565b6000602082019050611ad06000830184611788565b92915050565b60006020820190508181036000830152611aef81611797565b9050919050565b60006020820190508181036000830152611b0f816117ba565b9050919050565b60006020820190508181036000830152611b2f816117dd565b9050919050565b60006020820190508181036000830152611b4f81611800565b9050919050565b60006020820190508181036000830152611b6f81611823565b9050919050565b60006020820190508181036000830152611b8f81611846565b9050919050565b60006020820190508181036000830152611baf81611869565b9050919050565b60006020820190508181036000830152611bcf8161188c565b9050919050565b60006020820190508181036000830152611bef816118af565b9050919050565b60006020820190508181036000830152611c0f816118d2565b9050919050565b60006020820190508181036000830152611c2f816118f5565b9050919050565b60006020820190508181036000830152611c4f81611918565b9050919050565b60006020820190508181036000830152611c6f8161193b565b9050919050565b60006020820190508181036000830152611c8f8161195e565b9050919050565b600060a082019050611cab6000830184611981565b92915050565b6000602082019050611cc66000830184611a16565b92915050565b6000606082019050611ce16000830186611a16565b611cee60208301856119f8565b611cfb60408301846119f8565b949350505050565b600060a082019050611d186000830188611a16565b611d256020830187611a16565b611d3260408301866119f8565b611d3f60608301856119f8565b611d4c6080830184611a16565b9695505050505050565b600082825260208201905092915050565b6000611d7282611ec8565b9150611d7d83611ec8565b9250827fffffffffffffffffffffffffffffffffffffffffffffffffffffffffffffffff03821115611db257611db1611f1a565b5b828201905092915050565b6000611dc882611ec8565b9150611dd383611ec8565b925082611de357611de2611f49565b5b828204905092915050565b6000611df982611ec8565b9150611e0483611ec8565b9250817fffffffffffffffffffffffffffffffffffffffffffffffffffffffffffffffff0483118215151615611e3d57611e3c611f1a565b5b828202905092915050565b6000611e5382611ec8565b9150611e5e83611ec8565b925082821015611e7157611e70611f1a565b5b828203905092915050565b6000611e8782611ea8565b9050919050565b60008115159050919050565b600061ffff82169050919050565b600073ffffffffffffffffffffffffffffffffffffffff82169050919050565b6000819050919050565b6000611edd82611ee4565b9050919050565b6000611eef82611ea8565b9050919050565b6000611f0182611f08565b9050919050565b6000611f1382611ea8565b9050919050565b7f4e487b7100000000000000000000000000000000000000000000000000000000600052601160045260246000fd5b7f4e487b7100000000000000000000000000000000000000000000000000000000600052601260045260246000fd5b7f4d6f6e6173746572793a3a616464546f6b656e4772616e743a206772616e742060008201527f616c72656164792065786973747320666f72206163636f756e74000000000000602082015250565b7f4d6f6e6173746572793a3a736574566f74696e67506f776572436f6e7472616360008201527f743a20766f74696e6720706f776572206e6f7420696e697469616c697a656400602082015250565b7f4d6f6e6173746572793a3a636f6e76657273696f6e3a206e6f742076616c696460008201527f2061646472657373000000000000000000000000000000000000000000000000602082015250565b7f4d6f6e6173746572793a3a616464546f6b656e4772616e743a2064757261746960008201527f6f6e206d6f7265207468616e2039207965617273000000000000000000000000602082015250565b7f4d6f6e6173746572793a3a616464546f6b656e4772616e743a20616d6f756e7460008201527f566573746564506572446179203e203000000000000000000000000000000000602082015250565b7f4d6f6e6173746572793a3a616464546f6b656e4772616e743a20636c6966662060008201527f6d6f7265207468616e2031207965617200000000000000000000000000000000602082015250565b7f4d6f6e6173746572793a3a636c61696d5665737465643a207472616e7366657260008201527f206661696c656400000000000000000000000000000000000000000000000000602082015250565b7f4d6f6e6173746572793a3a6f6e6c794368757263683a206e6f7420636c65726760008201527f7900000000000000000000000000000000000000000000000000000000000000602082015250565b7f4d6f6e6173746572793a3a616464546f6b656e4772616e743a2053657420566f60008201527f74696e6720506f77657220636f6e747261637420666972737400000000000000602082015250565b7f4d6f6e6173746572793a3a736574566f74696e67506f776572436f6e7472616360008201527f743a206e6f742076616c696420636f6e74726163740000000000000000000000602082015250565b7f4d6f6e6173746572793a3a616464546f6b656e4772616e743a2064757261746960008201527f6f6e203c20636c69666600000000000000000000000000000000000000000000602082015250565b7f4d6f6e6173746572793a3a616464546f6b656e4772616e743a2064757261746960008201527f6f6e206d757374206265203e2030000000000000000000000000000000000000602082015250565b7f4d6f6e6173746572793a3a616464546f6b656e4772616e743a207472616e736660008201527f6572206661696c65640000000000000000000000000000000000000000000000602082015250565b7f4d6f6e6173746572793a3a636c61696d5665737465643a20616d6f756e74566560008201527f7374656420697320300000000000000000000000000000000000000000000000602082015250565b6123d381611e7c565b81146123de57600080fd5b50565b6123ea81611e8e565b81146123f557600080fd5b50565b61240181611e9a565b811461240c57600080fd5b50565b61241881611ec8565b811461242357600080fd5b5056fea2646970667358221220d0836ba1d2afab5fad991fbf16fcd975fa7e45b24529aa00fea7b34f3b9b90a764736f6c63430008020033",
  "devdoc": {
    "details": "The vesting contract for the initial KING token distribution",
    "kind": "dev",
    "methods": {
      "addTokenGrant(address,uint256,uint256,uint16,uint16)": {
        "params": {
          "amount": "The amount of tokens being granted",
          "recipient": "The address that is receiving the grant",
          "startTime": "The unix timestamp when the grant will start",
          "vestingCliffInDays": "The vesting cliff duration in days",
          "vestingDurationInDays": "The vesting period in days"
        }
      },
      "calculateGrantClaim(address)": {
        "details": "Due to rounding errors once grant duration is reached, returns the entire left grant amountReturns 0 if cliff has not been reached",
        "params": {
          "recipient": "The address that has a grant"
        },
        "returns": {
          "_0": "The amount recipient can claim"
        }
      },
      "claimVestedTokens(address)": {
        "details": "Errors if no tokens have vestedIt is advised recipients check they are entitled to claim via `calculateGrantClaim` before calling this",
        "params": {
          "recipient": "The address that has a grant"
        }
      },
      "claimedBalance(address)": {
        "params": {
          "recipient": "The address that has a grant"
        },
        "returns": {
          "_0": "the number of claimed tokens by `recipient`"
        }
      },
      "constructor": {
        "params": {
          "_token": "Address of KING token"
        }
      },
      "conversion(address)": {
        "params": {
          "newChurch": "New clergy address"
        }
      },
      "getTokenGrant(address)": {
        "params": {
          "recipient": "The address that has a grant"
        },
        "returns": {
          "_0": "the grant"
        }
      },
      "setVotingPowerContract(address)": {
        "params": {
          "newContract": "New voting power contract address"
        }
      },
      "tokensVestedPerDay(address)": {
        "params": {
          "recipient": "The address that has a grant"
        },
        "returns": {
          "_0": "Number of tokens that will vest per day"
        }
      },
      "vestedBalance(address)": {
        "details": "Returns 0 if cliff has not been reached",
        "params": {
          "recipient": "The address that has a grant"
        },
        "returns": {
          "_0": "Total vested balance (claimed + unclaimed)"
        }
      }
    },
    "stateVariables": {
      "MAX_GRANT_CLIFF_DAYS": {
        "details": "Used to limit cliff periods specified in days"
      },
      "MAX_GRANT_VESTING_DAYS": {
        "details": "Used to limit vesting periods specified in days"
      },
      "SECONDS_PER_DAY": {
        "details": "Used to translate vesting periods specified in days to seconds"
      }
    },
    "title": "Monastery (prev. Vesting)",
    "version": 1
  },
  "userdoc": {
    "events": {
      "ApostolicSuccession(address,address)": {
        "notice": "Event emitted when the clergy of the vesting contract is updated"
      },
      "ChangedVotingPower(address,address)": {
        "notice": "Event emitted when the voting power contract referenced by the vesting contract is updated"
      },
      "GrantAdded(address,uint256,uint256,uint16,uint16)": {
        "notice": "Event emitted when a new grant is created"
      },
      "GrantTokensClaimed(address,uint256)": {
        "notice": "Event emitted when tokens are claimed by a recipient from a grant"
      }
    },
    "kind": "user",
    "methods": {
      "addTokenGrant(address,uint256,uint256,uint16,uint16)": {
        "notice": "Add a new token grant"
      },
      "calculateGrantClaim(address)": {
        "notice": "Calculate the vested and unclaimed tokens available for `recipient` to claim"
      },
      "claimVestedTokens(address)": {
        "notice": "Allows a grant recipient to claim their vested tokens"
      },
      "claimedBalance(address)": {
        "notice": "The balance claimed by `recipient`"
      },
      "clergy()": {
        "notice": "Current clergy of this contract"
      },
      "constructor": {
        "notice": "Construct a new Vesting contract"
      },
      "conversion(address)": {
        "notice": "Change clergy of vesting contract"
      },
      "getTokenGrant(address)": {
        "notice": "Get token grant for recipient"
      },
      "setVotingPowerContract(address)": {
        "notice": "Set voting power contract address"
      },
      "token()": {
        "notice": "Crown Governance token"
      },
      "tokenGrants(address)": {
        "notice": "Mapping of recipient address > token grant"
      },
      "tokensVestedPerDay(address)": {
        "notice": "Calculate the number of tokens that will vest per day for the given recipient"
      },
      "vestedBalance(address)": {
        "notice": "Calculate the vested (claimed + unclaimed) tokens for `recipient`"
      },
      "votingPower()": {
        "notice": "Voting power contract"
      }
    },
    "version": 1
  },
  "storageLayout": {
    "storage": [
      {
        "astId": 150,
        "contract": "contracts/governance/Monastery.sol:Monastery",
        "label": "token",
        "offset": 0,
        "slot": "0",
        "type": "t_contract(ICrownGovernanceToken)934"
      },
      {
        "astId": 154,
        "contract": "contracts/governance/Monastery.sol:Monastery",
        "label": "votingPower",
        "offset": 0,
        "slot": "1",
        "type": "t_contract(IVotingPower)1198"
      },
      {
        "astId": 160,
        "contract": "contracts/governance/Monastery.sol:Monastery",
        "label": "tokenGrants",
        "offset": 0,
        "slot": "2",
        "type": "t_mapping(t_address,t_struct(Grant)130_storage)"
      },
      {
        "astId": 163,
        "contract": "contracts/governance/Monastery.sol:Monastery",
        "label": "clergy",
        "offset": 0,
        "slot": "3",
        "type": "t_address"
      }
    ],
    "types": {
      "t_address": {
        "encoding": "inplace",
        "label": "address",
        "numberOfBytes": "20"
      },
      "t_contract(ICrownGovernanceToken)934": {
        "encoding": "inplace",
        "label": "contract ICrownGovernanceToken",
        "numberOfBytes": "20"
      },
      "t_contract(IVotingPower)1198": {
        "encoding": "inplace",
        "label": "contract IVotingPower",
        "numberOfBytes": "20"
      },
      "t_mapping(t_address,t_struct(Grant)130_storage)": {
        "encoding": "mapping",
        "key": "t_address",
        "label": "mapping(address => struct Monastery.Grant)",
        "numberOfBytes": "32",
        "value": "t_struct(Grant)130_storage"
      },
      "t_struct(Grant)130_storage": {
        "encoding": "inplace",
        "label": "struct Monastery.Grant",
        "members": [
          {
            "astId": 121,
            "contract": "contracts/governance/Monastery.sol:Monastery",
            "label": "startTime",
            "offset": 0,
            "slot": "0",
            "type": "t_uint256"
          },
          {
            "astId": 123,
            "contract": "contracts/governance/Monastery.sol:Monastery",
            "label": "amount",
            "offset": 0,
            "slot": "1",
            "type": "t_uint256"
          },
          {
            "astId": 125,
            "contract": "contracts/governance/Monastery.sol:Monastery",
            "label": "vestingDuration",
            "offset": 0,
            "slot": "2",
            "type": "t_uint16"
          },
          {
            "astId": 127,
            "contract": "contracts/governance/Monastery.sol:Monastery",
            "label": "vestingCliff",
            "offset": 2,
            "slot": "2",
            "type": "t_uint16"
          },
          {
            "astId": 129,
            "contract": "contracts/governance/Monastery.sol:Monastery",
            "label": "totalClaimed",
            "offset": 0,
            "slot": "3",
            "type": "t_uint256"
          }
        ],
        "numberOfBytes": "128"
      },
      "t_uint16": {
        "encoding": "inplace",
        "label": "uint16",
        "numberOfBytes": "2"
      },
      "t_uint256": {
        "encoding": "inplace",
        "label": "uint256",
        "numberOfBytes": "32"
      }
    }
  }
}