{
  "address": "0x0D8b16Af2e9fa74Aa09C3eF488AeDC70F009291A",
  "abi": [
    {
      "inputs": [
        {
          "internalType": "contract ICrownGovernanceToken",
          "name": "_token",
          "type": "address"
        }
      ],
      "stateMutability": "nonpayable",
      "type": "constructor"
    },
    {
      "inputs": [
        {
          "internalType": "uint256",
          "name": "totalAmount",
          "type": "uint256"
        },
        {
          "internalType": "address[]",
          "name": "recipients",
          "type": "address[]"
        },
        {
          "internalType": "uint256[]",
          "name": "amounts",
          "type": "uint256[]"
        }
      ],
      "name": "batchTransfer",
      "outputs": [],
      "stateMutability": "nonpayable",
      "type": "function"
    },
    {
      "inputs": [
        {
          "internalType": "uint256",
          "name": "totalAmount",
          "type": "uint256"
        },
        {
          "internalType": "address[]",
          "name": "recipients",
          "type": "address[]"
        },
        {
          "internalType": "uint256[]",
          "name": "amounts",
          "type": "uint256[]"
        },
        {
          "internalType": "uint256",
          "name": "deadline",
          "type": "uint256"
        },
        {
          "internalType": "uint8",
          "name": "v",
          "type": "uint8"
        },
        {
          "internalType": "bytes32",
          "name": "r",
          "type": "bytes32"
        },
        {
          "internalType": "bytes32",
          "name": "s",
          "type": "bytes32"
        }
      ],
      "name": "batchTransferWithPermit",
      "outputs": [],
      "stateMutability": "nonpayable",
      "type": "function"
    },
    {
      "inputs": [],
      "name": "token",
      "outputs": [
        {
          "internalType": "contract ICrownGovernanceToken",
          "name": "",
          "type": "address"
        }
      ],
      "stateMutability": "view",
      "type": "function"
    }
  ],
  "transactionHash": "0x8db5b6221d7787e6aa90aa835524d9370e98d1d34a9bbe479bad7e2cd3809240",
  "args": [
    "0x68CE2726Ff4dd5686FE8879f49142D8181FaDa1a"
  ],
  "solcInputHash": "e885469200b403bc2af39246669116fe",
  "bytecode": "0x60806040523480156200001157600080fd5b506040516200115c3803806200115c83398181016040528101906200003791906200009e565b600160008190555080600160006101000a81548173ffffffffffffffffffffffffffffffffffffffff021916908373ffffffffffffffffffffffffffffffffffffffff160217905550506200012c565b600081519050620000988162000112565b92915050565b600060208284031215620000b157600080fd5b6000620000c18482850162000087565b91505092915050565b6000620000d782620000f2565b9050919050565b6000620000eb82620000ca565b9050919050565b600073ffffffffffffffffffffffffffffffffffffffff82169050919050565b6200011d81620000de565b81146200012957600080fd5b50565b611020806200013c6000396000f3fe608060405234801561001057600080fd5b50600436106100415760003560e01c80637b5cbf5014610046578063ec09172a14610062578063fc0c546a1461007e575b600080fd5b610060600480360381019061005b9190610820565b61009c565b005b61007c600480360381019061007791906108a9565b610106565b005b61008661020d565b6040516100939190610b86565b60405180910390f35b600260005414156100e2576040517f08c379a00000000000000000000000000000000000000000000000000000000081526004016100d990610c41565b60405180910390fd5b60026000819055506100f78585858585610233565b60016000819055505050505050565b6002600054141561014c576040517f08c379a000000000000000000000000000000000000000000000000000000000815260040161014390610c41565b60405180910390fd5b6002600081905550600160009054906101000a900473ffffffffffffffffffffffffffffffffffffffff1673ffffffffffffffffffffffffffffffffffffffff1663d505accf33308c888888886040518863ffffffff1660e01b81526004016101bb9796959493929190610b17565b600060405180830381600087803b1580156101d557600080fd5b505af11580156101e9573d6000803e3d6000fd5b505050506101fa8989898989610233565b6001600081905550505050505050505050565b600160009054906101000a900473ffffffffffffffffffffffffffffffffffffffff1681565b84600160009054906101000a900473ffffffffffffffffffffffffffffffffffffffff1673ffffffffffffffffffffffffffffffffffffffff1663dd62ed3e33306040518363ffffffff1660e01b8152600401610291929190610ab7565b60206040518083038186803b1580156102a957600080fd5b505afa1580156102bd573d6000803e3d6000fd5b505050506040513d601f19601f820116820180604052508101906102e191906107f7565b1015610322576040517f08c379a000000000000000000000000000000000000000000000000000000000815260040161031990610c01565b60405180910390fd5b84600160009054906101000a900473ffffffffffffffffffffffffffffffffffffffff1673ffffffffffffffffffffffffffffffffffffffff166370a08231336040518263ffffffff1660e01b815260040161037e9190610a9c565b60206040518083038186803b15801561039657600080fd5b505afa1580156103aa573d6000803e3d6000fd5b505050506040513d601f19601f820116820180604052508101906103ce91906107f7565b101561040f576040517f08c379a000000000000000000000000000000000000000000000000000000000815260040161040690610ba1565b60405180910390fd5b818190508484905014610457576040517f08c379a000000000000000000000000000000000000000000000000000000000815260040161044e90610bc1565b60405180910390fd5b6000805b85859050811015610648576000600160009054906101000a900473ffffffffffffffffffffffffffffffffffffffff1673ffffffffffffffffffffffffffffffffffffffff166323b872dd338989868181106104e0577f4e487b7100000000000000000000000000000000000000000000000000000000600052603260045260246000fd5b90506020020160208101906104f591906107a5565b88888781811061052e577f4e487b7100000000000000000000000000000000000000000000000000000000600052603260045260246000fd5b905060200201356040518463ffffffff1660e01b815260040161055393929190610ae0565b602060405180830381600087803b15801561056d57600080fd5b505af1158015610581573d6000803e3d6000fd5b505050506040513d601f19601f820116820180604052508101906105a591906107ce565b9050806105e7576040517f08c379a00000000000000000000000000000000000000000000000000000000081526004016105de90610be1565b60405180910390fd5b848483818110610620577f4e487b7100000000000000000000000000000000000000000000000000000000600052603260045260246000fd5b90506020020135836106329190610c72565b925050808061064090610d4b565b91505061045b565b5085811461068b576040517f08c379a000000000000000000000000000000000000000000000000000000000815260040161068290610c21565b60405180910390fd5b505050505050565b6000813590506106a281610f77565b92915050565b60008083601f8401126106ba57600080fd5b8235905067ffffffffffffffff8111156106d357600080fd5b6020830191508360208202830111156106eb57600080fd5b9250929050565b60008083601f84011261070457600080fd5b8235905067ffffffffffffffff81111561071d57600080fd5b60208301915083602082028301111561073557600080fd5b9250929050565b60008151905061074b81610f8e565b92915050565b60008135905061076081610fa5565b92915050565b60008135905061077581610fbc565b92915050565b60008151905061078a81610fbc565b92915050565b60008135905061079f81610fd3565b92915050565b6000602082840312156107b757600080fd5b60006107c584828501610693565b91505092915050565b6000602082840312156107e057600080fd5b60006107ee8482850161073c565b91505092915050565b60006020828403121561080957600080fd5b60006108178482850161077b565b91505092915050565b60008060008060006060868803121561083857600080fd5b600061084688828901610766565b955050602086013567ffffffffffffffff81111561086357600080fd5b61086f888289016106a8565b9450945050604086013567ffffffffffffffff81111561088e57600080fd5b61089a888289016106f2565b92509250509295509295909350565b600080600080600080600080600060e08a8c0312156108c757600080fd5b60006108d58c828d01610766565b99505060208a013567ffffffffffffffff8111156108f257600080fd5b6108fe8c828d016106a8565b985098505060408a013567ffffffffffffffff81111561091d57600080fd5b6109298c828d016106f2565b9650965050606061093c8c828d01610766565b945050608061094d8c828d01610790565b93505060a061095e8c828d01610751565b92505060c061096f8c828d01610751565b9150509295985092959850929598565b61098881610cc8565b82525050565b61099781610ce6565b82525050565b6109a681610d27565b82525050565b60006109b9603183610c61565b91506109c482610dc3565b604082019050919050565b60006109dc603e83610c61565b91506109e782610e12565b604082019050919050565b60006109ff603483610c61565b9150610a0a82610e61565b604082019050919050565b6000610a22602c83610c61565b9150610a2d82610eb0565b604082019050919050565b6000610a45603683610c61565b9150610a5082610eff565b604082019050919050565b6000610a68601f83610c61565b9150610a7382610f4e565b602082019050919050565b610a8781610d10565b82525050565b610a9681610d1a565b82525050565b6000602082019050610ab1600083018461097f565b92915050565b6000604082019050610acc600083018561097f565b610ad9602083018461097f565b9392505050565b6000606082019050610af5600083018661097f565b610b02602083018561097f565b610b0f6040830184610a7e565b949350505050565b600060e082019050610b2c600083018a61097f565b610b39602083018961097f565b610b466040830188610a7e565b610b536060830187610a7e565b610b606080830186610a8d565b610b6d60a083018561098e565b610b7a60c083018461098e565b98975050505050505050565b6000602082019050610b9b600083018461099d565b92915050565b60006020820190508181036000830152610bba816109ac565b9050919050565b60006020820190508181036000830152610bda816109cf565b9050919050565b60006020820190508181036000830152610bfa816109f2565b9050919050565b60006020820190508181036000830152610c1a81610a15565b9050919050565b60006020820190508181036000830152610c3a81610a38565b9050919050565b60006020820190508181036000830152610c5a81610a5b565b9050919050565b600082825260208201905092915050565b6000610c7d82610d10565b9150610c8883610d10565b9250827fffffffffffffffffffffffffffffffffffffffffffffffffffffffffffffffff03821115610cbd57610cbc610d94565b5b828201905092915050565b6000610cd382610cf0565b9050919050565b60008115159050919050565b6000819050919050565b600073ffffffffffffffffffffffffffffffffffffffff82169050919050565b6000819050919050565b600060ff82169050919050565b6000610d3282610d39565b9050919050565b6000610d4482610cf0565b9050919050565b6000610d5682610d10565b91507fffffffffffffffffffffffffffffffffffffffffffffffffffffffffffffffff821415610d8957610d88610d94565b5b600182019050919050565b7f4e487b7100000000000000000000000000000000000000000000000000000000600052601160045260246000fd5b7f4d756c746973656e643a3a5f62617463685472616e736665723a2073656e646560008201527f722062616c616e636520746f6f206c6f77000000000000000000000000000000602082015250565b7f4d756c746973656e643a3a5f62617463685472616e736665723a20726563697060008201527f69656e7473206c656e67746820213d20616d6f756e7473206c656e6774680000602082015250565b7f4d756c746973656e643a3a5f62617463685472616e736665723a206661696c6560008201527f6420746f207472616e7366657220746f6b656e73000000000000000000000000602082015250565b7f4d756c746973656e643a3a5f62617463685472616e736665723a20616c6c6f7760008201527f616e636520746f6f206c6f770000000000000000000000000000000000000000602082015250565b7f4d756c746973656e643a3a5f62617463685472616e736665723a20746f74616c60008201527f20213d207472616e7366657272656420616d6f756e7400000000000000000000602082015250565b7f5265656e7472616e637947756172643a207265656e7472616e742063616c6c00600082015250565b610f8081610cc8565b8114610f8b57600080fd5b50565b610f9781610cda565b8114610fa257600080fd5b50565b610fae81610ce6565b8114610fb957600080fd5b50565b610fc581610d10565b8114610fd057600080fd5b50565b610fdc81610d1a565b8114610fe757600080fd5b5056fea2646970667358221220dacee41688ac03f0b6e3c6ab443d2b6bfd7354419b5e8ac57b675d69db6f1a1664736f6c63430008020033",
  "devdoc": {
    "details": "Allows the sender to perform batch transfers of KING tokens",
    "kind": "dev",
    "methods": {
      "batchTransfer(uint256,address[],uint256[])": {
        "details": "Must approve this contract for `totalAmount` before calling",
        "params": {
          "amounts": "Array of amounts to send to accounts via transfers",
          "recipients": "Array of accounts to receive transfers",
          "totalAmount": "Total amount to be transferred"
        }
      },
      "batchTransferWithPermit(uint256,address[],uint256[],uint256,uint8,bytes32,bytes32)": {
        "params": {
          "amounts": "Array of amounts to send to accounts via transfers",
          "deadline": "The time at which to expire the signature",
          "r": "Half of the ECDSA signature pair",
          "recipients": "Array of accounts to receive transfers",
          "s": "Half of the ECDSA signature pair",
          "totalAmount": "Total amount to be transferred",
          "v": "The recovery byte of the signature"
        }
      },
      "constructor": {
        "params": {
          "_token": "Address of KING token"
        }
      }
    },
    "title": "Multisend",
    "version": 1
  },
  "userdoc": {
    "kind": "user",
    "methods": {
      "batchTransfer(uint256,address[],uint256[])": {
        "notice": "Batches multiple transfers"
      },
      "batchTransferWithPermit(uint256,address[],uint256[],uint256,uint8,bytes32,bytes32)": {
        "notice": "Batches multiple transfers with approval provided by permit function"
      },
      "constructor": {
        "notice": "Construct a new Multisend contract"
      },
      "token()": {
        "notice": "Kingmaker governance token"
      }
    },
    "version": 1
  },
  "storageLayout": {
    "storage": [
      {
        "astId": 490,
        "contract": "contracts/utils/Multisend.sol:Multisend",
        "label": "_status",
        "offset": 0,
        "slot": "0",
        "type": "t_uint256"
      },
      {
        "astId": 17612,
        "contract": "contracts/utils/Multisend.sol:Multisend",
        "label": "token",
        "offset": 0,
        "slot": "1",
        "type": "t_contract(ICrownGovernanceToken)10584"
      }
    ],
    "types": {
      "t_contract(ICrownGovernanceToken)10584": {
        "encoding": "inplace",
        "label": "contract ICrownGovernanceToken",
        "numberOfBytes": "20"
      },
      "t_uint256": {
        "encoding": "inplace",
        "label": "uint256",
        "numberOfBytes": "32"
      }
    }
  }
}