{
  "address": "0x074b77eaF5df559611917107ebeD44Ed1aEe9443",
  "abi": [
    {
      "inputs": [
        {
          "internalType": "address",
          "name": "_owner",
          "type": "address"
        },
        {
          "internalType": "address[]",
          "name": "_tokens",
          "type": "address[]"
        },
        {
          "internalType": "address[]",
          "name": "_formulae",
          "type": "address[]"
        }
      ],
      "stateMutability": "nonpayable",
      "type": "constructor"
    },
    {
      "anonymous": false,
      "inputs": [
        {
          "indexed": true,
          "internalType": "address",
          "name": "oldOwner",
          "type": "address"
        },
        {
          "indexed": true,
          "internalType": "address",
          "name": "newOwner",
          "type": "address"
        }
      ],
      "name": "ApostolicSuccession",
      "type": "event"
    },
    {
      "anonymous": false,
      "inputs": [
        {
          "indexed": true,
          "internalType": "address",
          "name": "token",
          "type": "address"
        },
        {
          "indexed": true,
          "internalType": "address",
          "name": "formula",
          "type": "address"
        }
      ],
      "name": "TokenFormulaAdded",
      "type": "event"
    },
    {
      "anonymous": false,
      "inputs": [
        {
          "indexed": true,
          "internalType": "address",
          "name": "token",
          "type": "address"
        }
      ],
      "name": "TokenFormulaRemoved",
      "type": "event"
    },
    {
      "anonymous": false,
      "inputs": [
        {
          "indexed": true,
          "internalType": "address",
          "name": "token",
          "type": "address"
        },
        {
          "indexed": true,
          "internalType": "address",
          "name": "formula",
          "type": "address"
        }
      ],
      "name": "TokenFormulaUpdated",
      "type": "event"
    },
    {
      "inputs": [
        {
          "internalType": "address",
          "name": "newOwner",
          "type": "address"
        }
      ],
      "name": "changeOwner",
      "outputs": [],
      "stateMutability": "nonpayable",
      "type": "function"
    },
    {
      "inputs": [],
      "name": "clergy",
      "outputs": [
        {
          "internalType": "address",
          "name": "",
          "type": "address"
        }
      ],
      "stateMutability": "view",
      "type": "function"
    },
    {
      "inputs": [],
      "name": "owner",
      "outputs": [
        {
          "internalType": "address",
          "name": "",
          "type": "address"
        }
      ],
      "stateMutability": "view",
      "type": "function"
    },
    {
      "inputs": [
        {
          "internalType": "address",
          "name": "token",
          "type": "address"
        }
      ],
      "name": "removeToken",
      "outputs": [],
      "stateMutability": "nonpayable",
      "type": "function"
    },
    {
      "inputs": [
        {
          "internalType": "address",
          "name": "token",
          "type": "address"
        },
        {
          "internalType": "address",
          "name": "formula",
          "type": "address"
        }
      ],
      "name": "setTokenFormula",
      "outputs": [],
      "stateMutability": "nonpayable",
      "type": "function"
    },
    {
      "inputs": [
        {
          "internalType": "address",
          "name": "token",
          "type": "address"
        }
      ],
      "name": "tokenFormula",
      "outputs": [
        {
          "internalType": "address",
          "name": "",
          "type": "address"
        }
      ],
      "stateMutability": "view",
      "type": "function"
    },
    {
      "inputs": [
        {
          "internalType": "address",
          "name": "",
          "type": "address"
        }
      ],
      "name": "tokenFormulae",
      "outputs": [
        {
          "internalType": "address",
          "name": "",
          "type": "address"
        }
      ],
      "stateMutability": "view",
      "type": "function"
    }
  ],
  "transactionHash": "0xed253883be528bf5a6d3b14afe0f8ee92070e6c49880be29f8df1a223a0b230d",
  "args": [
    "0x0A26a1eBca217c8090f9a7759Ef82f19a1E19ea1",
    [
      "0x1aBB9e038819c9Cc6BdB34848b0De193D7c3D00a"
    ],
    [
      "0x82e93ba8449F809FB20f9035fd3b1Cf3051a6c9B"
    ]
  ],
  "solcInputHash": "e885469200b403bc2af39246669116fe",
  "bytecode": "0x60806040523480156200001157600080fd5b5060405162001054380380620010548339818101604052810190620000379190620003fb565b80518251146200007e576040517f08c379a00000000000000000000000000000000000000000000000000000000081526004016200007590620004aa565b60405180910390fd5b60005b82518110156200027d57818181518110620000c5577f4e487b7100000000000000000000000000000000000000000000000000000000600052603260045260246000fd5b6020026020010151600160008584815181106200010b577f4e487b7100000000000000000000000000000000000000000000000000000000600052603260045260246000fd5b602002602001015173ffffffffffffffffffffffffffffffffffffffff1673ffffffffffffffffffffffffffffffffffffffff16815260200190815260200160002060006101000a81548173ffffffffffffffffffffffffffffffffffffffff021916908373ffffffffffffffffffffffffffffffffffffffff160217905550818181518110620001c5577f4e487b7100000000000000000000000000000000000000000000000000000000600052603260045260246000fd5b602002602001015173ffffffffffffffffffffffffffffffffffffffff168382815181106200021d577f4e487b7100000000000000000000000000000000000000000000000000000000600052603260045260246000fd5b602002602001015173ffffffffffffffffffffffffffffffffffffffff167fbe88140e48d23d6599570a0b245c3dac61bd4efb4f875e619c5d7d86513bb2f660405160405180910390a380806200027490620005a9565b91505062000081565b50826000806101000a81548173ffffffffffffffffffffffffffffffffffffffff021916908373ffffffffffffffffffffffffffffffffffffffff16021790555060008054906101000a900473ffffffffffffffffffffffffffffffffffffffff1673ffffffffffffffffffffffffffffffffffffffff16600073ffffffffffffffffffffffffffffffffffffffff167f8c0de6e34b662f136e368cd892a4b29eaaa21e939a7763d8dad8f7a787b6888660405160405180910390a3505050620006cf565b6000620003596200035384620004f5565b620004cc565b905080838252602082019050828560208602820111156200037957600080fd5b60005b85811015620003ad5781620003928882620003b7565b8452602084019350602083019250506001810190506200037c565b5050509392505050565b600081519050620003c881620006b5565b92915050565b600082601f830112620003e057600080fd5b8151620003f284826020860162000342565b91505092915050565b6000806000606084860312156200041157600080fd5b60006200042186828701620003b7565b935050602084015167ffffffffffffffff8111156200043f57600080fd5b6200044d86828701620003ce565b925050604084015167ffffffffffffffff8111156200046b57600080fd5b6200047986828701620003ce565b9150509250925092565b600062000492603f8362000524565b91506200049f8262000666565b604082019050919050565b60006020820190508181036000830152620004c58162000483565b9050919050565b6000620004d8620004eb565b9050620004e6828262000573565b919050565b6000604051905090565b600067ffffffffffffffff82111562000513576200051262000626565b5b602082029050602081019050919050565b600082825260208201905092915050565b6000620005428262000549565b9050919050565b600073ffffffffffffffffffffffffffffffffffffffff82169050919050565b6000819050919050565b6200057e8262000655565b810181811067ffffffffffffffff82111715620005a0576200059f62000626565b5b80604052505050565b6000620005b68262000569565b91507fffffffffffffffffffffffffffffffffffffffffffffffffffffffffffffffff821415620005ec57620005eb620005f7565b5b600182019050919050565b7f4e487b7100000000000000000000000000000000000000000000000000000000600052601160045260246000fd5b7f4e487b7100000000000000000000000000000000000000000000000000000000600052604160045260246000fd5b6000601f19601f8301169050919050565b7f5363726962653a3a636f6e7374727563746f723a20746f6b656e7320616e642060008201527f666f726d756c6165206861766520646966666572656e74206c656e6774687300602082015250565b620006c08162000535565b8114620006cc57600080fd5b50565b61097580620006df6000396000f3fe608060405234801561001057600080fd5b506004361061007d5760003560e01c80638da5cb5b1161005b5780638da5cb5b146100ea578063a6f9dae114610108578063cff5df4014610124578063ed994f01146101425761007d565b8063190ddf04146100825780635fa7b5841461009e5780636af133e3146100ba575b600080fd5b61009c60048036038101906100979190610813565b610172565b005b6100b860048036038101906100b391906107ea565b61044e565b005b6100d460048036038101906100cf91906107ea565b6105a1565b6040516100e19190610881565b60405180910390f35b6100f261060a565b6040516100ff9190610881565b60405180910390f35b610122600480360381019061011d91906107ea565b610633565b005b61012c61077e565b6040516101399190610881565b60405180910390f35b61015c600480360381019061015791906107ea565b6107a2565b6040516101699190610881565b60405180910390f35b60008054906101000a900473ffffffffffffffffffffffffffffffffffffffff1673ffffffffffffffffffffffffffffffffffffffff163373ffffffffffffffffffffffffffffffffffffffff1614610200576040517f08c379a00000000000000000000000000000000000000000000000000000000081526004016101f79061089c565b60405180910390fd5b600073ffffffffffffffffffffffffffffffffffffffff16600160008473ffffffffffffffffffffffffffffffffffffffff1673ffffffffffffffffffffffffffffffffffffffff16815260200190815260200160002060009054906101000a900473ffffffffffffffffffffffffffffffffffffffff1673ffffffffffffffffffffffffffffffffffffffff1614156103715780600160008473ffffffffffffffffffffffffffffffffffffffff1673ffffffffffffffffffffffffffffffffffffffff16815260200190815260200160002060006101000a81548173ffffffffffffffffffffffffffffffffffffffff021916908373ffffffffffffffffffffffffffffffffffffffff1602179055508073ffffffffffffffffffffffffffffffffffffffff168273ffffffffffffffffffffffffffffffffffffffff167ff4e2bf0fb0e3fe66367914905f18c1f20b03e95740c3474a4b43933147fccf2260405160405180910390a361044a565b80600160008473ffffffffffffffffffffffffffffffffffffffff1673ffffffffffffffffffffffffffffffffffffffff16815260200190815260200160002060006101000a81548173ffffffffffffffffffffffffffffffffffffffff021916908373ffffffffffffffffffffffffffffffffffffffff1602179055508073ffffffffffffffffffffffffffffffffffffffff168273ffffffffffffffffffffffffffffffffffffffff167fbe88140e48d23d6599570a0b245c3dac61bd4efb4f875e619c5d7d86513bb2f660405160405180910390a35b5050565b60008054906101000a900473ffffffffffffffffffffffffffffffffffffffff1673ffffffffffffffffffffffffffffffffffffffff163373ffffffffffffffffffffffffffffffffffffffff16146104dc576040517f08c379a00000000000000000000000000000000000000000000000000000000081526004016104d39061089c565b60405180910390fd5b6000600160008373ffffffffffffffffffffffffffffffffffffffff1673ffffffffffffffffffffffffffffffffffffffff16815260200190815260200160002060006101000a81548173ffffffffffffffffffffffffffffffffffffffff021916908373ffffffffffffffffffffffffffffffffffffffff1602179055508073ffffffffffffffffffffffffffffffffffffffff167f8e56e81fc132c1da37edad083e281370a1b74849b797d1f45ed735a9018f96ef60405160405180910390a250565b6000600160008373ffffffffffffffffffffffffffffffffffffffff1673ffffffffffffffffffffffffffffffffffffffff16815260200190815260200160002060009054906101000a900473ffffffffffffffffffffffffffffffffffffffff169050919050565b60008060009054906101000a900473ffffffffffffffffffffffffffffffffffffffff16905090565b60008054906101000a900473ffffffffffffffffffffffffffffffffffffffff1673ffffffffffffffffffffffffffffffffffffffff163373ffffffffffffffffffffffffffffffffffffffff16146106c1576040517f08c379a00000000000000000000000000000000000000000000000000000000081526004016106b89061089c565b60405180910390fd5b8073ffffffffffffffffffffffffffffffffffffffff1660008054906101000a900473ffffffffffffffffffffffffffffffffffffffff1673ffffffffffffffffffffffffffffffffffffffff167f8c0de6e34b662f136e368cd892a4b29eaaa21e939a7763d8dad8f7a787b6888660405160405180910390a3806000806101000a81548173ffffffffffffffffffffffffffffffffffffffff021916908373ffffffffffffffffffffffffffffffffffffffff16021790555050565b60008054906101000a900473ffffffffffffffffffffffffffffffffffffffff1681565b60016020528060005260406000206000915054906101000a900473ffffffffffffffffffffffffffffffffffffffff1681565b6000813590506107e481610928565b92915050565b6000602082840312156107fc57600080fd5b600061080a848285016107d5565b91505092915050565b6000806040838503121561082657600080fd5b6000610834858286016107d5565b9250506020610845858286016107d5565b9150509250929050565b610858816108cd565b82525050565b600061086b601e836108bc565b9150610876826108ff565b602082019050919050565b6000602082019050610896600083018461084f565b92915050565b600060208201905081810360008301526108b58161085e565b9050919050565b600082825260208201905092915050565b60006108d8826108df565b9050919050565b600073ffffffffffffffffffffffffffffffffffffffff82169050919050565b7f5363726962653a3a6f6e6c794368757263683a206e6f7420636c657267790000600082015250565b610931816108cd565b811461093c57600080fd5b5056fea26469706673582212205436a58d50bbe8937c98d37085582ca7c35dc3459d1f053ccc913e11b954a92464736f6c63430008020033",
  "devdoc": {
    "details": "Maintains the official registry of tokens (along with their respective conversion formulae) \t\tcounted by the Crown and Bailiff in voting power calculations",
    "kind": "dev",
    "methods": {
      "changeOwner(address)": {
        "params": {
          "newOwner": "New owner address"
        }
      },
      "constructor": {
        "params": {
          "_formulae": "respective formulae contracts for initial tokens",
          "_owner": "contract owner",
          "_tokens": "initially supported tokens"
        }
      },
      "owner()": {
        "returns": {
          "_0": "Address of owner"
        }
      },
      "removeToken(address)": {
        "params": {
          "token": "token address to remove"
        }
      },
      "setTokenFormula(address,address)": {
        "params": {
          "formula": "address of formula contract",
          "token": "token for formula"
        }
      },
      "tokenFormula(address)": {
        "params": {
          "token": "The token to retrieve its formula for"
        },
        "returns": {
          "_0": "the formula address"
        }
      }
    },
    "title": "Scribe (prev. TokenRegistry)",
    "version": 1
  },
  "userdoc": {
    "events": {
      "ApostolicSuccession(address,address)": {
        "notice": "Event emitted when the owner of the contract is updated"
      },
      "TokenFormulaAdded(address,address)": {
        "notice": "Event emitted when a new token is supported"
      },
      "TokenFormulaRemoved(address)": {
        "notice": "Event emitted when a supported token is removed"
      },
      "TokenFormulaUpdated(address,address)": {
        "notice": "Event emitted when a token formula is updated"
      }
    },
    "kind": "user",
    "methods": {
      "changeOwner(address)": {
        "notice": "Change owner of token registry contract"
      },
      "clergy()": {
        "notice": "Current owner of this contract"
      },
      "constructor": {
        "notice": "Construct a new token registry contract"
      },
      "owner()": {
        "notice": "Address of owner"
      },
      "removeToken(address)": {
        "notice": "Remove conversion formula address for token"
      },
      "setTokenFormula(address,address)": {
        "notice": "Set conversion formula address for token"
      },
      "tokenFormula(address)": {
        "notice": "Looks up token formula in contract storage mapping of tokens-to-formulae"
      },
      "tokenFormulae(address)": {
        "notice": "mapping of tokens to voting power calculation (formula) smart contract addresses"
      }
    },
    "version": 1
  },
  "storageLayout": {
    "storage": [
      {
        "astId": 8209,
        "contract": "contracts/governance/Scribe.sol:Scribe",
        "label": "clergy",
        "offset": 0,
        "slot": "0",
        "type": "t_address"
      },
      {
        "astId": 8214,
        "contract": "contracts/governance/Scribe.sol:Scribe",
        "label": "tokenFormulae",
        "offset": 0,
        "slot": "1",
        "type": "t_mapping(t_address,t_address)"
      }
    ],
    "types": {
      "t_address": {
        "encoding": "inplace",
        "label": "address",
        "numberOfBytes": "20"
      },
      "t_mapping(t_address,t_address)": {
        "encoding": "mapping",
        "key": "t_address",
        "label": "mapping(address => address)",
        "numberOfBytes": "32",
        "value": "t_address"
      }
    }
  }
}