{
  "address": "0x800831DeD55dAd615aDD3512A18d4B6431a22Df3",
  "abi": [
    {
      "inputs": [
        {
          "internalType": "address",
          "name": "_lockManager",
          "type": "address"
        }
      ],
      "stateMutability": "nonpayable",
      "type": "constructor"
    },
    {
      "anonymous": false,
      "inputs": [
        {
          "indexed": true,
          "internalType": "address",
          "name": "token",
          "type": "address"
        },
        {
          "indexed": true,
          "internalType": "address",
          "name": "locker",
          "type": "address"
        },
        {
          "indexed": true,
          "internalType": "address",
          "name": "receiver",
          "type": "address"
        },
        {
          "indexed": false,
          "internalType": "uint256",
          "name": "lockId",
          "type": "uint256"
        },
        {
          "indexed": false,
          "internalType": "uint256",
          "name": "amount",
          "type": "uint256"
        },
        {
          "indexed": false,
          "internalType": "uint48",
          "name": "startTime",
          "type": "uint48"
        },
        {
          "indexed": false,
          "internalType": "uint16",
          "name": "durationInDays",
          "type": "uint16"
        },
        {
          "indexed": false,
          "internalType": "uint16",
          "name": "cliffInDays",
          "type": "uint16"
        },
        {
          "indexed": false,
          "internalType": "uint256",
          "name": "votingPower",
          "type": "uint256"
        }
      ],
      "name": "LockCreated",
      "type": "event"
    },
    {
      "anonymous": false,
      "inputs": [
        {
          "indexed": true,
          "internalType": "uint256",
          "name": "lockId",
          "type": "uint256"
        },
        {
          "indexed": true,
          "internalType": "uint16",
          "name": "oldDuration",
          "type": "uint16"
        },
        {
          "indexed": true,
          "internalType": "uint16",
          "name": "newDuration",
          "type": "uint16"
        },
        {
          "indexed": false,
          "internalType": "uint16",
          "name": "oldCliff",
          "type": "uint16"
        },
        {
          "indexed": false,
          "internalType": "uint16",
          "name": "newCliff",
          "type": "uint16"
        },
        {
          "indexed": false,
          "internalType": "uint48",
          "name": "startTime",
          "type": "uint48"
        }
      ],
      "name": "LockExtended",
      "type": "event"
    },
    {
      "anonymous": false,
      "inputs": [
        {
          "indexed": true,
          "internalType": "address",
          "name": "receiver",
          "type": "address"
        },
        {
          "indexed": true,
          "internalType": "address",
          "name": "token",
          "type": "address"
        },
        {
          "indexed": true,
          "internalType": "uint256",
          "name": "lockId",
          "type": "uint256"
        },
        {
          "indexed": false,
          "internalType": "uint256",
          "name": "amountClaimed",
          "type": "uint256"
        },
        {
          "indexed": false,
          "internalType": "uint256",
          "name": "votingPowerRemoved",
          "type": "uint256"
        }
      ],
      "name": "UnlockedTokensClaimed",
      "type": "event"
    },
    {
      "inputs": [
        {
          "internalType": "address",
          "name": "receiver",
          "type": "address"
        }
      ],
      "name": "activeLockBalances",
      "outputs": [
        {
          "components": [
            {
              "internalType": "uint256",
              "name": "id",
              "type": "uint256"
            },
            {
              "internalType": "uint256",
              "name": "claimableAmount",
              "type": "uint256"
            },
            {
              "components": [
                {
                  "internalType": "address",
                  "name": "token",
                  "type": "address"
                },
                {
                  "internalType": "address",
                  "name": "receiver",
                  "type": "address"
                },
                {
                  "internalType": "uint48",
                  "name": "startTime",
                  "type": "uint48"
                },
                {
                  "internalType": "uint16",
                  "name": "vestingDurationInDays",
                  "type": "uint16"
                },
                {
                  "internalType": "uint16",
                  "name": "cliffDurationInDays",
                  "type": "uint16"
                },
                {
                  "internalType": "uint256",
                  "name": "amount",
                  "type": "uint256"
                },
                {
                  "internalType": "uint256",
                  "name": "amountClaimed",
                  "type": "uint256"
                },
                {
                  "internalType": "uint256",
                  "name": "votingPower",
                  "type": "uint256"
                }
              ],
              "internalType": "struct IVault.Lock",
              "name": "lock",
              "type": "tuple"
            }
          ],
          "internalType": "struct IVault.LockBalance[]",
          "name": "",
          "type": "tuple[]"
        }
      ],
      "stateMutability": "view",
      "type": "function"
    },
    {
      "inputs": [
        {
          "internalType": "address",
          "name": "receiver",
          "type": "address"
        }
      ],
      "name": "activeLockIds",
      "outputs": [
        {
          "internalType": "uint256[]",
          "name": "",
          "type": "uint256[]"
        }
      ],
      "stateMutability": "view",
      "type": "function"
    },
    {
      "inputs": [
        {
          "internalType": "address",
          "name": "receiver",
          "type": "address"
        }
      ],
      "name": "activeLocks",
      "outputs": [
        {
          "components": [
            {
              "internalType": "address",
              "name": "token",
              "type": "address"
            },
            {
              "internalType": "address",
              "name": "receiver",
              "type": "address"
            },
            {
              "internalType": "uint48",
              "name": "startTime",
              "type": "uint48"
            },
            {
              "internalType": "uint16",
              "name": "vestingDurationInDays",
              "type": "uint16"
            },
            {
              "internalType": "uint16",
              "name": "cliffDurationInDays",
              "type": "uint16"
            },
            {
              "internalType": "uint256",
              "name": "amount",
              "type": "uint256"
            },
            {
              "internalType": "uint256",
              "name": "amountClaimed",
              "type": "uint256"
            },
            {
              "internalType": "uint256",
              "name": "votingPower",
              "type": "uint256"
            }
          ],
          "internalType": "struct IVault.Lock[]",
          "name": "",
          "type": "tuple[]"
        }
      ],
      "stateMutability": "view",
      "type": "function"
    },
    {
      "inputs": [],
      "name": "allActiveLockBalances",
      "outputs": [
        {
          "components": [
            {
              "internalType": "uint256",
              "name": "id",
              "type": "uint256"
            },
            {
              "internalType": "uint256",
              "name": "claimableAmount",
              "type": "uint256"
            },
            {
              "components": [
                {
                  "internalType": "address",
                  "name": "token",
                  "type": "address"
                },
                {
                  "internalType": "address",
                  "name": "receiver",
                  "type": "address"
                },
                {
                  "internalType": "uint48",
                  "name": "startTime",
                  "type": "uint48"
                },
                {
                  "internalType": "uint16",
                  "name": "vestingDurationInDays",
                  "type": "uint16"
                },
                {
                  "internalType": "uint16",
                  "name": "cliffDurationInDays",
                  "type": "uint16"
                },
                {
                  "internalType": "uint256",
                  "name": "amount",
                  "type": "uint256"
                },
                {
                  "internalType": "uint256",
                  "name": "amountClaimed",
                  "type": "uint256"
                },
                {
                  "internalType": "uint256",
                  "name": "votingPower",
                  "type": "uint256"
                }
              ],
              "internalType": "struct IVault.Lock",
              "name": "lock",
              "type": "tuple"
            }
          ],
          "internalType": "struct IVault.LockBalance[]",
          "name": "",
          "type": "tuple[]"
        }
      ],
      "stateMutability": "view",
      "type": "function"
    },
    {
      "inputs": [],
      "name": "allActiveLockIds",
      "outputs": [
        {
          "internalType": "uint256[]",
          "name": "",
          "type": "uint256[]"
        }
      ],
      "stateMutability": "view",
      "type": "function"
    },
    {
      "inputs": [],
      "name": "allActiveLocks",
      "outputs": [
        {
          "components": [
            {
              "internalType": "address",
              "name": "token",
              "type": "address"
            },
            {
              "internalType": "address",
              "name": "receiver",
              "type": "address"
            },
            {
              "internalType": "uint48",
              "name": "startTime",
              "type": "uint48"
            },
            {
              "internalType": "uint16",
              "name": "vestingDurationInDays",
              "type": "uint16"
            },
            {
              "internalType": "uint16",
              "name": "cliffDurationInDays",
              "type": "uint16"
            },
            {
              "internalType": "uint256",
              "name": "amount",
              "type": "uint256"
            },
            {
              "internalType": "uint256",
              "name": "amountClaimed",
              "type": "uint256"
            },
            {
              "internalType": "uint256",
              "name": "votingPower",
              "type": "uint256"
            }
          ],
          "internalType": "struct IVault.Lock[]",
          "name": "",
          "type": "tuple[]"
        }
      ],
      "stateMutability": "view",
      "type": "function"
    },
    {
      "inputs": [
        {
          "internalType": "address",
          "name": "receiver",
          "type": "address"
        }
      ],
      "name": "allLocks",
      "outputs": [
        {
          "components": [
            {
              "internalType": "address",
              "name": "token",
              "type": "address"
            },
            {
              "internalType": "address",
              "name": "receiver",
              "type": "address"
            },
            {
              "internalType": "uint48",
              "name": "startTime",
              "type": "uint48"
            },
            {
              "internalType": "uint16",
              "name": "vestingDurationInDays",
              "type": "uint16"
            },
            {
              "internalType": "uint16",
              "name": "cliffDurationInDays",
              "type": "uint16"
            },
            {
              "internalType": "uint256",
              "name": "amount",
              "type": "uint256"
            },
            {
              "internalType": "uint256",
              "name": "amountClaimed",
              "type": "uint256"
            },
            {
              "internalType": "uint256",
              "name": "votingPower",
              "type": "uint256"
            }
          ],
          "internalType": "struct IVault.Lock[]",
          "name": "",
          "type": "tuple[]"
        }
      ],
      "stateMutability": "view",
      "type": "function"
    },
    {
      "inputs": [
        {
          "internalType": "uint256[]",
          "name": "locks",
          "type": "uint256[]"
        }
      ],
      "name": "claimAllUnlockedTokens",
      "outputs": [],
      "stateMutability": "nonpayable",
      "type": "function"
    },
    {
      "inputs": [
        {
          "internalType": "uint256[]",
          "name": "locks",
          "type": "uint256[]"
        },
        {
          "internalType": "uint256[]",
          "name": "amounts",
          "type": "uint256[]"
        }
      ],
      "name": "claimUnlockedTokenAmounts",
      "outputs": [],
      "stateMutability": "nonpayable",
      "type": "function"
    },
    {
      "inputs": [
        {
          "internalType": "uint256",
          "name": "lockId",
          "type": "uint256"
        }
      ],
      "name": "claimableBalance",
      "outputs": [
        {
          "internalType": "uint256",
          "name": "",
          "type": "uint256"
        }
      ],
      "stateMutability": "view",
      "type": "function"
    },
    {
      "inputs": [
        {
          "internalType": "uint256",
          "name": "lockId",
          "type": "uint256"
        },
        {
          "internalType": "uint16",
          "name": "vestingDaysToAdd",
          "type": "uint16"
        },
        {
          "internalType": "uint16",
          "name": "cliffDaysToAdd",
          "type": "uint16"
        }
      ],
      "name": "extendLock",
      "outputs": [],
      "stateMutability": "nonpayable",
      "type": "function"
    },
    {
      "inputs": [
        {
          "internalType": "uint256",
          "name": "lockId",
          "type": "uint256"
        }
      ],
      "name": "lockBalance",
      "outputs": [
        {
          "components": [
            {
              "internalType": "uint256",
              "name": "id",
              "type": "uint256"
            },
            {
              "internalType": "uint256",
              "name": "claimableAmount",
              "type": "uint256"
            },
            {
              "components": [
                {
                  "internalType": "address",
                  "name": "token",
                  "type": "address"
                },
                {
                  "internalType": "address",
                  "name": "receiver",
                  "type": "address"
                },
                {
                  "internalType": "uint48",
                  "name": "startTime",
                  "type": "uint48"
                },
                {
                  "internalType": "uint16",
                  "name": "vestingDurationInDays",
                  "type": "uint16"
                },
                {
                  "internalType": "uint16",
                  "name": "cliffDurationInDays",
                  "type": "uint16"
                },
                {
                  "internalType": "uint256",
                  "name": "amount",
                  "type": "uint256"
                },
                {
                  "internalType": "uint256",
                  "name": "amountClaimed",
                  "type": "uint256"
                },
                {
                  "internalType": "uint256",
                  "name": "votingPower",
                  "type": "uint256"
                }
              ],
              "internalType": "struct IVault.Lock",
              "name": "lock",
              "type": "tuple"
            }
          ],
          "internalType": "struct IVault.LockBalance",
          "name": "balance",
          "type": "tuple"
        }
      ],
      "stateMutability": "view",
      "type": "function"
    },
    {
      "inputs": [
        {
          "internalType": "address",
          "name": "",
          "type": "address"
        },
        {
          "internalType": "uint256",
          "name": "",
          "type": "uint256"
        }
      ],
      "name": "lockIds",
      "outputs": [
        {
          "internalType": "uint256",
          "name": "",
          "type": "uint256"
        }
      ],
      "stateMutability": "view",
      "type": "function"
    },
    {
      "inputs": [],
      "name": "lockManager",
      "outputs": [
        {
          "internalType": "contract ILockManager",
          "name": "",
          "type": "address"
        }
      ],
      "stateMutability": "view",
      "type": "function"
    },
    {
      "inputs": [
        {
          "internalType": "address",
          "name": "token",
          "type": "address"
        },
        {
          "internalType": "address",
          "name": "locker",
          "type": "address"
        },
        {
          "internalType": "address",
          "name": "receiver",
          "type": "address"
        },
        {
          "internalType": "uint48",
          "name": "startTime",
          "type": "uint48"
        },
        {
          "internalType": "uint256",
          "name": "amount",
          "type": "uint256"
        },
        {
          "internalType": "uint16",
          "name": "vestingDurationInDays",
          "type": "uint16"
        },
        {
          "internalType": "uint16",
          "name": "cliffDurationInDays",
          "type": "uint16"
        },
        {
          "internalType": "bool",
          "name": "grantVotingPower",
          "type": "bool"
        }
      ],
      "name": "lockTokens",
      "outputs": [],
      "stateMutability": "nonpayable",
      "type": "function"
    },
    {
      "inputs": [
        {
          "internalType": "address",
          "name": "token",
          "type": "address"
        },
        {
          "internalType": "address",
          "name": "locker",
          "type": "address"
        },
        {
          "internalType": "address",
          "name": "receiver",
          "type": "address"
        },
        {
          "internalType": "uint48",
          "name": "startTime",
          "type": "uint48"
        },
        {
          "internalType": "uint256",
          "name": "amount",
          "type": "uint256"
        },
        {
          "internalType": "uint16",
          "name": "vestingDurationInDays",
          "type": "uint16"
        },
        {
          "internalType": "uint16",
          "name": "cliffDurationInDays",
          "type": "uint16"
        },
        {
          "internalType": "bool",
          "name": "grantVotingRights",
          "type": "bool"
        },
        {
          "internalType": "uint256",
          "name": "deadline",
          "type": "uint256"
        },
        {
          "internalType": "bytes",
          "name": "signature",
          "type": "bytes"
        }
      ],
      "name": "lockTokensWithPermit",
      "outputs": [],
      "stateMutability": "nonpayable",
      "type": "function"
    },
    {
      "inputs": [],
      "name": "numLocks",
      "outputs": [
        {
          "internalType": "uint256",
          "name": "",
          "type": "uint256"
        }
      ],
      "stateMutability": "view",
      "type": "function"
    },
    {
      "inputs": [
        {
          "internalType": "address",
          "name": "token",
          "type": "address"
        },
        {
          "internalType": "address",
          "name": "receiver",
          "type": "address"
        }
      ],
      "name": "tokenBalance",
      "outputs": [
        {
          "components": [
            {
              "internalType": "uint256",
              "name": "totalAmount",
              "type": "uint256"
            },
            {
              "internalType": "uint256",
              "name": "claimableAmount",
              "type": "uint256"
            },
            {
              "internalType": "uint256",
              "name": "claimedAmount",
              "type": "uint256"
            },
            {
              "internalType": "uint256",
              "name": "votingPower",
              "type": "uint256"
            }
          ],
          "internalType": "struct IVault.TokenBalance",
          "name": "balance",
          "type": "tuple"
        }
      ],
      "stateMutability": "view",
      "type": "function"
    },
    {
      "inputs": [
        {
          "internalType": "uint256",
          "name": "",
          "type": "uint256"
        }
      ],
      "name": "tokenLocks",
      "outputs": [
        {
          "internalType": "address",
          "name": "token",
          "type": "address"
        },
        {
          "internalType": "address",
          "name": "receiver",
          "type": "address"
        },
        {
          "internalType": "uint48",
          "name": "startTime",
          "type": "uint48"
        },
        {
          "internalType": "uint16",
          "name": "vestingDurationInDays",
          "type": "uint16"
        },
        {
          "internalType": "uint16",
          "name": "cliffDurationInDays",
          "type": "uint16"
        },
        {
          "internalType": "uint256",
          "name": "amount",
          "type": "uint256"
        },
        {
          "internalType": "uint256",
          "name": "amountClaimed",
          "type": "uint256"
        },
        {
          "internalType": "uint256",
          "name": "votingPower",
          "type": "uint256"
        }
      ],
      "stateMutability": "view",
      "type": "function"
    },
    {
      "inputs": [
        {
          "internalType": "address",
          "name": "token",
          "type": "address"
        }
      ],
      "name": "totalTokenBalance",
      "outputs": [
        {
          "components": [
            {
              "internalType": "uint256",
              "name": "totalAmount",
              "type": "uint256"
            },
            {
              "internalType": "uint256",
              "name": "claimableAmount",
              "type": "uint256"
            },
            {
              "internalType": "uint256",
              "name": "claimedAmount",
              "type": "uint256"
            },
            {
              "internalType": "uint256",
              "name": "votingPower",
              "type": "uint256"
            }
          ],
          "internalType": "struct IVault.TokenBalance",
          "name": "balance",
          "type": "tuple"
        }
      ],
      "stateMutability": "view",
      "type": "function"
    }
  ],
  "transactionHash": "0x8b3533cebb4af9b4895aafc1f4c8fe78f50f0266a8c2627579bcbd275d7441f8",
  "args": [
    "0x311aEABc6ddd19446b67A65ef33A0A016C136531"
  ],
  "solcInputHash": "e885469200b403bc2af39246669116fe",
  "bytecode": "0x60806040523480156200001157600080fd5b506040516200607238038062006072833981810160405281019062000037919062000095565b806000806101000a81548173ffffffffffffffffffffffffffffffffffffffff021916908373ffffffffffffffffffffffffffffffffffffffff160217905550506200010f565b6000815190506200008f81620000f5565b92915050565b600060208284031215620000a857600080fd5b6000620000b8848285016200007e565b91505092915050565b6000620000ce82620000d5565b9050919050565b600073ffffffffffffffffffffffffffffffffffffffff82169050919050565b6200010081620000c1565b81146200010c57600080fd5b50565b615f53806200011f6000396000f3fe608060405234801561001057600080fd5b506004361061016c5760003560e01c8063946ca949116100cd578063d422cf5811610081578063eb3c64c411610066578063eb3c64c4146103fe578063f339c5041461041a578063f54659921461044a5761016c565b8063d422cf58146103c4578063d7da8bc2146103e25761016c565b8063ada748a5116100b2578063ada748a514610348578063ba4a051b14610364578063bed5df7c146103945761016c565b8063946ca949146102f3578063acca30a21461032a5761016c565b80634a176a4b11610124578063791ba92111610109578063791ba9211461027757806385d3374f146102a75780638f204998146102d75761016c565b80634a176a4b1461022957806354ac185e146102595761016c565b806319ac0d901161015557806319ac0d90146101bf5780631c1a4710146101db5780633c4926d41461020b5761016c565b80631049334f146101715780631091e807146101a1575b600080fd5b61018b600480360381019061018691906144fb565b61047a565b6040516101989190615358565b60405180910390f35b6101a961087a565b6040516101b6919061509d565b60405180910390f35b6101d960048036038101906101d49190614537565b610c72565b005b6101f560048036038101906101f091906146dc565b610daa565b60405161020291906153aa565b60405180910390f35b610213610ddb565b6040516102209190615059565b60405180910390f35b610243600480360381019061023e91906144d2565b6111e5565b6040516102509190615059565b60405180910390f35b610261611742565b60405161026e919061507b565b60405180910390f35b610291600480360381019061028c91906144d2565b611b44565b60405161029e919061507b565b60405180910390f35b6102c160048036038101906102bc91906147ee565b611e5a565b6040516102ce91906153aa565b60405180910390f35b6102f160048036038101906102ec9190614840565b611fb3565b005b61030d600480360381019061030891906147ee565b61223a565b604051610321989796959493929190614fb2565b60405180910390f35b6103326122f0565b60405161033f91906150bf565b60405180910390f35b610362600480360381019061035d9190614718565b612314565b005b61037e600480360381019061037991906144d2565b612412565b60405161038b919061507b565b60405180910390f35b6103ae60048036038101906103a991906144d2565b612abb565b6040516103bb919061509d565b60405180910390f35b6103cc613006565b6040516103d991906153aa565b60405180910390f35b6103fc60048036038101906103f79190614759565b61300c565b005b610418600480360381019061041391906145e9565b6131cf565b005b610434600480360381019061042f91906147ee565b6133a0565b604051610441919061533c565b60405180910390f35b610464600480360381019061045f91906144d2565b613526565b6040516104719190615358565b60405180910390f35b610482614271565b6000600260008473ffffffffffffffffffffffffffffffffffffffff1673ffffffffffffffffffffffffffffffffffffffff16815260200190815260200160002080548060200260200160405190810160405280929190818152602001828054801561050d57602002820191906000526020600020905b8154815260200190600101908083116104f9575b5050505050905060005b81518110156108725760006001600084848151811061055f577f4e487b7100000000000000000000000000000000000000000000000000000000600052603260045260246000fd5b60200260200101518152602001908152602001600020604051806101000160405290816000820160009054906101000a900473ffffffffffffffffffffffffffffffffffffffff1673ffffffffffffffffffffffffffffffffffffffff1673ffffffffffffffffffffffffffffffffffffffff1681526020016001820160009054906101000a900473ffffffffffffffffffffffffffffffffffffffff1673ffffffffffffffffffffffffffffffffffffffff1673ffffffffffffffffffffffffffffffffffffffff1681526020016001820160149054906101000a900465ffffffffffff1665ffffffffffff1665ffffffffffff16815260200160018201601a9054906101000a900461ffff1661ffff1661ffff16815260200160018201601c9054906101000a900461ffff1661ffff1661ffff168152602001600282015481526020016003820154815260200160048201548152505090508573ffffffffffffffffffffffffffffffffffffffff16816000015173ffffffffffffffffffffffffffffffffffffffff1614801561070057508060c001518160a0015114155b1561085e578060a00151846000015161071991906155ae565b8460000181815250508060e00151846060015161073691906155ae565b846060018181525050806040015165ffffffffffff1642111561085d578060c00151846040015161076791906155ae565b8460400181815250506000816040015165ffffffffffff164261078a919061568f565b90506000620151808261079d9190615604565b9050826080015161ffff16811061085a57826060015161ffff1681106107ee578260c001518360a0015187602001516107d691906155ae565b6107e0919061568f565b866020018181525050610859565b600062015180846060015161ffff166108079190615635565b90506000818560a0015161081b9190615604565b90506000848261082b9190615635565b90508560c00151818a6020015161084291906155ae565b61084c919061568f565b8960200181815250505050505b5b50505b5b50808061086a906157d9565b915050610517565b505092915050565b60606000805b600354811015610a1557600060016000838152602001908152602001600020604051806101000160405290816000820160009054906101000a900473ffffffffffffffffffffffffffffffffffffffff1673ffffffffffffffffffffffffffffffffffffffff1673ffffffffffffffffffffffffffffffffffffffff1681526020016001820160009054906101000a900473ffffffffffffffffffffffffffffffffffffffff1673ffffffffffffffffffffffffffffffffffffffff1673ffffffffffffffffffffffffffffffffffffffff1681526020016001820160149054906101000a900465ffffffffffff1665ffffffffffff1665ffffffffffff16815260200160018201601a9054906101000a900461ffff1661ffff1661ffff16815260200160018201601c9054906101000a900461ffff1661ffff1661ffff168152602001600282015481526020016003820154815260200160048201548152505090508060c001518160a0015114610a015782806109fd906157d9565b9350505b508080610a0d906157d9565b915050610880565b5060008167ffffffffffffffff811115610a58577f4e487b7100000000000000000000000000000000000000000000000000000000600052604160045260246000fd5b604051908082528060200260200182016040528015610a865781602001602082028036833780820191505090505b5090506000805b600354811015610c6857600060016000838152602001908152602001600020604051806101000160405290816000820160009054906101000a900473ffffffffffffffffffffffffffffffffffffffff1673ffffffffffffffffffffffffffffffffffffffff1673ffffffffffffffffffffffffffffffffffffffff1681526020016001820160009054906101000a900473ffffffffffffffffffffffffffffffffffffffff1673ffffffffffffffffffffffffffffffffffffffff1673ffffffffffffffffffffffffffffffffffffffff1681526020016001820160149054906101000a900465ffffffffffff1665ffffffffffff1665ffffffffffff16815260200160018201601a9054906101000a900461ffff1661ffff1661ffff16815260200160018201601c9054906101000a900461ffff1661ffff1661ffff168152602001600282015481526020016003820154815260200160048201548152505090508060c001518160a0015114610c545781848481518110610c39577f4e487b7100000000000000000000000000000000000000000000000000000000600052603260045260246000fd5b6020026020010181815250508280610c50906157d9565b9350505b508080610c60906157d9565b915050610a8d565b5081935050505090565b60008361ffff1611610cb9576040517f08c379a0000000000000000000000000000000000000000000000000000000008152600401610cb09061523c565b60405180910390fd5b61474a8361ffff161115610d02576040517f08c379a0000000000000000000000000000000000000000000000000000000008152600401610cf9906151fc565b60405180910390fd5b8161ffff168361ffff161015610d4d576040517f08c379a0000000000000000000000000000000000000000000000000000000008152600401610d44906151bc565b60405180910390fd5b60008411610d90576040517f08c379a0000000000000000000000000000000000000000000000000000000008152600401610d879061517c565b60405180910390fd5b610da08888888888888888613853565b5050505050505050565b60026020528160005260406000208181548110610dc657600080fd5b90600052602060002001600091509150505481565b60606000805b600354811015610f7657600060016000838152602001908152602001600020604051806101000160405290816000820160009054906101000a900473ffffffffffffffffffffffffffffffffffffffff1673ffffffffffffffffffffffffffffffffffffffff1673ffffffffffffffffffffffffffffffffffffffff1681526020016001820160009054906101000a900473ffffffffffffffffffffffffffffffffffffffff1673ffffffffffffffffffffffffffffffffffffffff1673ffffffffffffffffffffffffffffffffffffffff1681526020016001820160149054906101000a900465ffffffffffff1665ffffffffffff1665ffffffffffff16815260200160018201601a9054906101000a900461ffff1661ffff1661ffff16815260200160018201601c9054906101000a900461ffff1661ffff1661ffff168152602001600282015481526020016003820154815260200160048201548152505090508060c001518160a0015114610f62578280610f5e906157d9565b9350505b508080610f6e906157d9565b915050610de1565b5060008167ffffffffffffffff811115610fb9577f4e487b7100000000000000000000000000000000000000000000000000000000600052604160045260246000fd5b604051908082528060200260200182016040528015610ff257816020015b610fdf614299565b815260200190600190039081610fd75790505b5090506000805b6003548110156111db57600060016000838152602001908152602001600020604051806101000160405290816000820160009054906101000a900473ffffffffffffffffffffffffffffffffffffffff1673ffffffffffffffffffffffffffffffffffffffff1673ffffffffffffffffffffffffffffffffffffffff1681526020016001820160009054906101000a900473ffffffffffffffffffffffffffffffffffffffff1673ffffffffffffffffffffffffffffffffffffffff1673ffffffffffffffffffffffffffffffffffffffff1681526020016001820160149054906101000a900465ffffffffffff1665ffffffffffff1665ffffffffffff16815260200160018201601a9054906101000a900461ffff1661ffff1661ffff16815260200160018201601c9054906101000a900461ffff1661ffff1661ffff168152602001600282015481526020016003820154815260200160048201548152505090508060c001518160a00151146111c757611174826133a0565b8484815181106111ad577f4e487b7100000000000000000000000000000000000000000000000000000000600052603260045260246000fd5b602002602001018190525082806111c3906157d9565b9350505b5080806111d3906157d9565b915050610ff9565b5081935050505090565b6060600080600260008573ffffffffffffffffffffffffffffffffffffffff1673ffffffffffffffffffffffffffffffffffffffff16815260200190815260200160002080548060200260200160405190810160405280929190818152602001828054801561127357602002820191906000526020600020905b81548152602001906001019080831161125f575b5050505050905060005b8151811015611451576000600160008484815181106112c5577f4e487b7100000000000000000000000000000000000000000000000000000000600052603260045260246000fd5b60200260200101518152602001908152602001600020604051806101000160405290816000820160009054906101000a900473ffffffffffffffffffffffffffffffffffffffff1673ffffffffffffffffffffffffffffffffffffffff1673ffffffffffffffffffffffffffffffffffffffff1681526020016001820160009054906101000a900473ffffffffffffffffffffffffffffffffffffffff1673ffffffffffffffffffffffffffffffffffffffff1673ffffffffffffffffffffffffffffffffffffffff1681526020016001820160149054906101000a900465ffffffffffff1665ffffffffffff1665ffffffffffff16815260200160018201601a9054906101000a900461ffff1661ffff1661ffff16815260200160018201601c9054906101000a900461ffff1661ffff1661ffff168152602001600282015481526020016003820154815260200160048201548152505090508060c001518160a001511461143d578380611439906157d9565b9450505b508080611449906157d9565b91505061127d565b5060008267ffffffffffffffff811115611494577f4e487b7100000000000000000000000000000000000000000000000000000000600052604160045260246000fd5b6040519080825280602002602001820160405280156114cd57816020015b6114ba614299565b8152602001906001900390816114b25790505b5090506000805b83518110156117355760006001600086848151811061151c577f4e487b7100000000000000000000000000000000000000000000000000000000600052603260045260246000fd5b60200260200101518152602001908152602001600020604051806101000160405290816000820160009054906101000a900473ffffffffffffffffffffffffffffffffffffffff1673ffffffffffffffffffffffffffffffffffffffff1673ffffffffffffffffffffffffffffffffffffffff1681526020016001820160009054906101000a900473ffffffffffffffffffffffffffffffffffffffff1673ffffffffffffffffffffffffffffffffffffffff1673ffffffffffffffffffffffffffffffffffffffff1681526020016001820160149054906101000a900465ffffffffffff1665ffffffffffff1665ffffffffffff16815260200160018201601a9054906101000a900461ffff1661ffff1661ffff16815260200160018201601c9054906101000a900461ffff1661ffff1661ffff168152602001600282015481526020016003820154815260200160048201548152505090508060c001518160a0015114611721576116ce8583815181106116c1577f4e487b7100000000000000000000000000000000000000000000000000000000600052603260045260246000fd5b60200260200101516133a0565b848481518110611707577f4e487b7100000000000000000000000000000000000000000000000000000000600052603260045260246000fd5b6020026020010181905250828061171d906157d9565b9350505b50808061172d906157d9565b9150506114d4565b5081945050505050919050565b60606000805b6003548110156118dd57600060016000838152602001908152602001600020604051806101000160405290816000820160009054906101000a900473ffffffffffffffffffffffffffffffffffffffff1673ffffffffffffffffffffffffffffffffffffffff1673ffffffffffffffffffffffffffffffffffffffff1681526020016001820160009054906101000a900473ffffffffffffffffffffffffffffffffffffffff1673ffffffffffffffffffffffffffffffffffffffff1673ffffffffffffffffffffffffffffffffffffffff1681526020016001820160149054906101000a900465ffffffffffff1665ffffffffffff1665ffffffffffff16815260200160018201601a9054906101000a900461ffff1661ffff1661ffff16815260200160018201601c9054906101000a900461ffff1661ffff1661ffff168152602001600282015481526020016003820154815260200160048201548152505090508060c001518160a00151146118c95782806118c5906157d9565b9350505b5080806118d5906157d9565b915050611748565b5060008167ffffffffffffffff811115611920577f4e487b7100000000000000000000000000000000000000000000000000000000600052604160045260246000fd5b60405190808252806020026020018201604052801561195957816020015b6119466142c0565b81526020019060019003908161193e5790505b5090506000805b600354811015611b3a57600060016000838152602001908152602001600020604051806101000160405290816000820160009054906101000a900473ffffffffffffffffffffffffffffffffffffffff1673ffffffffffffffffffffffffffffffffffffffff1673ffffffffffffffffffffffffffffffffffffffff1681526020016001820160009054906101000a900473ffffffffffffffffffffffffffffffffffffffff1673ffffffffffffffffffffffffffffffffffffffff1673ffffffffffffffffffffffffffffffffffffffff1681526020016001820160149054906101000a900465ffffffffffff1665ffffffffffff1665ffffffffffff16815260200160018201601a9054906101000a900461ffff1661ffff1661ffff16815260200160018201601c9054906101000a900461ffff1661ffff1661ffff168152602001600282015481526020016003820154815260200160048201548152505090508060c001518160a0015114611b265780848481518110611b0c577f4e487b7100000000000000000000000000000000000000000000000000000000600052603260045260246000fd5b60200260200101819052508280611b22906157d9565b9350505b508080611b32906157d9565b915050611960565b5081935050505090565b60606000600260008473ffffffffffffffffffffffffffffffffffffffff1673ffffffffffffffffffffffffffffffffffffffff168152602001908152602001600020805480602002602001604051908101604052809291908181526020018280548015611bd157602002820191906000526020600020905b815481526020019060010190808311611bbd575b505050505090506000815167ffffffffffffffff811115611c1b577f4e487b7100000000000000000000000000000000000000000000000000000000600052604160045260246000fd5b604051908082528060200260200182016040528015611c5457816020015b611c416142c0565b815260200190600190039081611c395790505b50905060005b8251811015611e4f5760016000848381518110611ca0577f4e487b7100000000000000000000000000000000000000000000000000000000600052603260045260246000fd5b60200260200101518152602001908152602001600020604051806101000160405290816000820160009054906101000a900473ffffffffffffffffffffffffffffffffffffffff1673ffffffffffffffffffffffffffffffffffffffff1673ffffffffffffffffffffffffffffffffffffffff1681526020016001820160009054906101000a900473ffffffffffffffffffffffffffffffffffffffff1673ffffffffffffffffffffffffffffffffffffffff1673ffffffffffffffffffffffffffffffffffffffff1681526020016001820160149054906101000a900465ffffffffffff1665ffffffffffff1665ffffffffffff16815260200160018201601a9054906101000a900461ffff1661ffff1661ffff16815260200160018201601c9054906101000a900461ffff1661ffff1661ffff1681526020016002820154815260200160038201548152602001600482015481525050828281518110611e31577f4e487b7100000000000000000000000000000000000000000000000000000000600052603260045260246000fd5b60200260200101819052508080611e47906157d9565b915050611c5a565b508092505050919050565b6000806001600084815260200190815260200160002090508060010160149054906101000a900465ffffffffffff1665ffffffffffff16421015611ea2576000915050611fae565b60008160010160149054906101000a900465ffffffffffff1665ffffffffffff1642611ece919061568f565b905060006201518082611ee19190615604565b905082600101601c9054906101000a900461ffff1661ffff16811015611f0d5760009350505050611fae565b82600101601a9054906101000a900461ffff1661ffff168110611f485782600301548360020154611f3e919061568f565b9350505050611fae565b60006201518084600101601a9054906101000a900461ffff1661ffff16611f6f9190615635565b90506000818560020154611f839190615604565b905060008482611f939190615635565b9050856003015481611fa5919061568f565b96505050505050505b919050565b60006001600085815260200190815260200160002090508060010160009054906101000a900473ffffffffffffffffffffffffffffffffffffffff1673ffffffffffffffffffffffffffffffffffffffff163373ffffffffffffffffffffffffffffffffffffffff161461205c576040517f08c379a0000000000000000000000000000000000000000000000000000000008152600401612053906151dc565b60405180910390fd5b600081600101601a9054906101000a900461ffff169050600061209882866040518060600160405280602f8152602001615eef602f9139613c1b565b9050600083600101601c9054906101000a900461ffff16905060006120d682876040518060600160405280602d8152602001615ec2602d9139613c1b565b90508061ffff168361ffff161015612123576040517f08c379a000000000000000000000000000000000000000000000000000000000815260040161211a9061511c565b60405180910390fd5b610e428161ffff16111561216c576040517f08c379a00000000000000000000000000000000000000000000000000000000081526004016121639061531c565b60405180910390fd5b6123a58361ffff1611156121b5576040517f08c379a00000000000000000000000000000000000000000000000000000000081526004016121ac9061513c565b60405180910390fd5b8285600101601a6101000a81548161ffff021916908361ffff1602179055508261ffff168461ffff16897f230404042daed14abd1b9cba00060fea5fc11a5aad4f4a2efb7bf2de5d0f92bf85858a60010160149054906101000a900465ffffffffffff1660405161222893929190615373565b60405180910390a45050505050505050565b60016020528060005260406000206000915090508060000160009054906101000a900473ffffffffffffffffffffffffffffffffffffffff16908060010160009054906101000a900473ffffffffffffffffffffffffffffffffffffffff16908060010160149054906101000a900465ffffffffffff169080600101601a9054906101000a900461ffff169080600101601c9054906101000a900461ffff16908060020154908060030154908060040154905088565b60008054906101000a900473ffffffffffffffffffffffffffffffffffffffff1681565b60005b815181101561240e57600061236b83838151811061235e577f4e487b7100000000000000000000000000000000000000000000000000000000600052603260045260246000fd5b6020026020010151611e5a565b9050600081116123b0576040517f08c379a00000000000000000000000000000000000000000000000000000000081526004016123a79061521c565b60405180910390fd5b6123fa8383815181106123ec577f4e487b7100000000000000000000000000000000000000000000000000000000600052603260045260246000fd5b602002602001015182613c7d565b508080612406906157d9565b915050612317565b5050565b6060600080600260008573ffffffffffffffffffffffffffffffffffffffff1673ffffffffffffffffffffffffffffffffffffffff1681526020019081526020016000208054806020026020016040519081016040528092919081815260200182805480156124a057602002820191906000526020600020905b81548152602001906001019080831161248c575b5050505050905060005b815181101561267e576000600160008484815181106124f2577f4e487b7100000000000000000000000000000000000000000000000000000000600052603260045260246000fd5b60200260200101518152602001908152602001600020604051806101000160405290816000820160009054906101000a900473ffffffffffffffffffffffffffffffffffffffff1673ffffffffffffffffffffffffffffffffffffffff1673ffffffffffffffffffffffffffffffffffffffff1681526020016001820160009054906101000a900473ffffffffffffffffffffffffffffffffffffffff1673ffffffffffffffffffffffffffffffffffffffff1673ffffffffffffffffffffffffffffffffffffffff1681526020016001820160149054906101000a900465ffffffffffff1665ffffffffffff1665ffffffffffff16815260200160018201601a9054906101000a900461ffff1661ffff1661ffff16815260200160018201601c9054906101000a900461ffff1661ffff1661ffff168152602001600282015481526020016003820154815260200160048201548152505090508060c001518160a001511461266a578380612666906157d9565b9450505b508080612676906157d9565b9150506124aa565b5060008267ffffffffffffffff8111156126c1577f4e487b7100000000000000000000000000000000000000000000000000000000600052604160045260246000fd5b6040519080825280602002602001820160405280156126fa57816020015b6126e76142c0565b8152602001906001900390816126df5790505b5090506000805b8351811015612aae57600060016000868481518110612749577f4e487b7100000000000000000000000000000000000000000000000000000000600052603260045260246000fd5b60200260200101518152602001908152602001600020604051806101000160405290816000820160009054906101000a900473ffffffffffffffffffffffffffffffffffffffff1673ffffffffffffffffffffffffffffffffffffffff1673ffffffffffffffffffffffffffffffffffffffff1681526020016001820160009054906101000a900473ffffffffffffffffffffffffffffffffffffffff1673ffffffffffffffffffffffffffffffffffffffff1673ffffffffffffffffffffffffffffffffffffffff1681526020016001820160149054906101000a900465ffffffffffff1665ffffffffffff1665ffffffffffff16815260200160018201601a9054906101000a900461ffff1661ffff1661ffff16815260200160018201601c9054906101000a900461ffff1661ffff1661ffff168152602001600282015481526020016003820154815260200160048201548152505090508060c001518160a0015114612a9a57600160008684815181106128ef577f4e487b7100000000000000000000000000000000000000000000000000000000600052603260045260246000fd5b60200260200101518152602001908152602001600020604051806101000160405290816000820160009054906101000a900473ffffffffffffffffffffffffffffffffffffffff1673ffffffffffffffffffffffffffffffffffffffff1673ffffffffffffffffffffffffffffffffffffffff1681526020016001820160009054906101000a900473ffffffffffffffffffffffffffffffffffffffff1673ffffffffffffffffffffffffffffffffffffffff1673ffffffffffffffffffffffffffffffffffffffff1681526020016001820160149054906101000a900465ffffffffffff1665ffffffffffff1665ffffffffffff16815260200160018201601a9054906101000a900461ffff1661ffff1661ffff16815260200160018201601c9054906101000a900461ffff1661ffff1661ffff1681526020016002820154815260200160038201548152602001600482015481525050848481518110612a80577f4e487b7100000000000000000000000000000000000000000000000000000000600052603260045260246000fd5b60200260200101819052508280612a96906157d9565b9350505b508080612aa6906157d9565b915050612701565b5081945050505050919050565b6060600080600260008573ffffffffffffffffffffffffffffffffffffffff1673ffffffffffffffffffffffffffffffffffffffff168152602001908152602001600020805480602002602001604051908101604052809291908181526020018280548015612b4957602002820191906000526020600020905b815481526020019060010190808311612b35575b5050505050905060005b8151811015612d2757600060016000848481518110612b9b577f4e487b7100000000000000000000000000000000000000000000000000000000600052603260045260246000fd5b60200260200101518152602001908152602001600020604051806101000160405290816000820160009054906101000a900473ffffffffffffffffffffffffffffffffffffffff1673ffffffffffffffffffffffffffffffffffffffff1673ffffffffffffffffffffffffffffffffffffffff1681526020016001820160009054906101000a900473ffffffffffffffffffffffffffffffffffffffff1673ffffffffffffffffffffffffffffffffffffffff1673ffffffffffffffffffffffffffffffffffffffff1681526020016001820160149054906101000a900465ffffffffffff1665ffffffffffff1665ffffffffffff16815260200160018201601a9054906101000a900461ffff1661ffff1661ffff16815260200160018201601c9054906101000a900461ffff1661ffff1661ffff168152602001600282015481526020016003820154815260200160048201548152505090508060c001518160a0015114612d13578380612d0f906157d9565b9450505b508080612d1f906157d9565b915050612b53565b5060008267ffffffffffffffff811115612d6a577f4e487b7100000000000000000000000000000000000000000000000000000000600052604160045260246000fd5b604051908082528060200260200182016040528015612d985781602001602082028036833780820191505090505b5090506000805b8351811015612ff957600060016000868481518110612de7577f4e487b7100000000000000000000000000000000000000000000000000000000600052603260045260246000fd5b60200260200101518152602001908152602001600020604051806101000160405290816000820160009054906101000a900473ffffffffffffffffffffffffffffffffffffffff1673ffffffffffffffffffffffffffffffffffffffff1673ffffffffffffffffffffffffffffffffffffffff1681526020016001820160009054906101000a900473ffffffffffffffffffffffffffffffffffffffff1673ffffffffffffffffffffffffffffffffffffffff1673ffffffffffffffffffffffffffffffffffffffff1681526020016001820160149054906101000a900465ffffffffffff1665ffffffffffff1665ffffffffffff16815260200160018201601a9054906101000a900461ffff1661ffff1661ffff16815260200160018201601c9054906101000a900461ffff1661ffff1661ffff168152602001600282015481526020016003820154815260200160048201548152505090508060c001518160a0015114612fe557848281518110612f89577f4e487b7100000000000000000000000000000000000000000000000000000000600052603260045260246000fd5b6020026020010151848481518110612fca577f4e487b7100000000000000000000000000000000000000000000000000000000600052603260045260246000fd5b6020026020010181815250508280612fe1906157d9565b9350505b508080612ff1906157d9565b915050612d9f565b5081945050505050919050565b60035481565b8051825114613050576040517f08c379a00000000000000000000000000000000000000000000000000000000081526004016130479061527c565b60405180910390fd5b60005b82518110156131ca5760006130a784838151811061309a577f4e487b7100000000000000000000000000000000000000000000000000000000600052603260045260246000fd5b6020026020010151611e5a565b90508282815181106130e2577f4e487b7100000000000000000000000000000000000000000000000000000000600052603260045260246000fd5b602002602001015181101561312c576040517f08c379a00000000000000000000000000000000000000000000000000000000081526004016131239061529c565b60405180910390fd5b6131b6848381518110613168577f4e487b7100000000000000000000000000000000000000000000000000000000600052603260045260246000fd5b60200260200101518484815181106131a9577f4e487b7100000000000000000000000000000000000000000000000000000000600052603260045260246000fd5b6020026020010151613c7d565b5080806131c2906157d9565b915050613053565b505050565b60008561ffff1611613216576040517f08c379a000000000000000000000000000000000000000000000000000000000815260040161320d9061525c565b60405180910390fd5b61474a8561ffff16111561325f576040517f08c379a0000000000000000000000000000000000000000000000000000000008152600401613256906150fc565b60405180910390fd5b8361ffff168561ffff1610156132aa576040517f08c379a00000000000000000000000000000000000000000000000000000000081526004016132a19061515c565b60405180910390fd5b600086116132ed576040517f08c379a00000000000000000000000000000000000000000000000000000000081526004016132e4906152fc565b60405180910390fd5b60008060006020840151915060408401519050606084015160001a92508c73ffffffffffffffffffffffffffffffffffffffff1663d505accf8d308c898888886040518863ffffffff1660e01b815260040161334f9796959493929190614f43565b600060405180830381600087803b15801561336957600080fd5b505af115801561337d573d6000803e3d6000fd5b505050506133918d8d8d8d8d8d8d8d613853565b50505050505050505050505050565b6133a8614299565b818160000181815250506133bb82611e5a565b81602001818152505060016000838152602001908152602001600020604051806101000160405290816000820160009054906101000a900473ffffffffffffffffffffffffffffffffffffffff1673ffffffffffffffffffffffffffffffffffffffff1673ffffffffffffffffffffffffffffffffffffffff1681526020016001820160009054906101000a900473ffffffffffffffffffffffffffffffffffffffff1673ffffffffffffffffffffffffffffffffffffffff1673ffffffffffffffffffffffffffffffffffffffff1681526020016001820160149054906101000a900465ffffffffffff1665ffffffffffff1665ffffffffffff16815260200160018201601a9054906101000a900461ffff1661ffff1661ffff16815260200160018201601c9054906101000a900461ffff1661ffff1661ffff16815260200160028201548152602001600382015481526020016004820154815250508160400181905250919050565b61352e614271565b60005b60035481101561384d57600060016000838152602001908152602001600020604051806101000160405290816000820160009054906101000a900473ffffffffffffffffffffffffffffffffffffffff1673ffffffffffffffffffffffffffffffffffffffff1673ffffffffffffffffffffffffffffffffffffffff1681526020016001820160009054906101000a900473ffffffffffffffffffffffffffffffffffffffff1673ffffffffffffffffffffffffffffffffffffffff1673ffffffffffffffffffffffffffffffffffffffff1681526020016001820160149054906101000a900465ffffffffffff1665ffffffffffff1665ffffffffffff16815260200160018201601a9054906101000a900461ffff1661ffff1661ffff16815260200160018201601c9054906101000a900461ffff1661ffff1661ffff168152602001600282015481526020016003820154815260200160048201548152505090508373ffffffffffffffffffffffffffffffffffffffff16816000015173ffffffffffffffffffffffffffffffffffffffff161480156136db57508060c001518160a0015114155b15613839578060a0015183600001516136f491906155ae565b8360000181815250508060e00151836060015161371191906155ae565b836060018181525050806040015165ffffffffffff16421115613838578060c00151836040015161374291906155ae565b8360400181815250506000816040015165ffffffffffff1642613765919061568f565b9050600062015180826137789190615604565b9050826080015161ffff16811061383557826060015161ffff1681106137c9578260c001518360a0015186602001516137b191906155ae565b6137bb919061568f565b856020018181525050613834565b600062015180846060015161ffff166137e29190615635565b90506000818560a001516137f69190615604565b9050600084826138069190615635565b90508560c0015181896020015161381d91906155ae565b613827919061568f565b8860200181815250505050505b5b50505b5b508080613845906157d9565b915050613531565b50919050565b6138808730868b73ffffffffffffffffffffffffffffffffffffffff16613ef5909392919063ffffffff16565b6000808665ffffffffffff16146138975785613899565b425b9050600082156139555760008054906101000a900473ffffffffffffffffffffffffffffffffffffffff1673ffffffffffffffffffffffffffffffffffffffff1663bc61256e898c896040518463ffffffff1660e01b815260040161390093929190614f0c565b602060405180830381600087803b15801561391a57600080fd5b505af115801561392e573d6000803e3d6000fd5b505050506040513d601f19601f820116820180604052508101906139529190614817565b90505b60006040518061010001604052808c73ffffffffffffffffffffffffffffffffffffffff1681526020018a73ffffffffffffffffffffffffffffffffffffffff1681526020018465ffffffffffff1681526020018761ffff1681526020018661ffff168152602001888152602001600081526020018381525090508060016000600354815260200190815260200160002060008201518160000160006101000a81548173ffffffffffffffffffffffffffffffffffffffff021916908373ffffffffffffffffffffffffffffffffffffffff16021790555060208201518160010160006101000a81548173ffffffffffffffffffffffffffffffffffffffff021916908373ffffffffffffffffffffffffffffffffffffffff16021790555060408201518160010160146101000a81548165ffffffffffff021916908365ffffffffffff160217905550606082015181600101601a6101000a81548161ffff021916908361ffff160217905550608082015181600101601c6101000a81548161ffff021916908361ffff16021790555060a0820151816002015560c0820151816003015560e08201518160040155905050600260008a73ffffffffffffffffffffffffffffffffffffffff1673ffffffffffffffffffffffffffffffffffffffff16815260200190815260200160002060035490806001815401808255809150506001900390600052602060002001600090919091909150558873ffffffffffffffffffffffffffffffffffffffff168a73ffffffffffffffffffffffffffffffffffffffff168c73ffffffffffffffffffffffffffffffffffffffff167f61a86a91d761a7322a10c3ff0cda14501ac0d019f088b470cb222e5e94747e896003548b888c8c8a604051613bee969594939291906153ee565b60405180910390a460036000815480929190613c09906157d9565b91905055505050505050505050505050565b60008083850190508461ffff168161ffff1610158390613c71576040517f08c379a0000000000000000000000000000000000000000000000000000000008152600401613c6891906150da565b60405180910390fd5b50809150509392505050565b600060016000848152602001908152602001600020905060008082600401541115613db45760008054906101000a900473ffffffffffffffffffffffffffffffffffffffff1673ffffffffffffffffffffffffffffffffffffffff1663bc3e1b7a8360010160009054906101000a900473ffffffffffffffffffffffffffffffffffffffff168460000160009054906101000a900473ffffffffffffffffffffffffffffffffffffffff16866040518463ffffffff1660e01b8152600401613d4793929190614f0c565b602060405180830381600087803b158015613d6157600080fd5b505af1158015613d75573d6000803e3d6000fd5b505050506040513d601f19601f82011682018060405250810190613d999190614817565b9050808260040154613dab919061568f565b82600401819055505b828260030154613dc491906155ae565b8260030181905550613e3f8260010160009054906101000a900473ffffffffffffffffffffffffffffffffffffffff16848460000160009054906101000a900473ffffffffffffffffffffffffffffffffffffffff1673ffffffffffffffffffffffffffffffffffffffff16613f7e9092919063ffffffff16565b838260000160009054906101000a900473ffffffffffffffffffffffffffffffffffffffff1673ffffffffffffffffffffffffffffffffffffffff168360010160009054906101000a900473ffffffffffffffffffffffffffffffffffffffff1673ffffffffffffffffffffffffffffffffffffffff167fbac91588ea67037e676b74f37797bcae8524aab9a7ba7431a24a72e6f29bc1978685604051613ee79291906153c5565b60405180910390a450505050565b613f78846323b872dd60e01b858585604051602401613f1693929190614f0c565b604051602081830303815290604052907bffffffffffffffffffffffffffffffffffffffffffffffffffffffff19166020820180517bffffffffffffffffffffffffffffffffffffffffffffffffffffffff8381831617835250505050614004565b50505050565b613fff8363a9059cbb60e01b8484604051602401613f9d929190615030565b604051602081830303815290604052907bffffffffffffffffffffffffffffffffffffffffffffffffffffffff19166020820180517bffffffffffffffffffffffffffffffffffffffffffffffffffffffff8381831617835250505050614004565b505050565b6000614066826040518060400160405280602081526020017f5361666545524332303a206c6f772d6c6576656c2063616c6c206661696c65648152508573ffffffffffffffffffffffffffffffffffffffff166140cb9092919063ffffffff16565b90506000815111156140c6578080602001905181019061408691906147c5565b6140c5576040517f08c379a00000000000000000000000000000000000000000000000000000000081526004016140bc906152dc565b60405180910390fd5b5b505050565b60606140da84846000856140e3565b90509392505050565b606082471015614128576040517f08c379a000000000000000000000000000000000000000000000000000000000815260040161411f9061519c565b60405180910390fd5b614131856141f7565b614170576040517f08c379a0000000000000000000000000000000000000000000000000000000008152600401614167906152bc565b60405180910390fd5b6000808673ffffffffffffffffffffffffffffffffffffffff1685876040516141999190614ef5565b60006040518083038185875af1925050503d80600081146141d6576040519150601f19603f3d011682016040523d82523d6000602084013e6141db565b606091505b50915091506141eb82828661420a565b92505050949350505050565b600080823b905060008111915050919050565b6060831561421a5782905061426a565b60008351111561422d5782518084602001fd5b816040517f08c379a000000000000000000000000000000000000000000000000000000000815260040161426191906150da565b60405180910390fd5b9392505050565b6040518060800160405280600081526020016000815260200160008152602001600081525090565b604051806060016040528060008152602001600081526020016142ba6142c0565b81525090565b604051806101000160405280600073ffffffffffffffffffffffffffffffffffffffff168152602001600073ffffffffffffffffffffffffffffffffffffffff168152602001600065ffffffffffff168152602001600061ffff168152602001600061ffff1681526020016000815260200160008152602001600081525090565b600061435461434f84615474565b61544f565b9050808382526020820190508285602086028201111561437357600080fd5b60005b858110156143a357816143898882614493565b845260208401935060208301925050600181019050614376565b5050509392505050565b60006143c06143bb846154a0565b61544f565b9050828152602081018484840111156143d857600080fd5b6143e3848285615766565b509392505050565b6000813590506143fa81615e4e565b92915050565b600082601f83011261441157600080fd5b8135614421848260208601614341565b91505092915050565b60008135905061443981615e65565b92915050565b60008151905061444e81615e65565b92915050565b600082601f83011261446557600080fd5b81356144758482602086016143ad565b91505092915050565b60008135905061448d81615e7c565b92915050565b6000813590506144a281615e93565b92915050565b6000815190506144b781615e93565b92915050565b6000813590506144cc81615eaa565b92915050565b6000602082840312156144e457600080fd5b60006144f2848285016143eb565b91505092915050565b6000806040838503121561450e57600080fd5b600061451c858286016143eb565b925050602061452d858286016143eb565b9150509250929050565b600080600080600080600080610100898b03121561455457600080fd5b60006145628b828c016143eb565b98505060206145738b828c016143eb565b97505060406145848b828c016143eb565b96505060606145958b828c016144bd565b95505060806145a68b828c01614493565b94505060a06145b78b828c0161447e565b93505060c06145c88b828c0161447e565b92505060e06145d98b828c0161442a565b9150509295985092959890939650565b6000806000806000806000806000806101408b8d03121561460957600080fd5b60006146178d828e016143eb565b9a505060206146288d828e016143eb565b99505060406146398d828e016143eb565b985050606061464a8d828e016144bd565b975050608061465b8d828e01614493565b96505060a061466c8d828e0161447e565b95505060c061467d8d828e0161447e565b94505060e061468e8d828e0161442a565b9350506101006146a08d828e01614493565b9250506101208b013567ffffffffffffffff8111156146be57600080fd5b6146ca8d828e01614454565b9150509295989b9194979a5092959850565b600080604083850312156146ef57600080fd5b60006146fd858286016143eb565b925050602061470e85828601614493565b9150509250929050565b60006020828403121561472a57600080fd5b600082013567ffffffffffffffff81111561474457600080fd5b61475084828501614400565b91505092915050565b6000806040838503121561476c57600080fd5b600083013567ffffffffffffffff81111561478657600080fd5b61479285828601614400565b925050602083013567ffffffffffffffff8111156147af57600080fd5b6147bb85828601614400565b9150509250929050565b6000602082840312156147d757600080fd5b60006147e58482850161443f565b91505092915050565b60006020828403121561480057600080fd5b600061480e84828501614493565b91505092915050565b60006020828403121561482957600080fd5b6000614837848285016144a8565b91505092915050565b60008060006060848603121561485557600080fd5b600061486386828701614493565b93505060206148748682870161447e565b92505060406148858682870161447e565b9150509250925092565b600061489b8383614d0f565b6101408301905092915050565b60006148b48383614d95565b6101008301905092915050565b60006148cd8383614eaa565b60208301905092915050565b6148e2816156c3565b82525050565b6148f1816156c3565b82525050565b600061490282615501565b61490c818561555f565b9350614917836154d1565b8060005b8381101561494857815161492f888261488f565b975061493a83615538565b92505060018101905061491b565b5085935050505092915050565b60006149608261550c565b61496a8185615570565b9350614975836154e1565b8060005b838110156149a657815161498d88826148a8565b975061499883615545565b925050600181019050614979565b5085935050505092915050565b60006149be82615517565b6149c88185615581565b93506149d3836154f1565b8060005b83811015614a045781516149eb88826148c1565b97506149f683615552565b9250506001810190506149d7565b5085935050505092915050565b614a1a816156e1565b82525050565b6000614a2b82615522565b614a358185615592565b9350614a45818560208601615775565b80840191505092915050565b614a5a81615742565b82525050565b6000614a6b8261552d565b614a75818561559d565b9350614a85818560208601615775565b614a8e816158af565b840191505092915050565b6000614aa660438361559d565b9150614ab1826158c0565b606082019050919050565b6000614ac960268361559d565b9150614ad482615935565b604082019050919050565b6000614aec60398361559d565b9150614af782615984565b604082019050919050565b6000614b0f60308361559d565b9150614b1a826159d3565b604082019050919050565b6000614b3260248361559d565b9150614b3d82615a22565b604082019050919050565b6000614b5560268361559d565b9150614b6082615a71565b604082019050919050565b6000614b78602e8361559d565b9150614b8382615ac0565b604082019050919050565b6000614b9b60318361559d565b9150614ba682615b0f565b604082019050919050565b6000614bbe60398361559d565b9150614bc982615b5e565b604082019050919050565b6000614be160368361559d565b9150614bec82615bad565b604082019050919050565b6000614c0460328361559d565b9150614c0f82615bfc565b604082019050919050565b6000614c27603c8361559d565b9150614c3282615c4b565b604082019050919050565b6000614c4a603f8361559d565b9150614c5582615c9a565b604082019050919050565b6000614c6d603d8361559d565b9150614c7882615ce9565b604082019050919050565b6000614c90601d8361559d565b9150614c9b82615d38565b602082019050919050565b6000614cb3602a8361559d565b9150614cbe82615d61565b604082019050919050565b6000614cd6602e8361559d565b9150614ce182615db0565b604082019050919050565b6000614cf9602e8361559d565b9150614d0482615dff565b604082019050919050565b61014082016000820151614d266000850182614eaa565b506020820151614d396020850182614eaa565b506040820151614d4c6040850182614d95565b50505050565b61014082016000820151614d696000850182614eaa565b506020820151614d7c6020850182614eaa565b506040820151614d8f6040850182614d95565b50505050565b61010082016000820151614dac60008501826148d9565b506020820151614dbf60208501826148d9565b506040820151614dd26040850182614ec8565b506060820151614de56060850182614e8c565b506080820151614df86080850182614e8c565b5060a0820151614e0b60a0850182614eaa565b5060c0820151614e1e60c0850182614eaa565b5060e0820151614e3160e0850182614eaa565b50505050565b608082016000820151614e4d6000850182614eaa565b506020820151614e606020850182614eaa565b506040820151614e736040850182614eaa565b506060820151614e866060850182614eaa565b50505050565b614e95816156eb565b82525050565b614ea4816156eb565b82525050565b614eb381615719565b82525050565b614ec281615719565b82525050565b614ed181615723565b82525050565b614ee081615723565b82525050565b614eef81615735565b82525050565b6000614f018284614a20565b915081905092915050565b6000606082019050614f2160008301866148e8565b614f2e60208301856148e8565b614f3b6040830184614eb9565b949350505050565b600060e082019050614f58600083018a6148e8565b614f6560208301896148e8565b614f726040830188614eb9565b614f7f6060830187614eb9565b614f8c6080830186614ee6565b614f9960a0830185614a11565b614fa660c0830184614a11565b98975050505050505050565b600061010082019050614fc8600083018b6148e8565b614fd5602083018a6148e8565b614fe26040830189614ed7565b614fef6060830188614e9b565b614ffc6080830187614e9b565b61500960a0830186614eb9565b61501660c0830185614eb9565b61502360e0830184614eb9565b9998505050505050505050565b600060408201905061504560008301856148e8565b6150526020830184614eb9565b9392505050565b6000602082019050818103600083015261507381846148f7565b905092915050565b600060208201905081810360008301526150958184614955565b905092915050565b600060208201905081810360008301526150b781846149b3565b905092915050565b60006020820190506150d46000830184614a51565b92915050565b600060208201905081810360008301526150f48184614a60565b905092915050565b6000602082019050818103600083015261511581614a99565b9050919050565b6000602082019050818103600083015261513581614abc565b9050919050565b6000602082019050818103600083015261515581614adf565b9050919050565b6000602082019050818103600083015261517581614b02565b9050919050565b6000602082019050818103600083015261519581614b25565b9050919050565b600060208201905081810360008301526151b581614b48565b9050919050565b600060208201905081810360008301526151d581614b6b565b9050919050565b600060208201905081810360008301526151f581614b8e565b9050919050565b6000602082019050818103600083015261521581614bb1565b9050919050565b6000602082019050818103600083015261523581614bd4565b9050919050565b6000602082019050818103600083015261525581614bf7565b9050919050565b6000602082019050818103600083015261527581614c1a565b9050919050565b6000602082019050818103600083015261529581614c3d565b9050919050565b600060208201905081810360008301526152b581614c60565b9050919050565b600060208201905081810360008301526152d581614c83565b9050919050565b600060208201905081810360008301526152f581614ca6565b9050919050565b6000602082019050818103600083015261531581614cc9565b9050919050565b6000602082019050818103600083015261533581614cec565b9050919050565b6000610140820190506153526000830184614d52565b92915050565b600060808201905061536d6000830184614e37565b92915050565b60006060820190506153886000830186614e9b565b6153956020830185614e9b565b6153a26040830184614ed7565b949350505050565b60006020820190506153bf6000830184614eb9565b92915050565b60006040820190506153da6000830185614eb9565b6153e76020830184614eb9565b9392505050565b600060c0820190506154036000830189614eb9565b6154106020830188614eb9565b61541d6040830187614ed7565b61542a6060830186614e9b565b6154376080830185614e9b565b61544460a0830184614eb9565b979650505050505050565b600061545961546a565b905061546582826157a8565b919050565b6000604051905090565b600067ffffffffffffffff82111561548f5761548e615880565b5b602082029050602081019050919050565b600067ffffffffffffffff8211156154bb576154ba615880565b5b6154c4826158af565b9050602081019050919050565b6000819050602082019050919050565b6000819050602082019050919050565b6000819050602082019050919050565b600081519050919050565b600081519050919050565b600081519050919050565b600081519050919050565b600081519050919050565b6000602082019050919050565b6000602082019050919050565b6000602082019050919050565b600082825260208201905092915050565b600082825260208201905092915050565b600082825260208201905092915050565b600081905092915050565b600082825260208201905092915050565b60006155b982615719565b91506155c483615719565b9250827fffffffffffffffffffffffffffffffffffffffffffffffffffffffffffffffff038211156155f9576155f8615822565b5b828201905092915050565b600061560f82615719565b915061561a83615719565b92508261562a57615629615851565b5b828204905092915050565b600061564082615719565b915061564b83615719565b9250817fffffffffffffffffffffffffffffffffffffffffffffffffffffffffffffffff048311821515161561568457615683615822565b5b828202905092915050565b600061569a82615719565b91506156a583615719565b9250828210156156b8576156b7615822565b5b828203905092915050565b60006156ce826156f9565b9050919050565b60008115159050919050565b6000819050919050565b600061ffff82169050919050565b600073ffffffffffffffffffffffffffffffffffffffff82169050919050565b6000819050919050565b600065ffffffffffff82169050919050565b600060ff82169050919050565b600061574d82615754565b9050919050565b600061575f826156f9565b9050919050565b82818337600083830152505050565b60005b83811015615793578082015181840152602081019050615778565b838111156157a2576000848401525b50505050565b6157b1826158af565b810181811067ffffffffffffffff821117156157d0576157cf615880565b5b80604052505050565b60006157e482615719565b91507fffffffffffffffffffffffffffffffffffffffffffffffffffffffffffffffff82141561581757615816615822565b5b600182019050919050565b7f4e487b7100000000000000000000000000000000000000000000000000000000600052601160045260246000fd5b7f4e487b7100000000000000000000000000000000000000000000000000000000600052601260045260246000fd5b7f4e487b7100000000000000000000000000000000000000000000000000000000600052604160045260246000fd5b6000601f19601f8301169050919050565b7f54726561737572793a3a6c6f636b546f6b656e73576974685065726d69743a2060008201527f76657374696e67206475726174696f6e206d6f7265207468616e20353020796560208201527f6172730000000000000000000000000000000000000000000000000000000000604082015250565b7f54726561737572793a3a657874656e644c6f636b3a206475726174696f6e203c60008201527f20636c6966660000000000000000000000000000000000000000000000000000602082015250565b7f54726561737572793a3a657874656e644c6f636b3a2076657374696e6720647560008201527f726174696f6e206d6f7265207468616e20323520796561727300000000000000602082015250565b7f54726561737572793a3a6c6f636b546f6b656e73576974685065726d69743a2060008201527f6475726174696f6e203c20636c69666600000000000000000000000000000000602082015250565b7f54726561737572793a3a6c6f636b546f6b656e733a20616d6f756e74206e6f7460008201527f203e203000000000000000000000000000000000000000000000000000000000602082015250565b7f416464726573733a20696e73756666696369656e742062616c616e636520666f60008201527f722063616c6c0000000000000000000000000000000000000000000000000000602082015250565b7f54726561737572793a3a6c6f636b546f6b656e733a2076657374696e6720647560008201527f726174696f6e203c20636c696666000000000000000000000000000000000000602082015250565b7f54726561737572793a3a657874656e644c6f636b3a206d73672e73656e64657260008201527f206d757374206265207265636569766572000000000000000000000000000000602082015250565b7f54726561737572793a3a6c6f636b546f6b656e733a2076657374696e6720647560008201527f726174696f6e206d6f7265207468616e20353020796561727300000000000000602082015250565b7f54726561737572793a3a636c61696d416c6c556e6c6f636b6564546f6b656e7360008201527f3a20636c61696d61626c65416d6f756e74206973203000000000000000000000602082015250565b7f54726561737572793a3a6c6f636b546f6b656e733a2076657374696e6720647560008201527f726174696f6e206d757374206265203e20300000000000000000000000000000602082015250565b7f54726561737572793a3a6c6f636b546f6b656e73576974685065726d69743a2060008201527f76657374696e67206475726174696f6e206d757374206265203e203000000000602082015250565b7f54726561737572793a3a636c61696d556e6c6f636b6564546f6b656e416d6f7560008201527f6e74733a20617272617973206d7573742062652073616d65206c656e67746800602082015250565b7f54726561737572793a3a636c61696d556e6c6f636b6564546f6b656e416d6f7560008201527f6e74733a20636c61696d61626c65416d6f756e74203c20616d6f756e74000000602082015250565b7f416464726573733a2063616c6c20746f206e6f6e2d636f6e7472616374000000600082015250565b7f5361666545524332303a204552433230206f7065726174696f6e20646964206e60008201527f6f74207375636365656400000000000000000000000000000000000000000000602082015250565b7f54726561737572793a3a6c6f636b546f6b656e73576974685065726d69743a2060008201527f616d6f756e74206e6f74203e2030000000000000000000000000000000000000602082015250565b7f54726561737572793a3a657874656e644c6f636b3a20636c696666206d6f726560008201527f207468616e203130207965617273000000000000000000000000000000000000602082015250565b615e57816156c3565b8114615e6257600080fd5b50565b615e6e816156d5565b8114615e7957600080fd5b50565b615e85816156eb565b8114615e9057600080fd5b50565b615e9c81615719565b8114615ea757600080fd5b50565b615eb381615723565b8114615ebe57600080fd5b5056fe54726561737572793a3a657874656e644c6f636b3a20636c696666206d6178206461797320657863656564656454726561737572793a3a657874656e644c6f636b3a2076657374696e67206d61782064617973206578636565646564a2646970667358221220c64806ea2e743039f3e7a415a1b292656c8b976db13ab0374c02e18f11faf7ad64736f6c63430008020033",
  "devdoc": {
    "details": "Contract for locking up tokens for arbitrary time intervals, optionally providing voting power",
    "kind": "dev",
    "methods": {
      "activeLockBalances(address)": {
        "params": {
          "receiver": "The address that has locked balances"
        },
        "returns": {
          "_0": "the active lock balances"
        }
      },
      "activeLockIds(address)": {
        "params": {
          "receiver": "The address that has locked balances"
        },
        "returns": {
          "_0": "the active lock ids"
        }
      },
      "activeLocks(address)": {
        "params": {
          "receiver": "The address that has locked balances"
        },
        "returns": {
          "_0": "the locks"
        }
      },
      "allActiveLockBalances()": {
        "returns": {
          "_0": "the active lock balances"
        }
      },
      "allActiveLockIds()": {
        "returns": {
          "_0": "the lock ids"
        }
      },
      "allActiveLocks()": {
        "returns": {
          "_0": "the locks"
        }
      },
      "allLocks(address)": {
        "params": {
          "receiver": "The address that has locked balances"
        },
        "returns": {
          "_0": "the locks"
        }
      },
      "claimAllUnlockedTokens(uint256[])": {
        "details": "Errors if no tokens are claimableIt is advised receivers check they are entitled to claim via `claimableBalance` before calling this",
        "params": {
          "locks": "The lock ids for unlocked token balances"
        }
      },
      "claimUnlockedTokenAmounts(uint256[],uint256[])": {
        "details": "Errors if token amounts provided are > claimable amountsIt is advised receivers check they are entitled to claim via `claimableBalance` before calling this",
        "params": {
          "amounts": "The amount of each unlocked token to claim",
          "locks": "The lock ids for unlocked token balances"
        }
      },
      "claimableBalance(uint256)": {
        "details": "Returns 0 if cliff duration has not ended",
        "params": {
          "lockId": "The lock ID"
        },
        "returns": {
          "_0": "The amount that can be claimed"
        }
      },
      "extendLock(uint256,uint16,uint16)": {
        "params": {
          "cliffDaysToAdd": "The number of days to add to cliff duration",
          "lockId": "The lock id for a locked token balance",
          "vestingDaysToAdd": "The number of days to add to vesting duration"
        }
      },
      "lockBalance(uint256)": {
        "params": {
          "lockId": "The lock ID"
        },
        "returns": {
          "balance": "the lock balance"
        }
      },
      "lockTokens(address,address,address,uint48,uint256,uint16,uint16,bool)": {
        "params": {
          "amount": "The amount of tokens being locked",
          "cliffDurationInDays": "The cliff duration in days",
          "grantVotingPower": "if true, give user voting power from tokens",
          "locker": "The account that is locking tokens",
          "receiver": "The account that will be able to retrieve unlocked tokens",
          "startTime": "The unix timestamp when the lock period will start",
          "vestingDurationInDays": "The vesting period in days"
        }
      },
      "lockTokensWithPermit(address,address,address,uint48,uint256,uint16,uint16,bool,uint256,bytes)": {
        "details": "It is up to the frontend developer to ensure the token implements permit - **otherwise this will fail**",
        "params": {
          "amount": "The amount of tokens being locked",
          "cliffDurationInDays": "The lock cliff duration in days",
          "deadline": "The time at which to expire the signature",
          "grantVotingRights": "if true, give user voting power from tokens",
          "locker": "The account that is locking tokens",
          "receiver": "The account that will be able to retrieve unlocked tokens",
          "signature": "The `signature` that signed a hashed message (used to retrieve v,r,s separately and avoid\t\t  stack too deep errors",
          "startTime": "The unix timestamp when the lock period will start",
          "token": "Address of token to lock",
          "vestingDurationInDays": "The lock period in days"
        }
      },
      "tokenBalance(address,address)": {
        "params": {
          "receiver": "The address that has unlocked balances",
          "token": "The token to check"
        },
        "returns": {
          "balance": "the total active balance of `token` for `receiver`"
        }
      },
      "totalTokenBalance(address)": {
        "params": {
          "token": "The token to check"
        },
        "returns": {
          "balance": "the total active balance of `token`"
        }
      }
    },
    "stateVariables": {
      "SECONDS_PER_DAY": {
        "details": "Used to translate lock periods specified in days to seconds"
      }
    },
    "title": "Treasury (prev. Vault)",
    "version": 1
  },
  "userdoc": {
    "events": {
      "LockCreated(address,address,address,uint256,uint256,uint48,uint16,uint16,uint256)": {
        "notice": "Event emitted when a new lock is created"
      },
      "LockExtended(uint256,uint16,uint16,uint16,uint16,uint48)": {
        "notice": "Event emitted when lock duration extended"
      },
      "UnlockedTokensClaimed(address,address,uint256,uint256,uint256)": {
        "notice": "Event emitted when tokens are claimed by a receiver from an unlocked balance"
      }
    },
    "kind": "user",
    "methods": {
      "activeLockBalances(address)": {
        "notice": "Get all active token lock balances for receiver"
      },
      "activeLockIds(address)": {
        "notice": "Get all active token lock ids for receiver"
      },
      "activeLocks(address)": {
        "notice": "Get all active token locks for receiver"
      },
      "allActiveLockBalances()": {
        "notice": "Get all active token lock balances"
      },
      "allActiveLockIds()": {
        "notice": "Get all active token lock ids"
      },
      "allActiveLocks()": {
        "notice": "Get all active token locks"
      },
      "allLocks(address)": {
        "notice": "Get all token locks for receiver"
      },
      "claimAllUnlockedTokens(uint256[])": {
        "notice": "Allows receiver to claim all of their unlocked tokens for a set of locks"
      },
      "claimUnlockedTokenAmounts(uint256[],uint256[])": {
        "notice": "Allows receiver to claim a portion of their unlocked tokens for a given lock"
      },
      "claimableBalance(uint256)": {
        "notice": "Get claimable balance for a given lock id"
      },
      "constructor": {
        "notice": "Create a new Treasury contract"
      },
      "extendLock(uint256,uint16,uint16)": {
        "notice": "Allows receiver extend lock periods for a given lock"
      },
      "lockBalance(uint256)": {
        "notice": "Get lock balance for a given lock id"
      },
      "lockIds(address,uint256)": {
        "notice": "Mapping of address to lock id"
      },
      "lockManager()": {
        "notice": "lockManager contract"
      },
      "lockTokens(address,address,address,uint48,uint256,uint16,uint16,bool)": {
        "notice": "Lock tokens, optionally providing voting power"
      },
      "lockTokensWithPermit(address,address,address,uint48,uint256,uint16,uint16,bool,uint256,bytes)": {
        "notice": "Lock tokens, using permit for approval"
      },
      "numLocks()": {
        "notice": "Number of locks"
      },
      "tokenBalance(address,address)": {
        "notice": "Get token balance of receiver"
      },
      "tokenLocks(uint256)": {
        "notice": "Mapping of lock id > token locks"
      },
      "totalTokenBalance(address)": {
        "notice": "Get total token balance"
      }
    },
    "version": 1
  },
  "storageLayout": {
    "storage": [
      {
        "astId": 8429,
        "contract": "contracts/governance/Treasury.sol:Treasury",
        "label": "lockManager",
        "offset": 0,
        "slot": "0",
        "type": "t_contract(ILockManager)10642"
      },
      {
        "astId": 8439,
        "contract": "contracts/governance/Treasury.sol:Treasury",
        "label": "tokenLocks",
        "offset": 0,
        "slot": "1",
        "type": "t_mapping(t_uint256,t_struct(Lock)10776_storage)"
      },
      {
        "astId": 8445,
        "contract": "contracts/governance/Treasury.sol:Treasury",
        "label": "lockIds",
        "offset": 0,
        "slot": "2",
        "type": "t_mapping(t_address,t_array(t_uint256)dyn_storage)"
      },
      {
        "astId": 8448,
        "contract": "contracts/governance/Treasury.sol:Treasury",
        "label": "numLocks",
        "offset": 0,
        "slot": "3",
        "type": "t_uint256"
      }
    ],
    "types": {
      "t_address": {
        "encoding": "inplace",
        "label": "address",
        "numberOfBytes": "20"
      },
      "t_array(t_uint256)dyn_storage": {
        "base": "t_uint256",
        "encoding": "dynamic_array",
        "label": "uint256[]",
        "numberOfBytes": "32"
      },
      "t_contract(ILockManager)10642": {
        "encoding": "inplace",
        "label": "contract ILockManager",
        "numberOfBytes": "20"
      },
      "t_mapping(t_address,t_array(t_uint256)dyn_storage)": {
        "encoding": "mapping",
        "key": "t_address",
        "label": "mapping(address => uint256[])",
        "numberOfBytes": "32",
        "value": "t_array(t_uint256)dyn_storage"
      },
      "t_mapping(t_uint256,t_struct(Lock)10776_storage)": {
        "encoding": "mapping",
        "key": "t_uint256",
        "label": "mapping(uint256 => struct IVault.Lock)",
        "numberOfBytes": "32",
        "value": "t_struct(Lock)10776_storage"
      },
      "t_struct(Lock)10776_storage": {
        "encoding": "inplace",
        "label": "struct IVault.Lock",
        "members": [
          {
            "astId": 10761,
            "contract": "contracts/governance/Treasury.sol:Treasury",
            "label": "token",
            "offset": 0,
            "slot": "0",
            "type": "t_address"
          },
          {
            "astId": 10763,
            "contract": "contracts/governance/Treasury.sol:Treasury",
            "label": "receiver",
            "offset": 0,
            "slot": "1",
            "type": "t_address"
          },
          {
            "astId": 10765,
            "contract": "contracts/governance/Treasury.sol:Treasury",
            "label": "startTime",
            "offset": 20,
            "slot": "1",
            "type": "t_uint48"
          },
          {
            "astId": 10767,
            "contract": "contracts/governance/Treasury.sol:Treasury",
            "label": "vestingDurationInDays",
            "offset": 26,
            "slot": "1",
            "type": "t_uint16"
          },
          {
            "astId": 10769,
            "contract": "contracts/governance/Treasury.sol:Treasury",
            "label": "cliffDurationInDays",
            "offset": 28,
            "slot": "1",
            "type": "t_uint16"
          },
          {
            "astId": 10771,
            "contract": "contracts/governance/Treasury.sol:Treasury",
            "label": "amount",
            "offset": 0,
            "slot": "2",
            "type": "t_uint256"
          },
          {
            "astId": 10773,
            "contract": "contracts/governance/Treasury.sol:Treasury",
            "label": "amountClaimed",
            "offset": 0,
            "slot": "3",
            "type": "t_uint256"
          },
          {
            "astId": 10775,
            "contract": "contracts/governance/Treasury.sol:Treasury",
            "label": "votingPower",
            "offset": 0,
            "slot": "4",
            "type": "t_uint256"
          }
        ],
        "numberOfBytes": "160"
      },
      "t_uint16": {
        "encoding": "inplace",
        "label": "uint16",
        "numberOfBytes": "2"
      },
      "t_uint256": {
        "encoding": "inplace",
        "label": "uint256",
        "numberOfBytes": "32"
      },
      "t_uint48": {
        "encoding": "inplace",
        "label": "uint48",
        "numberOfBytes": "6"
      }
    }
  }
}