{
  "address": "0x3A765e8AF9540d33a38018fC821A89cf0657B045",
  "abi": [
    {
      "inputs": [
        {
          "internalType": "string",
          "name": "name",
          "type": "string"
        }
      ],
      "name": "govern",
      "outputs": [
        {
          "internalType": "string",
          "name": "",
          "type": "string"
        }
      ],
      "stateMutability": "pure",
      "type": "function"
    }
  ],
  "transactionHash": "0x9d5de4c176a2d1db1d32d4ffe09b935775751e723868baf7410211f59038b0a7",
  "args": [],
  "solcInputHash": "ebf4e376a412abf69082cb202b4c6b6f",
  "bytecode": "0x608060405234801561001057600080fd5b506102bb806100206000396000f3fe608060405234801561001057600080fd5b506004361061002b5760003560e01c8063c69e6c4014610030575b600080fd5b61004a600480360381019061004591906100d6565b610060565b60405161005791906101c0565b60405180910390f35b6060828260405160200161007592919061019c565b604051602081830303815290604052905092915050565b60008083601f84011261009e57600080fd5b8235905067ffffffffffffffff8111156100b757600080fd5b6020830191508360018202830111156100cf57600080fd5b9250929050565b600080602083850312156100e957600080fd5b600083013567ffffffffffffffff81111561010357600080fd5b61010f8582860161008c565b92509250509250929050565b600061012783856101fe565b9350610134838584610209565b82840190509392505050565b600061014b826101e2565b61015581856101ed565b9350610165818560208601610218565b61016e8161024b565b840191505092915050565b6000610186600b836101fe565b91506101918261025c565b600b82019050919050565b60006101a782610179565b91506101b482848661011b565b91508190509392505050565b600060208201905081810360008301526101da8184610140565b905092915050565b600081519050919050565b600082825260208201905092915050565b600081905092915050565b82818337600083830152505050565b60005b8381101561023657808201518184015260208101905061021b565b83811115610245576000848401525b50505050565b6000601f19601f8301169050919050565b7f4772656574696e67732c2000000000000000000000000000000000000000000060008201525056fea2646970667358221220454f4a1b0c2c3f8bb9046596447098839adbbddab5b95471f36c351265eff95e64736f6c63430008010033",
  "devdoc": {
    "kind": "dev",
    "methods": {},
    "version": 1
  },
  "userdoc": {
    "kind": "user",
    "methods": {},
    "version": 1
  },
  "storageLayout": {
    "storage": [],
    "types": null
  }
}