{
  "address": "0x36ED0c7D8F78921a9490B12bFea5968cf4f6f955",
  "abi": [
    {
      "inputs": [
        {
          "internalType": "address",
          "name": "_metadataManager",
          "type": "address"
        },
        {
          "internalType": "address",
          "name": "_supplyManager",
          "type": "address"
        },
        {
          "internalType": "uint256",
          "name": "_firstSupplyChangeAllowed",
          "type": "uint256"
        }
      ],
      "stateMutability": "nonpayable",
      "type": "constructor"
    },
    {
      "anonymous": false,
      "inputs": [
        {
          "indexed": true,
          "internalType": "address",
          "name": "owner",
          "type": "address"
        },
        {
          "indexed": true,
          "internalType": "address",
          "name": "spender",
          "type": "address"
        },
        {
          "indexed": false,
          "internalType": "uint256",
          "name": "value",
          "type": "uint256"
        }
      ],
      "name": "Approval",
      "type": "event"
    },
    {
      "anonymous": false,
      "inputs": [
        {
          "indexed": true,
          "internalType": "address",
          "name": "authorizer",
          "type": "address"
        },
        {
          "indexed": true,
          "internalType": "bytes32",
          "name": "nonce",
          "type": "bytes32"
        }
      ],
      "name": "AuthorizationUsed",
      "type": "event"
    },
    {
      "anonymous": false,
      "inputs": [
        {
          "indexed": true,
          "internalType": "address",
          "name": "oldManager",
          "type": "address"
        },
        {
          "indexed": true,
          "internalType": "address",
          "name": "newManager",
          "type": "address"
        }
      ],
      "name": "MetadataManagerChanged",
      "type": "event"
    },
    {
      "anonymous": false,
      "inputs": [
        {
          "indexed": true,
          "internalType": "uint32",
          "name": "oldMintCap",
          "type": "uint32"
        },
        {
          "indexed": true,
          "internalType": "uint32",
          "name": "newMintCap",
          "type": "uint32"
        }
      ],
      "name": "MintCapChanged",
      "type": "event"
    },
    {
      "anonymous": false,
      "inputs": [
        {
          "indexed": true,
          "internalType": "uint32",
          "name": "oldWaitingPeriod",
          "type": "uint32"
        },
        {
          "indexed": true,
          "internalType": "uint32",
          "name": "newWaitingPeriod",
          "type": "uint32"
        }
      ],
      "name": "SupplyChangeWaitingPeriodChanged",
      "type": "event"
    },
    {
      "anonymous": false,
      "inputs": [
        {
          "indexed": true,
          "internalType": "address",
          "name": "oldManager",
          "type": "address"
        },
        {
          "indexed": true,
          "internalType": "address",
          "name": "newManager",
          "type": "address"
        }
      ],
      "name": "SupplyManagerChanged",
      "type": "event"
    },
    {
      "anonymous": false,
      "inputs": [
        {
          "indexed": true,
          "internalType": "string",
          "name": "name",
          "type": "string"
        },
        {
          "indexed": true,
          "internalType": "string",
          "name": "symbol",
          "type": "string"
        }
      ],
      "name": "TokenMetaUpdated",
      "type": "event"
    },
    {
      "anonymous": false,
      "inputs": [
        {
          "indexed": true,
          "internalType": "address",
          "name": "from",
          "type": "address"
        },
        {
          "indexed": true,
          "internalType": "address",
          "name": "to",
          "type": "address"
        },
        {
          "indexed": false,
          "internalType": "uint256",
          "name": "value",
          "type": "uint256"
        }
      ],
      "name": "Transfer",
      "type": "event"
    },
    {
      "inputs": [],
      "name": "DOMAIN_TYPEHASH",
      "outputs": [
        {
          "internalType": "bytes32",
          "name": "",
          "type": "bytes32"
        }
      ],
      "stateMutability": "view",
      "type": "function"
    },
    {
      "inputs": [],
      "name": "PERMIT_TYPEHASH",
      "outputs": [
        {
          "internalType": "bytes32",
          "name": "",
          "type": "bytes32"
        }
      ],
      "stateMutability": "view",
      "type": "function"
    },
    {
      "inputs": [],
      "name": "RECEIVE_WITH_AUTHORIZATION_TYPEHASH",
      "outputs": [
        {
          "internalType": "bytes32",
          "name": "",
          "type": "bytes32"
        }
      ],
      "stateMutability": "view",
      "type": "function"
    },
    {
      "inputs": [],
      "name": "TRANSFER_WITH_AUTHORIZATION_TYPEHASH",
      "outputs": [
        {
          "internalType": "bytes32",
          "name": "",
          "type": "bytes32"
        }
      ],
      "stateMutability": "view",
      "type": "function"
    },
    {
      "inputs": [],
      "name": "VERSION_HASH",
      "outputs": [
        {
          "internalType": "bytes32",
          "name": "",
          "type": "bytes32"
        }
      ],
      "stateMutability": "view",
      "type": "function"
    },
    {
      "inputs": [
        {
          "internalType": "address",
          "name": "account",
          "type": "address"
        },
        {
          "internalType": "address",
          "name": "spender",
          "type": "address"
        }
      ],
      "name": "allowance",
      "outputs": [
        {
          "internalType": "uint256",
          "name": "",
          "type": "uint256"
        }
      ],
      "stateMutability": "view",
      "type": "function"
    },
    {
      "inputs": [
        {
          "internalType": "address",
          "name": "spender",
          "type": "address"
        },
        {
          "internalType": "uint256",
          "name": "amount",
          "type": "uint256"
        }
      ],
      "name": "approve",
      "outputs": [
        {
          "internalType": "bool",
          "name": "",
          "type": "bool"
        }
      ],
      "stateMutability": "nonpayable",
      "type": "function"
    },
    {
      "inputs": [
        {
          "internalType": "address",
          "name": "",
          "type": "address"
        },
        {
          "internalType": "bytes32",
          "name": "",
          "type": "bytes32"
        }
      ],
      "name": "authorizationState",
      "outputs": [
        {
          "internalType": "bool",
          "name": "",
          "type": "bool"
        }
      ],
      "stateMutability": "view",
      "type": "function"
    },
    {
      "inputs": [
        {
          "internalType": "address",
          "name": "account",
          "type": "address"
        }
      ],
      "name": "balanceOf",
      "outputs": [
        {
          "internalType": "uint256",
          "name": "",
          "type": "uint256"
        }
      ],
      "stateMutability": "view",
      "type": "function"
    },
    {
      "inputs": [
        {
          "internalType": "address",
          "name": "src",
          "type": "address"
        },
        {
          "internalType": "uint256",
          "name": "amount",
          "type": "uint256"
        }
      ],
      "name": "burn",
      "outputs": [
        {
          "internalType": "bool",
          "name": "",
          "type": "bool"
        }
      ],
      "stateMutability": "nonpayable",
      "type": "function"
    },
    {
      "inputs": [],
      "name": "decimals",
      "outputs": [
        {
          "internalType": "uint8",
          "name": "",
          "type": "uint8"
        }
      ],
      "stateMutability": "view",
      "type": "function"
    },
    {
      "inputs": [
        {
          "internalType": "address",
          "name": "spender",
          "type": "address"
        },
        {
          "internalType": "uint256",
          "name": "subtractedValue",
          "type": "uint256"
        }
      ],
      "name": "decreaseAllowance",
      "outputs": [
        {
          "internalType": "bool",
          "name": "",
          "type": "bool"
        }
      ],
      "stateMutability": "nonpayable",
      "type": "function"
    },
    {
      "inputs": [],
      "name": "getDomainSeparator",
      "outputs": [
        {
          "internalType": "bytes32",
          "name": "",
          "type": "bytes32"
        }
      ],
      "stateMutability": "view",
      "type": "function"
    },
    {
      "inputs": [
        {
          "internalType": "address",
          "name": "spender",
          "type": "address"
        },
        {
          "internalType": "uint256",
          "name": "addedValue",
          "type": "uint256"
        }
      ],
      "name": "increaseAllowance",
      "outputs": [
        {
          "internalType": "bool",
          "name": "",
          "type": "bool"
        }
      ],
      "stateMutability": "nonpayable",
      "type": "function"
    },
    {
      "inputs": [],
      "name": "metadataManager",
      "outputs": [
        {
          "internalType": "address",
          "name": "",
          "type": "address"
        }
      ],
      "stateMutability": "view",
      "type": "function"
    },
    {
      "inputs": [
        {
          "internalType": "address",
          "name": "dst",
          "type": "address"
        },
        {
          "internalType": "uint256",
          "name": "amount",
          "type": "uint256"
        }
      ],
      "name": "mint",
      "outputs": [
        {
          "internalType": "bool",
          "name": "",
          "type": "bool"
        }
      ],
      "stateMutability": "nonpayable",
      "type": "function"
    },
    {
      "inputs": [],
      "name": "mintCap",
      "outputs": [
        {
          "internalType": "uint32",
          "name": "",
          "type": "uint32"
        }
      ],
      "stateMutability": "view",
      "type": "function"
    },
    {
      "inputs": [],
      "name": "name",
      "outputs": [
        {
          "internalType": "string",
          "name": "",
          "type": "string"
        }
      ],
      "stateMutability": "view",
      "type": "function"
    },
    {
      "inputs": [
        {
          "internalType": "address",
          "name": "",
          "type": "address"
        }
      ],
      "name": "nonces",
      "outputs": [
        {
          "internalType": "uint256",
          "name": "",
          "type": "uint256"
        }
      ],
      "stateMutability": "view",
      "type": "function"
    },
    {
      "inputs": [
        {
          "internalType": "address",
          "name": "owner",
          "type": "address"
        },
        {
          "internalType": "address",
          "name": "spender",
          "type": "address"
        },
        {
          "internalType": "uint256",
          "name": "value",
          "type": "uint256"
        },
        {
          "internalType": "uint256",
          "name": "deadline",
          "type": "uint256"
        },
        {
          "internalType": "uint8",
          "name": "v",
          "type": "uint8"
        },
        {
          "internalType": "bytes32",
          "name": "r",
          "type": "bytes32"
        },
        {
          "internalType": "bytes32",
          "name": "s",
          "type": "bytes32"
        }
      ],
      "name": "permit",
      "outputs": [],
      "stateMutability": "nonpayable",
      "type": "function"
    },
    {
      "inputs": [
        {
          "internalType": "address",
          "name": "from",
          "type": "address"
        },
        {
          "internalType": "address",
          "name": "to",
          "type": "address"
        },
        {
          "internalType": "uint256",
          "name": "value",
          "type": "uint256"
        },
        {
          "internalType": "uint256",
          "name": "validAfter",
          "type": "uint256"
        },
        {
          "internalType": "uint256",
          "name": "validBefore",
          "type": "uint256"
        },
        {
          "internalType": "bytes32",
          "name": "nonce",
          "type": "bytes32"
        },
        {
          "internalType": "uint8",
          "name": "v",
          "type": "uint8"
        },
        {
          "internalType": "bytes32",
          "name": "r",
          "type": "bytes32"
        },
        {
          "internalType": "bytes32",
          "name": "s",
          "type": "bytes32"
        }
      ],
      "name": "receiveWithAuthorization",
      "outputs": [],
      "stateMutability": "nonpayable",
      "type": "function"
    },
    {
      "inputs": [
        {
          "internalType": "address",
          "name": "newMetadataManager",
          "type": "address"
        }
      ],
      "name": "setMetadataManager",
      "outputs": [
        {
          "internalType": "bool",
          "name": "",
          "type": "bool"
        }
      ],
      "stateMutability": "nonpayable",
      "type": "function"
    },
    {
      "inputs": [
        {
          "internalType": "uint16",
          "name": "newCap",
          "type": "uint16"
        }
      ],
      "name": "setMintCap",
      "outputs": [
        {
          "internalType": "bool",
          "name": "",
          "type": "bool"
        }
      ],
      "stateMutability": "nonpayable",
      "type": "function"
    },
    {
      "inputs": [
        {
          "internalType": "uint32",
          "name": "period",
          "type": "uint32"
        }
      ],
      "name": "setSupplyChangeWaitingPeriod",
      "outputs": [
        {
          "internalType": "bool",
          "name": "",
          "type": "bool"
        }
      ],
      "stateMutability": "nonpayable",
      "type": "function"
    },
    {
      "inputs": [
        {
          "internalType": "address",
          "name": "newSupplyManager",
          "type": "address"
        }
      ],
      "name": "setSupplyManager",
      "outputs": [
        {
          "internalType": "bool",
          "name": "",
          "type": "bool"
        }
      ],
      "stateMutability": "nonpayable",
      "type": "function"
    },
    {
      "inputs": [],
      "name": "supplyChangeAllowedAfter",
      "outputs": [
        {
          "internalType": "uint256",
          "name": "",
          "type": "uint256"
        }
      ],
      "stateMutability": "view",
      "type": "function"
    },
    {
      "inputs": [],
      "name": "supplyChangeWaitingPeriod",
      "outputs": [
        {
          "internalType": "uint32",
          "name": "",
          "type": "uint32"
        }
      ],
      "stateMutability": "view",
      "type": "function"
    },
    {
      "inputs": [],
      "name": "supplyChangeWaitingPeriodMinimum",
      "outputs": [
        {
          "internalType": "uint32",
          "name": "",
          "type": "uint32"
        }
      ],
      "stateMutability": "view",
      "type": "function"
    },
    {
      "inputs": [],
      "name": "supplyManager",
      "outputs": [
        {
          "internalType": "address",
          "name": "",
          "type": "address"
        }
      ],
      "stateMutability": "view",
      "type": "function"
    },
    {
      "inputs": [],
      "name": "symbol",
      "outputs": [
        {
          "internalType": "string",
          "name": "",
          "type": "string"
        }
      ],
      "stateMutability": "view",
      "type": "function"
    },
    {
      "inputs": [],
      "name": "totalSupply",
      "outputs": [
        {
          "internalType": "uint256",
          "name": "",
          "type": "uint256"
        }
      ],
      "stateMutability": "view",
      "type": "function"
    },
    {
      "inputs": [
        {
          "internalType": "address",
          "name": "dst",
          "type": "address"
        },
        {
          "internalType": "uint256",
          "name": "amount",
          "type": "uint256"
        }
      ],
      "name": "transfer",
      "outputs": [
        {
          "internalType": "bool",
          "name": "",
          "type": "bool"
        }
      ],
      "stateMutability": "nonpayable",
      "type": "function"
    },
    {
      "inputs": [
        {
          "internalType": "address",
          "name": "src",
          "type": "address"
        },
        {
          "internalType": "address",
          "name": "dst",
          "type": "address"
        },
        {
          "internalType": "uint256",
          "name": "amount",
          "type": "uint256"
        }
      ],
      "name": "transferFrom",
      "outputs": [
        {
          "internalType": "bool",
          "name": "",
          "type": "bool"
        }
      ],
      "stateMutability": "nonpayable",
      "type": "function"
    },
    {
      "inputs": [
        {
          "internalType": "address",
          "name": "from",
          "type": "address"
        },
        {
          "internalType": "address",
          "name": "to",
          "type": "address"
        },
        {
          "internalType": "uint256",
          "name": "value",
          "type": "uint256"
        },
        {
          "internalType": "uint256",
          "name": "validAfter",
          "type": "uint256"
        },
        {
          "internalType": "uint256",
          "name": "validBefore",
          "type": "uint256"
        },
        {
          "internalType": "bytes32",
          "name": "nonce",
          "type": "bytes32"
        },
        {
          "internalType": "uint8",
          "name": "v",
          "type": "uint8"
        },
        {
          "internalType": "bytes32",
          "name": "r",
          "type": "bytes32"
        },
        {
          "internalType": "bytes32",
          "name": "s",
          "type": "bytes32"
        }
      ],
      "name": "transferWithAuthorization",
      "outputs": [],
      "stateMutability": "nonpayable",
      "type": "function"
    },
    {
      "inputs": [
        {
          "internalType": "string",
          "name": "tokenName",
          "type": "string"
        },
        {
          "internalType": "string",
          "name": "tokenSymbol",
          "type": "string"
        }
      ],
      "name": "updateTokenMetadata",
      "outputs": [
        {
          "internalType": "bool",
          "name": "",
          "type": "bool"
        }
      ],
      "stateMutability": "nonpayable",
      "type": "function"
    }
  ],
  "transactionHash": "0x59e8fa182e06963513e99bb9e5a6e96fa52037fed72fb1b9a536b6733debc459",
  "args": [
    "0x0A26a1eBca217c8090f9a7759Ef82f19a1E19ea1",
    "0x0A26a1eBca217c8090f9a7759Ef82f19a1E19ea1",
    1640995199
  ],
  "solcInputHash": "c07a6e35bcea225e414aa9a698302f39",
  "bytecode": "0x60806040526040518060400160405280601a81526020017f4b696e676d616b657220476f7665726e616e636520546f6b656e00000000000081525060009080519060200190620000519291906200038a565b506040518060400160405280600481526020017f4b494e4700000000000000000000000000000000000000000000000000000000815250600190805190602001906200009f9291906200038a565b5069130ee8e71790444000006002556301e13380600660006101000a81548163ffffffff021916908363ffffffff160217905550620dbba0600660046101000a81548163ffffffff021916908363ffffffff1602179055503480156200010457600080fd5b5060405162004ca638038062004ca683398181016040528101906200012a919062000468565b4281101562000170576040517f08c379a00000000000000000000000000000000000000000000000000000000081526004016200016790620004f6565b60405180910390fd5b600254600860003373ffffffffffffffffffffffffffffffffffffffff1673ffffffffffffffffffffffffffffffffffffffff168152602001908152602001600020819055503373ffffffffffffffffffffffffffffffffffffffff16600073ffffffffffffffffffffffffffffffffffffffff167fddf252ad1be2c89b69c2b068fc378daa952ba7f163c4a11628f55a4df523b3ef60025460405162000218919062000518565b60405180910390a38060058190555081600360006101000a81548173ffffffffffffffffffffffffffffffffffffffff021916908373ffffffffffffffffffffffffffffffffffffffff1602179055508173ffffffffffffffffffffffffffffffffffffffff16600073ffffffffffffffffffffffffffffffffffffffff167f0cff5c8e2b1e51135595ff4ebaefab9ef5b26373c3b84cbdc4677bb41468843b60405160405180910390a382600460006101000a81548173ffffffffffffffffffffffffffffffffffffffff021916908373ffffffffffffffffffffffffffffffffffffffff160217905550600460009054906101000a900473ffffffffffffffffffffffffffffffffffffffff1673ffffffffffffffffffffffffffffffffffffffff16600073ffffffffffffffffffffffffffffffffffffffff167f65e484da94d3a093b70b54f45dda42146a4e7f7f6507a09e39f67ca388987d3e60405160405180910390a35050506200066c565b828054620003989062000584565b90600052602060002090601f016020900481019282620003bc576000855562000408565b82601f10620003d757805160ff191683800117855562000408565b8280016001018555821562000408579182015b8281111562000407578251825591602001919060010190620003ea565b5b5090506200041791906200041b565b5090565b5b80821115620004365760008160009055506001016200041c565b5090565b6000815190506200044b8162000638565b92915050565b600081519050620004628162000652565b92915050565b6000806000606084860312156200047e57600080fd5b60006200048e868287016200043a565b9350506020620004a1868287016200043a565b9250506040620004b48682870162000451565b9150509250925092565b6000620004cd603a8362000535565b9150620004da82620005e9565b604082019050919050565b620004f0816200057a565b82525050565b600060208201905081810360008301526200051181620004be565b9050919050565b60006020820190506200052f6000830184620004e5565b92915050565b600082825260208201905092915050565b600062000553826200055a565b9050919050565b600073ffffffffffffffffffffffffffffffffffffffff82169050919050565b6000819050919050565b600060028204905060018216806200059d57607f821691505b60208210811415620005b457620005b3620005ba565b5b50919050565b7f4e487b7100000000000000000000000000000000000000000000000000000000600052602260045260246000fd5b7f4b494e473a3a636f6e7374727563746f723a206d696e74696e672063616e206f60008201527f6e6c7920626567696e206166746572206465706c6f796d656e74000000000000602082015250565b620006438162000546565b81146200064f57600080fd5b50565b6200065d816200057a565b81146200066957600080fd5b50565b61462a806200067c6000396000f3fe608060405234801561001057600080fd5b50600436106102115760003560e01c80637ecebe0011610125578063a9059cbb116100ad578063e54420261161007c578063e544202614610692578063e94a0102146106c2578063ed24911d146106f2578063ef55bec614610710578063f147389f1461072c57610211565b8063a9059cbb146105fa578063d505accf1461062a578063dd62ed3e14610646578063e3ee160e1461067657610211565b806395d89b41116100f457806395d89b41146105405780639dc29fac1461055e5780639e4e73181461058e578063a0cc6a68146105ac578063a457c2d7146105ca57610211565b80637ecebe00146104b65780637f2eecc3146104e6578063892b0edf14610504578063941acc491461052257610211565b806320606b70116101a8578063395093511161017757806339509351146103ea57806340c10f191461041a5780634c9e91a41461044a57806370a082311461046857806376c71ca11461049857610211565b806320606b701461036057806323b872dd1461037e57806330adf81f146103ae578063313ce567146103cc57610211565b806318160ddd116101e457806318160ddd146102b2578063191250d7146102d05780631bb8a4c6146103005780631d4f80721461033057610211565b8063055c6e191461021657806306fdde0314610234578063095ea7b314610252578063124cc07714610282575b600080fd5b61021e61074a565b60405161022b919061385b565b60405180910390f35b61023c610751565b60405161024991906134fe565b60405180910390f35b61026c60048036038101906102679190612cb0565b6107df565b6040516102799190613360565b60405180910390f35b61029c60048036038101906102979190612a5c565b6107f6565b6040516102a99190613360565b60405180910390f35b6102ba61094e565b6040516102c79190613840565b60405180910390f35b6102ea60048036038101906102e59190612a5c565b610954565b6040516102f79190613360565b60405180910390f35b61031a60048036038101906103159190612d58565b610aac565b6040516103279190613360565b60405180910390f35b61034a60048036038101906103459190612d81565b610bb6565b6040516103579190613360565b60405180910390f35b610368610d10565b604051610375919061337b565b60405180910390f35b61039860048036038101906103939190612ac1565b610d37565b6040516103a59190613360565b60405180910390f35b6103b6610f50565b6040516103c3919061337b565b60405180910390f35b6103d4610f77565b6040516103e19190613876565b60405180910390f35b61040460048036038101906103ff9190612cb0565b610f7c565b6040516104119190613360565b60405180910390f35b610434600480360381019061042f9190612cb0565b610f93565b6040516104419190613360565b60405180910390f35b61045261118e565b60405161045f9190613345565b60405180910390f35b610482600480360381019061047d9190612a5c565b6111b4565b60405161048f9190613840565b60405180910390f35b6104a06111fd565b6040516104ad919061385b565b60405180910390f35b6104d060048036038101906104cb9190612a5c565b611213565b6040516104dd9190613840565b60405180910390f35b6104ee61122b565b6040516104fb919061337b565b60405180910390f35b61050c611252565b6040516105199190613840565b60405180910390f35b61052a611258565b604051610537919061385b565b60405180910390f35b61054861126e565b60405161055591906134fe565b60405180910390f35b61057860048036038101906105739190612cb0565b6112fc565b6040516105859190613360565b60405180910390f35b610596611682565b6040516105a3919061337b565b60405180910390f35b6105b46116a9565b6040516105c1919061337b565b60405180910390f35b6105e460048036038101906105df9190612cb0565b6116d0565b6040516105f19190613360565b60405180910390f35b610614600480360381019061060f9190612cb0565b6116e7565b6040516106219190613360565b60405180910390f35b610644600480360381019061063f9190612bd6565b6116fe565b005b610660600480360381019061065b9190612a85565b61180e565b60405161066d9190613840565b60405180910390f35b610690600480360381019061068b9190612b10565b611895565b005b6106ac60048036038101906106a79190612cec565b611ae2565b6040516106b99190613360565b60405180910390f35b6106dc60048036038101906106d79190612c74565b611c06565b6040516106e99190613360565b60405180910390f35b6106fa611c35565b604051610707919061337b565b60405180910390f35b61072a60048036038101906107259190612b10565b611cce565b005b610734611f89565b6040516107419190613345565b60405180910390f35b6276a70081565b6000805461075e90613ae3565b80601f016020809104026020016040519081016040528092919081815260200182805461078a90613ae3565b80156107d75780601f106107ac576101008083540402835291602001916107d7565b820191906000526020600020905b8154815290600101906020018083116107ba57829003601f168201915b505050505081565b60006107ec338484611faf565b6001905092915050565b6000600460009054906101000a900473ffffffffffffffffffffffffffffffffffffffff1673ffffffffffffffffffffffffffffffffffffffff163373ffffffffffffffffffffffffffffffffffffffff1614610888576040517f08c379a000000000000000000000000000000000000000000000000000000000815260040161087f90613760565b60405180910390fd5b8173ffffffffffffffffffffffffffffffffffffffff16600460009054906101000a900473ffffffffffffffffffffffffffffffffffffffff1673ffffffffffffffffffffffffffffffffffffffff167f65e484da94d3a093b70b54f45dda42146a4e7f7f6507a09e39f67ca388987d3e60405160405180910390a381600460006101000a81548173ffffffffffffffffffffffffffffffffffffffff021916908373ffffffffffffffffffffffffffffffffffffffff16021790555060019050919050565b60025481565b6000600360009054906101000a900473ffffffffffffffffffffffffffffffffffffffff1673ffffffffffffffffffffffffffffffffffffffff163373ffffffffffffffffffffffffffffffffffffffff16146109e6576040517f08c379a00000000000000000000000000000000000000000000000000000000081526004016109dd90613600565b60405180910390fd5b8173ffffffffffffffffffffffffffffffffffffffff16600360009054906101000a900473ffffffffffffffffffffffffffffffffffffffff1673ffffffffffffffffffffffffffffffffffffffff167f0cff5c8e2b1e51135595ff4ebaefab9ef5b26373c3b84cbdc4677bb41468843b60405160405180910390a381600360006101000a81548173ffffffffffffffffffffffffffffffffffffffff021916908373ffffffffffffffffffffffffffffffffffffffff16021790555060019050919050565b6000600360009054906101000a900473ffffffffffffffffffffffffffffffffffffffff1673ffffffffffffffffffffffffffffffffffffffff163373ffffffffffffffffffffffffffffffffffffffff1614610b3e576040517f08c379a0000000000000000000000000000000000000000000000000000000008152600401610b3590613680565b60405180910390fd5b8161ffff16600660049054906101000a900463ffffffff1663ffffffff167f07eb9b533f3e24039e5e8ce76234bdd34aefc224c0d4e44662ac75aa9b0f5c0160405160405180910390a38161ffff16600660046101000a81548163ffffffff021916908363ffffffff16021790555060019050919050565b6000600360009054906101000a900473ffffffffffffffffffffffffffffffffffffffff1673ffffffffffffffffffffffffffffffffffffffff163373ffffffffffffffffffffffffffffffffffffffff1614610c48576040517f08c379a0000000000000000000000000000000000000000000000000000000008152600401610c3f90613540565b60405180910390fd5b6276a70063ffffffff168263ffffffff161015610c9a576040517f08c379a0000000000000000000000000000000000000000000000000000000008152600401610c91906137c0565b60405180910390fd5b8163ffffffff16600660009054906101000a900463ffffffff1663ffffffff167f769f3176a8ee46ae63681a1a630bec4772f7af23a4eeec90eaff41a0e8f1ac6960405160405180910390a381600660006101000a81548163ffffffff021916908363ffffffff16021790555060019050919050565b7f8b73c3c69bb8fe3d512ecc4cf759cc79239f7b179b0ffacaa9a75d522b39400f60001b81565b6000803390506000600760008773ffffffffffffffffffffffffffffffffffffffff1673ffffffffffffffffffffffffffffffffffffffff16815260200190815260200160002060008373ffffffffffffffffffffffffffffffffffffffff1673ffffffffffffffffffffffffffffffffffffffff1681526020019081526020016000205490508573ffffffffffffffffffffffffffffffffffffffff168273ffffffffffffffffffffffffffffffffffffffff1614158015610e1a57507fffffffffffffffffffffffffffffffffffffffffffffffffffffffffffffffff8114155b15610f38576000610e4e8560405180606001604052806035815260200161455f603591398461217a9092919063ffffffff16565b905080600760008973ffffffffffffffffffffffffffffffffffffffff1673ffffffffffffffffffffffffffffffffffffffff16815260200190815260200160002060008573ffffffffffffffffffffffffffffffffffffffff1673ffffffffffffffffffffffffffffffffffffffff168152602001908152602001600020819055508273ffffffffffffffffffffffffffffffffffffffff168773ffffffffffffffffffffffffffffffffffffffff167f8c5be1e5ebec7d5bd14f71427d1e84f3dd0314c0f7b2291e5b200ac8c7c3b92583604051610f2e9190613840565b60405180910390a3505b610f438686866121cf565b6001925050509392505050565b7f6e71edae12b1b97f4d1f60370fef10105fa2faae0126114a169c64845d6126c960001b81565b601281565b6000610f893384846123e6565b6001905092915050565b6000600360009054906101000a900473ffffffffffffffffffffffffffffffffffffffff1673ffffffffffffffffffffffffffffffffffffffff163373ffffffffffffffffffffffffffffffffffffffff1614611025576040517f08c379a000000000000000000000000000000000000000000000000000000000815260040161101c90613780565b60405180910390fd5b600073ffffffffffffffffffffffffffffffffffffffff168373ffffffffffffffffffffffffffffffffffffffff161415611095576040517f08c379a000000000000000000000000000000000000000000000000000000000815260040161108c906137e0565b60405180910390fd5b620f4240600660049054906101000a900463ffffffff1663ffffffff166002546110bf91906139ca565b6110c99190613999565b82111561110b576040517f08c379a0000000000000000000000000000000000000000000000000000000008152600401611102906137a0565b60405180910390fd5b600554421015611150576040517f08c379a0000000000000000000000000000000000000000000000000000000008152600401611147906135e0565b60405180910390fd5b600660009054906101000a900463ffffffff1663ffffffff16426111749190613943565b600581905550611184838361247d565b6001905092915050565b600460009054906101000a900473ffffffffffffffffffffffffffffffffffffffff1681565b6000600860008373ffffffffffffffffffffffffffffffffffffffff1673ffffffffffffffffffffffffffffffffffffffff168152602001908152602001600020549050919050565b600660049054906101000a900463ffffffff1681565b60096020528060005260406000206000915090505481565b7fd099cc98ef71107a616c4f0f941f04c322d8e254fe26b3c6668db87aae413de860001b81565b60055481565b600660009054906101000a900463ffffffff1681565b6001805461127b90613ae3565b80601f01602080910402602001604051908101604052809291908181526020018280546112a790613ae3565b80156112f45780601f106112c9576101008083540402835291602001916112f4565b820191906000526020600020905b8154815290600101906020018083116112d757829003601f168201915b505050505081565b600080339050600360009054906101000a900473ffffffffffffffffffffffffffffffffffffffff1673ffffffffffffffffffffffffffffffffffffffff168173ffffffffffffffffffffffffffffffffffffffff1614611392576040517f08c379a000000000000000000000000000000000000000000000000000000000815260040161138990613800565b60405180910390fd5b600073ffffffffffffffffffffffffffffffffffffffff168473ffffffffffffffffffffffffffffffffffffffff161415611402576040517f08c379a00000000000000000000000000000000000000000000000000000000081526004016113f990613700565b60405180910390fd5b600554421015611447576040517f08c379a000000000000000000000000000000000000000000000000000000000815260040161143e90613580565b60405180910390fd5b6000600760008673ffffffffffffffffffffffffffffffffffffffff1673ffffffffffffffffffffffffffffffffffffffff16815260200190815260200160002060008373ffffffffffffffffffffffffffffffffffffffff1673ffffffffffffffffffffffffffffffffffffffff1681526020019081526020016000205490508473ffffffffffffffffffffffffffffffffffffffff168273ffffffffffffffffffffffffffffffffffffffff161415801561152457507fffffffffffffffffffffffffffffffffffffffffffffffffffffffffffffffff8114155b15611642576000611558856040518060600160405280602981526020016144fe602991398461217a9092919063ffffffff16565b905080600760008873ffffffffffffffffffffffffffffffffffffffff1673ffffffffffffffffffffffffffffffffffffffff16815260200190815260200160002060008573ffffffffffffffffffffffffffffffffffffffff1673ffffffffffffffffffffffffffffffffffffffff168152602001908152602001600020819055508273ffffffffffffffffffffffffffffffffffffffff168673ffffffffffffffffffffffffffffffffffffffff167f8c5be1e5ebec7d5bd14f71427d1e84f3dd0314c0f7b2291e5b200ac8c7c3b925836040516116389190613840565b60405180910390a3505b600660009054906101000a900463ffffffff1663ffffffff16426116669190613943565b6005819055506116768585612589565b60019250505092915050565b7fc89efdaa54c0f20c7adf612882df0950f5a951637e0307cdcb4c672f298b8bc660001b81565b7f7c7c6cdb67a18743f49ec6fa9b35f50d52ed05cbed4cc592e13b44501c1a226760001b81565b60006116dd3384846126d7565b6001905092915050565b60006116f43384846121cf565b6001905092915050565b42841015611741576040517f08c379a0000000000000000000000000000000000000000000000000000000008152600401611738906135c0565b60405180910390fd5b60007f6e71edae12b1b97f4d1f60370fef10105fa2faae0126114a169c64845d6126c960001b888888600960008d73ffffffffffffffffffffffffffffffffffffffff1673ffffffffffffffffffffffffffffffffffffffff16815260200190815260200160002060008154809291906117ba90613b46565b91905055896040516020016117d496959493929190613396565b6040516020818303038152906040528051906020012090506117f9888286868661278f565b611804888888611faf565b5050505050505050565b6000600760008473ffffffffffffffffffffffffffffffffffffffff1673ffffffffffffffffffffffffffffffffffffffff16815260200190815260200160002060008373ffffffffffffffffffffffffffffffffffffffff1673ffffffffffffffffffffffffffffffffffffffff16815260200190815260200160002054905092915050565b8542116118d7576040517f08c379a00000000000000000000000000000000000000000000000000000000081526004016118ce906136a0565b60405180910390fd5b844210611919576040517f08c379a0000000000000000000000000000000000000000000000000000000008152600401611910906136c0565b60405180910390fd5b600a60008a73ffffffffffffffffffffffffffffffffffffffff1673ffffffffffffffffffffffffffffffffffffffff168152602001908152602001600020600085815260200190815260200160002060009054906101000a900460ff16156119b7576040517f08c379a00000000000000000000000000000000000000000000000000000000081526004016119ae90613740565b60405180910390fd5b60007f7c7c6cdb67a18743f49ec6fa9b35f50d52ed05cbed4cc592e13b44501c1a226760001b8a8a8a8a8a8a6040516020016119f997969594939291906133f7565b604051602081830303815290604052805190602001209050611a1e8a8286868661278f565b6001600a60008c73ffffffffffffffffffffffffffffffffffffffff1673ffffffffffffffffffffffffffffffffffffffff168152602001908152602001600020600087815260200190815260200160002060006101000a81548160ff021916908315150217905550848a73ffffffffffffffffffffffffffffffffffffffff167f98de503528ee59b575ef0c0a2576a82497bfc029a5685b209e9ec333479b10a560405160405180910390a3611ad68a8a8a6121cf565b50505050505050505050565b6000600460009054906101000a900473ffffffffffffffffffffffffffffffffffffffff1673ffffffffffffffffffffffffffffffffffffffff163373ffffffffffffffffffffffffffffffffffffffff1614611b74576040517f08c379a0000000000000000000000000000000000000000000000000000000008152600401611b6b906135a0565b60405180910390fd5b8260009080519060200190611b8a9291906128d3565b508160019080519060200190611ba19291906128d3565b506001604051611bb191906132f7565b60405180910390206000604051611bc891906132f7565b60405180910390207febb95b1e6f8658c3f6a1f6f59a9bea23721d47f22a69339010082475f7db6b2c60405160405180910390a36001905092915050565b600a6020528160005260406000206020528060005260406000206000915091509054906101000a900460ff1681565b60007f8b73c3c69bb8fe3d512ecc4cf759cc79239f7b179b0ffacaa9a75d522b39400f60001b6000604051611c6a91906132e0565b60405180910390207fc89efdaa54c0f20c7adf612882df0950f5a951637e0307cdcb4c672f298b8bc660001b611c9e6128c6565b30604051602001611cb3959493929190613466565b60405160208183030381529060405280519060200120905090565b3373ffffffffffffffffffffffffffffffffffffffff168873ffffffffffffffffffffffffffffffffffffffff1614611d3c576040517f08c379a0000000000000000000000000000000000000000000000000000000008152600401611d3390613720565b60405180910390fd5b854211611d7e576040517f08c379a0000000000000000000000000000000000000000000000000000000008152600401611d7590613620565b60405180910390fd5b844210611dc0576040517f08c379a0000000000000000000000000000000000000000000000000000000008152600401611db7906136e0565b60405180910390fd5b600a60008a73ffffffffffffffffffffffffffffffffffffffff1673ffffffffffffffffffffffffffffffffffffffff168152602001908152602001600020600085815260200190815260200160002060009054906101000a900460ff1615611e5e576040517f08c379a0000000000000000000000000000000000000000000000000000000008152600401611e5590613640565b60405180910390fd5b60007fd099cc98ef71107a616c4f0f941f04c322d8e254fe26b3c6668db87aae413de860001b8a8a8a8a8a8a604051602001611ea097969594939291906133f7565b604051602081830303815290604052805190602001209050611ec58a8286868661278f565b6001600a60008c73ffffffffffffffffffffffffffffffffffffffff1673ffffffffffffffffffffffffffffffffffffffff168152602001908152602001600020600087815260200190815260200160002060006101000a81548160ff021916908315150217905550848a73ffffffffffffffffffffffffffffffffffffffff167f98de503528ee59b575ef0c0a2576a82497bfc029a5685b209e9ec333479b10a560405160405180910390a3611f7d8a8a8a6121cf565b50505050505050505050565b600360009054906101000a900473ffffffffffffffffffffffffffffffffffffffff1681565b600073ffffffffffffffffffffffffffffffffffffffff168373ffffffffffffffffffffffffffffffffffffffff16141561201f576040517f08c379a000000000000000000000000000000000000000000000000000000000815260040161201690613520565b60405180910390fd5b600073ffffffffffffffffffffffffffffffffffffffff168273ffffffffffffffffffffffffffffffffffffffff16141561208f576040517f08c379a000000000000000000000000000000000000000000000000000000000815260040161208690613820565b60405180910390fd5b80600760008573ffffffffffffffffffffffffffffffffffffffff1673ffffffffffffffffffffffffffffffffffffffff16815260200190815260200160002060008473ffffffffffffffffffffffffffffffffffffffff1673ffffffffffffffffffffffffffffffffffffffff168152602001908152602001600020819055508173ffffffffffffffffffffffffffffffffffffffff168373ffffffffffffffffffffffffffffffffffffffff167f8c5be1e5ebec7d5bd14f71427d1e84f3dd0314c0f7b2291e5b200ac8c7c3b9258360405161216d9190613840565b60405180910390a3505050565b60008383111582906121c2576040517f08c379a00000000000000000000000000000000000000000000000000000000081526004016121b991906134fe565b60405180910390fd5b5082840390509392505050565b600073ffffffffffffffffffffffffffffffffffffffff168273ffffffffffffffffffffffffffffffffffffffff16141561223f576040517f08c379a000000000000000000000000000000000000000000000000000000000815260040161223690613560565b60405180910390fd5b6122ab8160405180606001604052806034815260200161459460349139600860008773ffffffffffffffffffffffffffffffffffffffff1673ffffffffffffffffffffffffffffffffffffffff1681526020019081526020016000205461217a9092919063ffffffff16565b600860008573ffffffffffffffffffffffffffffffffffffffff1673ffffffffffffffffffffffffffffffffffffffff1681526020019081526020016000208190555080600860008473ffffffffffffffffffffffffffffffffffffffff1673ffffffffffffffffffffffffffffffffffffffff168152602001908152602001600020546123399190613943565b600860008473ffffffffffffffffffffffffffffffffffffffff1673ffffffffffffffffffffffffffffffffffffffff168152602001908152602001600020819055508173ffffffffffffffffffffffffffffffffffffffff168373ffffffffffffffffffffffffffffffffffffffff167fddf252ad1be2c89b69c2b068fc378daa952ba7f163c4a11628f55a4df523b3ef836040516123d99190613840565b60405180910390a3505050565b612478838383600760008873ffffffffffffffffffffffffffffffffffffffff1673ffffffffffffffffffffffffffffffffffffffff16815260200190815260200160002060008773ffffffffffffffffffffffffffffffffffffffff1673ffffffffffffffffffffffffffffffffffffffff168152602001908152602001600020546124739190613943565b611faf565b505050565b8060025461248b9190613943565b60028190555080600860008473ffffffffffffffffffffffffffffffffffffffff1673ffffffffffffffffffffffffffffffffffffffff168152602001908152602001600020546124dc9190613943565b600860008473ffffffffffffffffffffffffffffffffffffffff1673ffffffffffffffffffffffffffffffffffffffff168152602001908152602001600020819055508173ffffffffffffffffffffffffffffffffffffffff16600073ffffffffffffffffffffffffffffffffffffffff167fddf252ad1be2c89b69c2b068fc378daa952ba7f163c4a11628f55a4df523b3ef8360405161257d9190613840565b60405180910390a35050565b6125f5816040518060600160405280602d81526020016145c8602d9139600860008673ffffffffffffffffffffffffffffffffffffffff1673ffffffffffffffffffffffffffffffffffffffff1681526020019081526020016000205461217a9092919063ffffffff16565b600860008473ffffffffffffffffffffffffffffffffffffffff1673ffffffffffffffffffffffffffffffffffffffff16815260200190815260200160002081905550612667816040518060600160405280602d81526020016144d1602d913960025461217a9092919063ffffffff16565b600281905550600073ffffffffffffffffffffffffffffffffffffffff168273ffffffffffffffffffffffffffffffffffffffff167fddf252ad1be2c89b69c2b068fc378daa952ba7f163c4a11628f55a4df523b3ef836040516126cb9190613840565b60405180910390a35050565b61278a83836127858460405180606001604052806038815260200161452760389139600760008a73ffffffffffffffffffffffffffffffffffffffff1673ffffffffffffffffffffffffffffffffffffffff16815260200190815260200160002060008973ffffffffffffffffffffffffffffffffffffffff1673ffffffffffffffffffffffffffffffffffffffff1681526020019081526020016000205461217a9092919063ffffffff16565b611faf565b505050565b6000612799611c35565b856040516020016127ab92919061330e565b6040516020818303038152906040528051906020012090506000600182868686604051600081526020016040526040516127e894939291906134b9565b6020604051602081039080840390855afa15801561280a573d6000803e3d6000fd5b505050602060405103519050600073ffffffffffffffffffffffffffffffffffffffff168173ffffffffffffffffffffffffffffffffffffffff161415801561287e57508673ffffffffffffffffffffffffffffffffffffffff168173ffffffffffffffffffffffffffffffffffffffff16145b6128bd576040517f08c379a00000000000000000000000000000000000000000000000000000000081526004016128b490613660565b60405180910390fd5b50505050505050565b6000804690508091505090565b8280546128df90613ae3565b90600052602060002090601f0160209004810192826129015760008555612948565b82601f1061291a57805160ff1916838001178555612948565b82800160010185558215612948579182015b8281111561294757825182559160200191906001019061292c565b5b5090506129559190612959565b5090565b5b8082111561297257600081600090555060010161295a565b5090565b6000612989612984846138b6565b613891565b9050828152602081018484840111156129a157600080fd5b6129ac848285613aa1565b509392505050565b6000813590506129c381614446565b92915050565b6000813590506129d88161445d565b92915050565b600082601f8301126129ef57600080fd5b81356129ff848260208601612976565b91505092915050565b600081359050612a1781614474565b92915050565b600081359050612a2c8161448b565b92915050565b600081359050612a41816144a2565b92915050565b600081359050612a56816144b9565b92915050565b600060208284031215612a6e57600080fd5b6000612a7c848285016129b4565b91505092915050565b60008060408385031215612a9857600080fd5b6000612aa6858286016129b4565b9250506020612ab7858286016129b4565b9150509250929050565b600080600060608486031215612ad657600080fd5b6000612ae4868287016129b4565b9350506020612af5868287016129b4565b9250506040612b0686828701612a1d565b9150509250925092565b60008060008060008060008060006101208a8c031215612b2f57600080fd5b6000612b3d8c828d016129b4565b9950506020612b4e8c828d016129b4565b9850506040612b5f8c828d01612a1d565b9750506060612b708c828d01612a1d565b9650506080612b818c828d01612a1d565b95505060a0612b928c828d016129c9565b94505060c0612ba38c828d01612a47565b93505060e0612bb48c828d016129c9565b925050610100612bc68c828d016129c9565b9150509295985092959850929598565b600080600080600080600060e0888a031215612bf157600080fd5b6000612bff8a828b016129b4565b9750506020612c108a828b016129b4565b9650506040612c218a828b01612a1d565b9550506060612c328a828b01612a1d565b9450506080612c438a828b01612a47565b93505060a0612c548a828b016129c9565b92505060c0612c658a828b016129c9565b91505092959891949750929550565b60008060408385031215612c8757600080fd5b6000612c95858286016129b4565b9250506020612ca6858286016129c9565b9150509250929050565b60008060408385031215612cc357600080fd5b6000612cd1858286016129b4565b9250506020612ce285828601612a1d565b9150509250929050565b60008060408385031215612cff57600080fd5b600083013567ffffffffffffffff811115612d1957600080fd5b612d25858286016129de565b925050602083013567ffffffffffffffff811115612d4257600080fd5b612d4e858286016129de565b9150509250929050565b600060208284031215612d6a57600080fd5b6000612d7884828501612a08565b91505092915050565b600060208284031215612d9357600080fd5b6000612da184828501612a32565b91505092915050565b612db381613a24565b82525050565b612dc281613a36565b82525050565b612dd181613a42565b82525050565b612de8612de382613a42565b613b8f565b82525050565b60008154612dfb81613ae3565b612e05818661391c565b94506001821660008114612e205760018114612e3157612e64565b60ff19831686528186019350612e64565b612e3a856138e7565b60005b83811015612e5c57815481890152600182019150602081019050612e3d565b838801955050505b50505092915050565b6000612e7882613911565b612e828185613927565b9350612e92818560208601613ab0565b612e9b81613c55565b840191505092915050565b60008154612eb381613ae3565b612ebd8186613938565b94506001821660008114612ed85760018114612ee957612f1c565b60ff19831686528186019350612f1c565b612ef2856138fc565b60005b83811015612f1457815481890152600182019150602081019050612ef5565b838801955050505b50505092915050565b6000612f32602d83613927565b9150612f3d82613c66565b604082019050919050565b6000612f55604583613927565b9150612f6082613cb5565b606082019050919050565b6000612f78603a83613927565b9150612f8382613d2a565b604082019050919050565b6000612f9b602383613927565b9150612fa682613d79565b604082019050919050565b6000612fbe603883613927565b9150612fc982613dc8565b604082019050919050565b6000612fe1601f83613927565b9150612fec82613e17565b602082019050919050565b6000613004600283613938565b915061300f82613e40565b600282019050919050565b6000613027602383613927565b915061303282613e69565b604082019050919050565b600061304a602d83613927565b915061305582613eb8565b604082019050919050565b600061306d602983613927565b915061307882613f07565b604082019050919050565b6000613090602883613927565b915061309b82613f56565b604082019050919050565b60006130b3602483613927565b91506130be82613fa5565b604082019050919050565b60006130d6602d83613927565b91506130e182613ff4565b604082019050919050565b60006130f9602a83613927565b915061310482614043565b604082019050919050565b600061311c602483613927565b915061312782614092565b604082019050919050565b600061313f602383613927565b915061314a826140e1565b604082019050919050565b6000613162603183613927565b915061316d82614130565b604082019050919050565b6000613185602f83613927565b91506131908261417f565b604082019050919050565b60006131a8602983613927565b91506131b3826141ce565b604082019050919050565b60006131cb602f83613927565b91506131d68261421d565b604082019050919050565b60006131ee602b83613927565b91506131f98261426c565b604082019050919050565b6000613211601d83613927565b915061321c826142bb565b602082019050919050565b6000613234604483613927565b915061323f826142e4565b606082019050919050565b6000613257602f83613927565b915061326282614359565b604082019050919050565b600061327a602b83613927565b9150613285826143a8565b604082019050919050565b600061329d602b83613927565b91506132a8826143f7565b604082019050919050565b6132bc81613a7a565b82525050565b6132cb81613a84565b82525050565b6132da81613a94565b82525050565b60006132ec8284612dee565b915081905092915050565b60006133038284612ea6565b915081905092915050565b600061331982612ff7565b91506133258285612dd7565b6020820191506133358284612dd7565b6020820191508190509392505050565b600060208201905061335a6000830184612daa565b92915050565b60006020820190506133756000830184612db9565b92915050565b60006020820190506133906000830184612dc8565b92915050565b600060c0820190506133ab6000830189612dc8565b6133b86020830188612daa565b6133c56040830187612daa565b6133d260608301866132b3565b6133df60808301856132b3565b6133ec60a08301846132b3565b979650505050505050565b600060e08201905061340c600083018a612dc8565b6134196020830189612daa565b6134266040830188612daa565b61343360608301876132b3565b61344060808301866132b3565b61344d60a08301856132b3565b61345a60c0830184612dc8565b98975050505050505050565b600060a08201905061347b6000830188612dc8565b6134886020830187612dc8565b6134956040830186612dc8565b6134a260608301856132b3565b6134af6080830184612daa565b9695505050505050565b60006080820190506134ce6000830187612dc8565b6134db60208301866132d1565b6134e86040830185612dc8565b6134f56060830184612dc8565b95945050505050565b600060208201905081810360008301526135188184612e6d565b905092915050565b6000602082019050818103600083015261353981612f25565b9050919050565b6000602082019050818103600083015261355981612f48565b9050919050565b6000602082019050818103600083015261357981612f6b565b9050919050565b6000602082019050818103600083015261359981612f8e565b9050919050565b600060208201905081810360008301526135b981612fb1565b9050919050565b600060208201905081810360008301526135d981612fd4565b9050919050565b600060208201905081810360008301526135f98161301a565b9050919050565b600060208201905081810360008301526136198161303d565b9050919050565b6000602082019050818103600083015261363981613060565b9050919050565b6000602082019050818103600083015261365981613083565b9050919050565b60006020820190508181036000830152613679816130a6565b9050919050565b60006020820190508181036000830152613699816130c9565b9050919050565b600060208201905081810360008301526136b9816130ec565b9050919050565b600060208201905081810360008301526136d98161310f565b9050919050565b600060208201905081810360008301526136f981613132565b9050919050565b6000602082019050818103600083015261371981613155565b9050919050565b6000602082019050818103600083015261373981613178565b9050919050565b600060208201905081810360008301526137598161319b565b9050919050565b60006020820190508181036000830152613779816131be565b9050919050565b60006020820190508181036000830152613799816131e1565b9050919050565b600060208201905081810360008301526137b981613204565b9050919050565b600060208201905081810360008301526137d981613227565b9050919050565b600060208201905081810360008301526137f98161324a565b9050919050565b600060208201905081810360008301526138198161326d565b9050919050565b6000602082019050818103600083015261383981613290565b9050919050565b600060208201905061385560008301846132b3565b92915050565b600060208201905061387060008301846132c2565b92915050565b600060208201905061388b60008301846132d1565b92915050565b600061389b6138ac565b90506138a78282613b15565b919050565b6000604051905090565b600067ffffffffffffffff8211156138d1576138d0613c26565b5b6138da82613c55565b9050602081019050919050565b60008190508160005260206000209050919050565b60008190508160005260206000209050919050565b600081519050919050565b600081905092915050565b600082825260208201905092915050565b600081905092915050565b600061394e82613a7a565b915061395983613a7a565b9250827fffffffffffffffffffffffffffffffffffffffffffffffffffffffffffffffff0382111561398e5761398d613b99565b5b828201905092915050565b60006139a482613a7a565b91506139af83613a7a565b9250826139bf576139be613bc8565b5b828204905092915050565b60006139d582613a7a565b91506139e083613a7a565b9250817fffffffffffffffffffffffffffffffffffffffffffffffffffffffffffffffff0483118215151615613a1957613a18613b99565b5b828202905092915050565b6000613a2f82613a5a565b9050919050565b60008115159050919050565b6000819050919050565b600061ffff82169050919050565b600073ffffffffffffffffffffffffffffffffffffffff82169050919050565b6000819050919050565b600063ffffffff82169050919050565b600060ff82169050919050565b82818337600083830152505050565b60005b83811015613ace578082015181840152602081019050613ab3565b83811115613add576000848401525b50505050565b60006002820490506001821680613afb57607f821691505b60208210811415613b0f57613b0e613bf7565b5b50919050565b613b1e82613c55565b810181811067ffffffffffffffff82111715613b3d57613b3c613c26565b5b80604052505050565b6000613b5182613a7a565b91507fffffffffffffffffffffffffffffffffffffffffffffffffffffffffffffffff821415613b8457613b83613b99565b5b600182019050919050565b6000819050919050565b7f4e487b7100000000000000000000000000000000000000000000000000000000600052601160045260246000fd5b7f4e487b7100000000000000000000000000000000000000000000000000000000600052601260045260246000fd5b7f4e487b7100000000000000000000000000000000000000000000000000000000600052602260045260246000fd5b7f4e487b7100000000000000000000000000000000000000000000000000000000600052604160045260246000fd5b6000601f19601f8301169050919050565b7f4b494e473a3a5f617070726f76653a20617070726f76652066726f6d2074686560008201527f207a65726f206164647265737300000000000000000000000000000000000000602082015250565b7f4b494e473a3a736574537570706c794368616e676557616974696e675065726960008201527f6f643a206f6e6c7920534d2063616e206368616e67652077616974696e67207060208201527f6572696f64000000000000000000000000000000000000000000000000000000604082015250565b7f4b494e473a3a5f7472616e73666572546f6b656e733a2063616e6e6f7420747260008201527f616e7366657220746f20746865207a65726f2061646472657373000000000000602082015250565b7f4b494e473a3a6275726e3a206275726e696e67206e6f7420616c6c6f7765642060008201527f7965740000000000000000000000000000000000000000000000000000000000602082015250565b7f4b494e473a3a757064617465546f6b656e4d6574613a206f6e6c79204d4d206360008201527f616e2075706461746520746f6b656e206d657461646174610000000000000000602082015250565b7f4b494e473a3a7065726d69743a207369676e6174757265206578706972656400600082015250565b7f1901000000000000000000000000000000000000000000000000000000000000600082015250565b7f4b494e473a3a6d696e743a206d696e74696e67206e6f7420616c6c6f7765642060008201527f7965740000000000000000000000000000000000000000000000000000000000602082015250565b7f4b494e473a3a736574537570706c794d616e616765723a206f6e6c7920534d2060008201527f63616e206368616e676520534d00000000000000000000000000000000000000602082015250565b7f4b494e473a3a7265636569766557697468417574683a2061757468206e6f742060008201527f7965742076616c69640000000000000000000000000000000000000000000000602082015250565b7f4b494e473a3a7265636569766557697468417574683a206175746820616c726560008201527f6164792075736564000000000000000000000000000000000000000000000000602082015250565b7f4b494e473a3a76616c69646174655369673a20696e76616c6964207369676e6160008201527f7475726500000000000000000000000000000000000000000000000000000000602082015250565b7f4b494e473a3a7365744d696e744361703a206f6e6c7920534d2063616e20636860008201527f616e6765206d696e742063617000000000000000000000000000000000000000602082015250565b7f4b494e473a3a7472616e7366657257697468417574683a2061757468206e6f7460008201527f207965742076616c696400000000000000000000000000000000000000000000602082015250565b7f4b494e473a3a7472616e7366657257697468417574683a20617574682065787060008201527f6972656400000000000000000000000000000000000000000000000000000000602082015250565b7f4b494e473a3a7265636569766557697468417574683a2061757468206578706960008201527f7265640000000000000000000000000000000000000000000000000000000000602082015250565b7f4b494e473a3a6275726e3a2063616e6e6f74207472616e736665722066726f6d60008201527f20746865207a65726f2061646472657373000000000000000000000000000000602082015250565b7f4b494e473a3a7265636569766557697468417574683a2063616c6c6572206d7560008201527f7374206265207468652070617965650000000000000000000000000000000000602082015250565b7f4b494e473a3a7472616e7366657257697468417574683a206175746820616c7260008201527f6561647920757365640000000000000000000000000000000000000000000000602082015250565b7f4b494e473a3a7365744d657461646174614d616e616765723a206f6e6c79204d60008201527f4d2063616e206368616e6765204d4d0000000000000000000000000000000000602082015250565b7f4b494e473a3a6d696e743a206f6e6c792074686520737570706c794d616e616760008201527f65722063616e206d696e74000000000000000000000000000000000000000000602082015250565b7f4b494e473a3a6d696e743a206578636565646564206d696e7420636170000000600082015250565b7f4b494e473a3a736574537570706c794368616e676557616974696e675065726960008201527f6f643a2077616974696e6720706572696f64206d757374206265203e206d696e60208201527f696d756d00000000000000000000000000000000000000000000000000000000604082015250565b7f4b494e473a3a6d696e743a2063616e6e6f74207472616e7366657220746f207460008201527f6865207a65726f20616464726573730000000000000000000000000000000000602082015250565b7f4b494e473a3a6275726e3a206f6e6c792074686520737570706c794d616e616760008201527f65722063616e206275726e000000000000000000000000000000000000000000602082015250565b7f4b494e473a3a5f617070726f76653a20617070726f766520746f20746865207a60008201527f65726f2061646472657373000000000000000000000000000000000000000000602082015250565b61444f81613a24565b811461445a57600080fd5b50565b61446681613a42565b811461447157600080fd5b50565b61447d81613a4c565b811461448857600080fd5b50565b61449481613a7a565b811461449f57600080fd5b50565b6144ab81613a84565b81146144b657600080fd5b50565b6144c281613a94565b81146144cd57600080fd5b5056fe4b494e473a3a5f6275726e3a206275726e20616d6f756e74206578636565647320746f74616c20737570706c794b494e473a3a6275726e3a206275726e20616d6f756e74206578636565647320616c6c6f77616e63654b494e473a3a5f6465637265617365416c6c6f77616e63653a2064656372656173656420616c6c6f77616e63652062656c6f77207a65726f4b494e473a3a7472616e7366657246726f6d3a207472616e7366657220616d6f756e74206578636565647320616c6c6f77616e63654b494e473a3a5f7472616e73666572546f6b656e733a207472616e7366657220657863656564732066726f6d2062616c616e63654b494e473a3a5f6275726e3a206275726e20616d6f756e7420657863656564732066726f6d2062616c616e6365a2646970667358221220bbefe6011bec9fbfbb5d435e825ed3d3f8e9e28e8bc898ee2f5e2882d538b02064736f6c63430008010033",
  "devdoc": {
    "details": "The governance token for the Kingmaker protocol",
    "kind": "dev",
    "methods": {
      "allowance(address,address)": {
        "params": {
          "account": "The address of the account holding the funds",
          "spender": "The address of the account spending the funds"
        },
        "returns": {
          "_0": "The number of tokens approved"
        }
      },
      "approve(address,uint256)": {
        "details": "This will overwrite the approval amount for `spender` and is subject to issues noted [here](https://eips.ethereum.org/EIPS/eip-20#approve) It is recommended to use increaseAllowance and decreaseAllowance instead",
        "params": {
          "amount": "The number of tokens that are approved (2^256-1 means infinite)",
          "spender": "The address of the account which may transfer tokens"
        },
        "returns": {
          "_0": "Whether or not the approval succeeded"
        }
      },
      "balanceOf(address)": {
        "params": {
          "account": "The address of the account to get the balance of"
        },
        "returns": {
          "_0": "The number of tokens held"
        }
      },
      "burn(address,uint256)": {
        "params": {
          "amount": "The number of tokens to be burned",
          "src": "The account that will burn tokens"
        },
        "returns": {
          "_0": "Boolean indicating success of burn"
        }
      },
      "constructor": {
        "params": {
          "_firstSupplyChangeAllowed": "The timestamp after which the first supply change may occur",
          "_metadataManager": "The address with the ability to alter the token metadata",
          "_supplyManager": "The address with the ability to mint more tokens"
        }
      },
      "decreaseAllowance(address,uint256)": {
        "params": {
          "spender": "Spender's address",
          "subtractedValue": "Amount of decrease in allowance"
        },
        "returns": {
          "_0": "True if successful"
        }
      },
      "getDomainSeparator()": {
        "returns": {
          "_0": "Separator"
        }
      },
      "increaseAllowance(address,uint256)": {
        "params": {
          "addedValue": "Amount of increase in allowance",
          "spender": "Spender's address"
        },
        "returns": {
          "_0": "True if successful"
        }
      },
      "mint(address,uint256)": {
        "params": {
          "amount": "The number of tokens to be minted",
          "dst": "The address of the destination account"
        },
        "returns": {
          "_0": "Boolean indicating success of mint"
        }
      },
      "permit(address,address,uint256,uint256,uint8,bytes32,bytes32)": {
        "params": {
          "deadline": "The time at which to expire the signature",
          "owner": "The address to approve from",
          "r": "Half of the ECDSA signature pair",
          "s": "Half of the ECDSA signature pair",
          "spender": "The address to be approved",
          "v": "The recovery byte of the signature",
          "value": "The number of tokens that are approved (2^256-1 means infinite)"
        }
      },
      "receiveWithAuthorization(address,address,uint256,uint256,uint256,bytes32,uint8,bytes32,bytes32)": {
        "details": "This has an additional check to ensure that the payee's address matches the caller of this function to prevent front-running attacks.",
        "params": {
          "from": "Payer's address (Authorizer)",
          "nonce": "Unique nonce",
          "r": "r of the signature",
          "s": "s of the signature",
          "to": "Payee's address",
          "v": "v of the signature",
          "validAfter": "The time after which this is valid (unix time)",
          "validBefore": "The time before which this is valid (unix time)",
          "value": "Amount to be transferred"
        }
      },
      "setMetadataManager(address)": {
        "params": {
          "newMetadataManager": "The address of the new metadata manager"
        },
        "returns": {
          "_0": "true if successful"
        }
      },
      "setMintCap(uint16)": {
        "params": {
          "newCap": "The new mint cap in bips (10,000 bips = 1% of totalSupply)"
        },
        "returns": {
          "_0": "true if successful"
        }
      },
      "setSupplyChangeWaitingPeriod(uint32)": {
        "params": {
          "period": "The new supply change waiting period"
        },
        "returns": {
          "_0": "true if succssful"
        }
      },
      "setSupplyManager(address)": {
        "params": {
          "newSupplyManager": "The address of the new supply manager"
        },
        "returns": {
          "_0": "true if successful"
        }
      },
      "transfer(address,uint256)": {
        "params": {
          "amount": "The number of tokens to transfer",
          "dst": "The address of the destination account"
        },
        "returns": {
          "_0": "Whether or not the transfer succeeded"
        }
      },
      "transferFrom(address,address,uint256)": {
        "params": {
          "amount": "The number of tokens to transfer",
          "dst": "The address of the destination account",
          "src": "The address of the source account"
        },
        "returns": {
          "_0": "Whether or not the transfer succeeded"
        }
      },
      "transferWithAuthorization(address,address,uint256,uint256,uint256,bytes32,uint8,bytes32,bytes32)": {
        "params": {
          "from": "Payer's address (Authorizer)",
          "nonce": "Unique nonce",
          "r": "Half of the ECDSA signature pair",
          "s": "Half of the ECDSA signature pair",
          "to": "Payee's address",
          "v": "The recovery byte of the signature",
          "validAfter": "The time after which this is valid (unix time)",
          "validBefore": "The time before which this is valid (unix time)",
          "value": "Amount to be transferred"
        }
      },
      "updateTokenMetadata(string,string)": {
        "params": {
          "tokenName": "The new name for the token",
          "tokenSymbol": "The new symbol for the token"
        },
        "returns": {
          "_0": "true if successful"
        }
      }
    },
    "stateVariables": {
      "allowances": {
        "details": "Allowance amounts on behalf of others"
      },
      "authorizationState": {
        "details": "authorizer address > nonce > state (true = used / false = unused)"
      },
      "balances": {
        "details": "Official record of token balances for each account"
      }
    },
    "title": "KING",
    "version": 1
  },
  "userdoc": {
    "events": {
      "AuthorizationUsed(address,bytes32)": {
        "notice": "An event that's emitted whenever an authorized transfer occurs"
      },
      "MetadataManagerChanged(address,address)": {
        "notice": "An event that's emitted when the metadataManager address is changed"
      },
      "MintCapChanged(uint32,uint32)": {
        "notice": "An event that's emitted when the mintCap is changed"
      },
      "SupplyChangeWaitingPeriodChanged(uint32,uint32)": {
        "notice": "An event that's emitted when the supplyChangeWaitingPeriod is changed"
      },
      "SupplyManagerChanged(address,address)": {
        "notice": "An event that's emitted when the supplyManager address is changed"
      },
      "TokenMetaUpdated(string,string)": {
        "notice": "An event that's emitted when the token name and symbol are changed"
      }
    },
    "kind": "user",
    "methods": {
      "DOMAIN_TYPEHASH()": {
        "notice": "The EIP-712 typehash for the contract's domain keccak256(\"EIP712Domain(string name,string version,uint256 chainId,address verifyingContract)\")"
      },
      "PERMIT_TYPEHASH()": {
        "notice": "The EIP-712 typehash for permit (EIP-2612) keccak256(\"Permit(address owner,address spender,uint256 value,uint256 nonce,uint256 deadline)\");"
      },
      "RECEIVE_WITH_AUTHORIZATION_TYPEHASH()": {
        "notice": "keccak256(\"ReceiveWithAuthorization(address from,address to,uint256 value,uint256 validAfter,uint256 validBefore,bytes32 nonce)\")"
      },
      "TRANSFER_WITH_AUTHORIZATION_TYPEHASH()": {
        "notice": "keccak256(\"TransferWithAuthorization(address from,address to,uint256 value,uint256 validAfter,uint256 validBefore,bytes32 nonce)\");"
      },
      "VERSION_HASH()": {
        "notice": "The EIP-712 version hash keccak256(\"1\");"
      },
      "allowance(address,address)": {
        "notice": "Get the number of tokens `spender` is approved to spend on behalf of `account`"
      },
      "approve(address,uint256)": {
        "notice": "Approve `spender` to transfer up to `amount` from `src`"
      },
      "balanceOf(address)": {
        "notice": "Get the number of tokens held by the `account`"
      },
      "burn(address,uint256)": {
        "notice": "Burn tokens"
      },
      "constructor": {
        "notice": "Construct a new KING token"
      },
      "decimals()": {
        "notice": "EIP-20 token decimals for this token"
      },
      "decreaseAllowance(address,uint256)": {
        "notice": "Decrease the allowance by a given amount"
      },
      "getDomainSeparator()": {
        "notice": "EIP-712 Domain separator"
      },
      "increaseAllowance(address,uint256)": {
        "notice": "Increase the allowance by a given amount"
      },
      "metadataManager()": {
        "notice": "Address which may change token metadata"
      },
      "mint(address,uint256)": {
        "notice": "Mint new tokens"
      },
      "mintCap()": {
        "notice": "Cap on the total amount that can be minted at each mint (measured in bips: 10,000 bips = 1% of current totalSupply)"
      },
      "name()": {
        "notice": "EIP-20 token name for this token"
      },
      "nonces(address)": {
        "notice": "A record of states for signing / validating signatures"
      },
      "permit(address,address,uint256,uint256,uint8,bytes32,bytes32)": {
        "notice": "Triggers an approval from owner to spender"
      },
      "receiveWithAuthorization(address,address,uint256,uint256,uint256,bytes32,uint8,bytes32,bytes32)": {
        "notice": "Receive a transfer with a signed authorization from the payer"
      },
      "setMetadataManager(address)": {
        "notice": "Change the metadataManager address"
      },
      "setMintCap(uint16)": {
        "notice": "Set the maximum amount of tokens that can be minted at once"
      },
      "setSupplyChangeWaitingPeriod(uint32)": {
        "notice": "Set the minimum time between supply changes"
      },
      "setSupplyManager(address)": {
        "notice": "Change the supplyManager address"
      },
      "supplyChangeAllowedAfter()": {
        "notice": "The timestamp after which a supply change may occur"
      },
      "supplyChangeWaitingPeriod()": {
        "notice": "The initial minimum waiting time for changing the token supply"
      },
      "supplyChangeWaitingPeriodMinimum()": {
        "notice": "Hard cap on the minimum waiting time for changing the token supply"
      },
      "supplyManager()": {
        "notice": "Address which may mint/burn tokens"
      },
      "symbol()": {
        "notice": "EIP-20 token symbol for this token"
      },
      "totalSupply()": {
        "notice": "Total number of tokens in circulation"
      },
      "transfer(address,uint256)": {
        "notice": "Transfer `amount` tokens from `msg.sender` to `dst`"
      },
      "transferFrom(address,address,uint256)": {
        "notice": "Transfer `amount` tokens from `src` to `dst`"
      },
      "transferWithAuthorization(address,address,uint256,uint256,uint256,bytes32,uint8,bytes32,bytes32)": {
        "notice": "Transfer tokens with a signed authorization"
      },
      "updateTokenMetadata(string,string)": {
        "notice": "Update the token name and symbol"
      }
    },
    "notice": "ERC-20 with supply controls + add-ons to allow for offchain signing (see EIP-712, EIP-2612, and EIP-3009)",
    "version": 1
  },
  "storageLayout": {
    "storage": [
      {
        "astId": 2060,
        "contract": "contracts/facets/governance/CrownGovernanceToken.sol:CrownGovernanceToken",
        "label": "name",
        "offset": 0,
        "slot": "0",
        "type": "t_string_storage"
      },
      {
        "astId": 2064,
        "contract": "contracts/facets/governance/CrownGovernanceToken.sol:CrownGovernanceToken",
        "label": "symbol",
        "offset": 0,
        "slot": "1",
        "type": "t_string_storage"
      },
      {
        "astId": 2073,
        "contract": "contracts/facets/governance/CrownGovernanceToken.sol:CrownGovernanceToken",
        "label": "totalSupply",
        "offset": 0,
        "slot": "2",
        "type": "t_uint256"
      },
      {
        "astId": 2076,
        "contract": "contracts/facets/governance/CrownGovernanceToken.sol:CrownGovernanceToken",
        "label": "supplyManager",
        "offset": 0,
        "slot": "3",
        "type": "t_address"
      },
      {
        "astId": 2079,
        "contract": "contracts/facets/governance/CrownGovernanceToken.sol:CrownGovernanceToken",
        "label": "metadataManager",
        "offset": 0,
        "slot": "4",
        "type": "t_address"
      },
      {
        "astId": 2082,
        "contract": "contracts/facets/governance/CrownGovernanceToken.sol:CrownGovernanceToken",
        "label": "supplyChangeAllowedAfter",
        "offset": 0,
        "slot": "5",
        "type": "t_uint256"
      },
      {
        "astId": 2088,
        "contract": "contracts/facets/governance/CrownGovernanceToken.sol:CrownGovernanceToken",
        "label": "supplyChangeWaitingPeriod",
        "offset": 0,
        "slot": "6",
        "type": "t_uint32"
      },
      {
        "astId": 2098,
        "contract": "contracts/facets/governance/CrownGovernanceToken.sol:CrownGovernanceToken",
        "label": "mintCap",
        "offset": 4,
        "slot": "6",
        "type": "t_uint32"
      },
      {
        "astId": 2105,
        "contract": "contracts/facets/governance/CrownGovernanceToken.sol:CrownGovernanceToken",
        "label": "allowances",
        "offset": 0,
        "slot": "7",
        "type": "t_mapping(t_address,t_mapping(t_address,t_uint256))"
      },
      {
        "astId": 2110,
        "contract": "contracts/facets/governance/CrownGovernanceToken.sol:CrownGovernanceToken",
        "label": "balances",
        "offset": 0,
        "slot": "8",
        "type": "t_mapping(t_address,t_uint256)"
      },
      {
        "astId": 2135,
        "contract": "contracts/facets/governance/CrownGovernanceToken.sol:CrownGovernanceToken",
        "label": "nonces",
        "offset": 0,
        "slot": "9",
        "type": "t_mapping(t_address,t_uint256)"
      },
      {
        "astId": 2142,
        "contract": "contracts/facets/governance/CrownGovernanceToken.sol:CrownGovernanceToken",
        "label": "authorizationState",
        "offset": 0,
        "slot": "10",
        "type": "t_mapping(t_address,t_mapping(t_bytes32,t_bool))"
      }
    ],
    "types": {
      "t_address": {
        "encoding": "inplace",
        "label": "address",
        "numberOfBytes": "20"
      },
      "t_bool": {
        "encoding": "inplace",
        "label": "bool",
        "numberOfBytes": "1"
      },
      "t_bytes32": {
        "encoding": "inplace",
        "label": "bytes32",
        "numberOfBytes": "32"
      },
      "t_mapping(t_address,t_mapping(t_address,t_uint256))": {
        "encoding": "mapping",
        "key": "t_address",
        "label": "mapping(address => mapping(address => uint256))",
        "numberOfBytes": "32",
        "value": "t_mapping(t_address,t_uint256)"
      },
      "t_mapping(t_address,t_mapping(t_bytes32,t_bool))": {
        "encoding": "mapping",
        "key": "t_address",
        "label": "mapping(address => mapping(bytes32 => bool))",
        "numberOfBytes": "32",
        "value": "t_mapping(t_bytes32,t_bool)"
      },
      "t_mapping(t_address,t_uint256)": {
        "encoding": "mapping",
        "key": "t_address",
        "label": "mapping(address => uint256)",
        "numberOfBytes": "32",
        "value": "t_uint256"
      },
      "t_mapping(t_bytes32,t_bool)": {
        "encoding": "mapping",
        "key": "t_bytes32",
        "label": "mapping(bytes32 => bool)",
        "numberOfBytes": "32",
        "value": "t_bool"
      },
      "t_string_storage": {
        "encoding": "bytes",
        "label": "string",
        "numberOfBytes": "32"
      },
      "t_uint256": {
        "encoding": "inplace",
        "label": "uint256",
        "numberOfBytes": "32"
      },
      "t_uint32": {
        "encoding": "inplace",
        "label": "uint32",
        "numberOfBytes": "4"
      }
    }
  }
}